{
	"RealEstate.sol": {
		"RealEstate": {
			"abi": [
				{
					"inputs": [],
					"stateMutability": "nonpayable",
					"type": "constructor"
				},
				{
					"anonymous": false,
					"inputs": [
						{
							"indexed": false,
							"internalType": "uint256",
							"name": "leaseId",
							"type": "uint256"
						},
						{
							"indexed": false,
							"internalType": "uint256",
							"name": "propertyId",
							"type": "uint256"
						},
						{
							"indexed": false,
							"internalType": "address",
							"name": "tenant",
							"type": "address"
						},
						{
							"indexed": false,
							"internalType": "uint256",
							"name": "monthlyRent",
							"type": "uint256"
						}
					],
					"name": "LeaseCreated",
					"type": "event"
				},
				{
					"anonymous": false,
					"inputs": [
						{
							"indexed": false,
							"internalType": "uint256",
							"name": "propertyId",
							"type": "uint256"
						},
						{
							"indexed": false,
							"internalType": "string",
							"name": "location",
							"type": "string"
						},
						{
							"indexed": false,
							"internalType": "uint256",
							"name": "price",
							"type": "uint256"
						}
					],
					"name": "PropertyListed",
					"type": "event"
				},
				{
					"anonymous": false,
					"inputs": [
						{
							"indexed": false,
							"internalType": "uint256",
							"name": "propertyId",
							"type": "uint256"
						},
						{
							"indexed": false,
							"internalType": "address",
							"name": "newOwner",
							"type": "address"
						}
					],
					"name": "PropertySold",
					"type": "event"
				},
				{
					"anonymous": false,
					"inputs": [
						{
							"indexed": false,
							"internalType": "uint256",
							"name": "leaseId",
							"type": "uint256"
						},
						{
							"indexed": false,
							"internalType": "uint256",
							"name": "amount",
							"type": "uint256"
						},
						{
							"indexed": false,
							"internalType": "uint256",
							"name": "timestamp",
							"type": "uint256"
						}
					],
					"name": "RentPaid",
					"type": "event"
				},
				{
					"inputs": [],
					"name": "admin",
					"outputs": [
						{
							"internalType": "address",
							"name": "",
							"type": "address"
						}
					],
					"stateMutability": "view",
					"type": "function"
				},
				{
					"inputs": [
						{
							"internalType": "uint256",
							"name": "_propertyId",
							"type": "uint256"
						}
					],
					"name": "buyProperty",
					"outputs": [],
					"stateMutability": "payable",
					"type": "function"
				},
				{
					"inputs": [
						{
							"internalType": "uint256",
							"name": "_propertyId",
							"type": "uint256"
						},
						{
							"internalType": "address",
							"name": "_tenant",
							"type": "address"
						},
						{
							"internalType": "uint256",
							"name": "_monthlyRent",
							"type": "uint256"
						},
						{
							"internalType": "uint256",
							"name": "_leaseDurationInMonths",
							"type": "uint256"
						}
					],
					"name": "createLease",
					"outputs": [],
					"stateMutability": "nonpayable",
					"type": "function"
				},
				{
					"inputs": [
						{
							"internalType": "uint256",
							"name": "_leaseId",
							"type": "uint256"
						}
					],
					"name": "getLeaseDetails",
					"outputs": [
						{
							"internalType": "uint256",
							"name": "",
							"type": "uint256"
						},
						{
							"internalType": "address",
							"name": "",
							"type": "address"
						},
						{
							"internalType": "uint256",
							"name": "",
							"type": "uint256"
						},
						{
							"internalType": "uint256",
							"name": "",
							"type": "uint256"
						},
						{
							"internalType": "bool",
							"name": "",
							"type": "bool"
						}
					],
					"stateMutability": "view",
					"type": "function"
				},
				{
					"inputs": [
						{
							"internalType": "uint256",
							"name": "_propertyId",
							"type": "uint256"
						}
					],
					"name": "getPropertyDetails",
					"outputs": [
						{
							"internalType": "string",
							"name": "",
							"type": "string"
						},
						{
							"internalType": "uint256",
							"name": "",
							"type": "uint256"
						},
						{
							"internalType": "address",
							"name": "",
							"type": "address"
						},
						{
							"internalType": "bool",
							"name": "",
							"type": "bool"
						}
					],
					"stateMutability": "view",
					"type": "function"
				},
				{
					"inputs": [
						{
							"internalType": "uint256",
							"name": "",
							"type": "uint256"
						}
					],
					"name": "leases",
					"outputs": [
						{
							"internalType": "uint256",
							"name": "propertyId",
							"type": "uint256"
						},
						{
							"internalType": "address",
							"name": "tenant",
							"type": "address"
						},
						{
							"internalType": "uint256",
							"name": "monthlyRent",
							"type": "uint256"
						},
						{
							"internalType": "uint256",
							"name": "leaseEndDate",
							"type": "uint256"
						},
						{
							"internalType": "bool",
							"name": "active",
							"type": "bool"
						}
					],
					"stateMutability": "view",
					"type": "function"
				},
				{
					"inputs": [
						{
							"internalType": "string",
							"name": "_location",
							"type": "string"
						},
						{
							"internalType": "uint256",
							"name": "_price",
							"type": "uint256"
						},
						{
							"internalType": "address payable",
							"name": "_owner",
							"type": "address"
						}
					],
					"name": "listProperty",
					"outputs": [],
					"stateMutability": "nonpayable",
					"type": "function"
				},
				{
					"inputs": [
						{
							"internalType": "uint256",
							"name": "_leaseId",
							"type": "uint256"
						}
					],
					"name": "payRent",
					"outputs": [],
					"stateMutability": "payable",
					"type": "function"
				},
				{
					"inputs": [
						{
							"internalType": "uint256",
							"name": "",
							"type": "uint256"
						}
					],
					"name": "properties",
					"outputs": [
						{
							"internalType": "uint256",
							"name": "propertyId",
							"type": "uint256"
						},
						{
							"internalType": "string",
							"name": "location",
							"type": "string"
						},
						{
							"internalType": "uint256",
							"name": "price",
							"type": "uint256"
						},
						{
							"internalType": "address payable",
							"name": "owner",
							"type": "address"
						},
						{
							"internalType": "bool",
							"name": "isForSale",
							"type": "bool"
						}
					],
					"stateMutability": "view",
					"type": "function"
				},
				{
					"inputs": [
						{
							"internalType": "uint256",
							"name": "_leaseId",
							"type": "uint256"
						}
					],
					"name": "terminateLease",
					"outputs": [],
					"stateMutability": "nonpayable",
					"type": "function"
				},
				{
					"inputs": [],
					"name": "totalLeases",
					"outputs": [
						{
							"internalType": "uint256",
							"name": "",
							"type": "uint256"
						}
					],
					"stateMutability": "view",
					"type": "function"
				},
				{
					"inputs": [],
					"name": "totalProperties",
					"outputs": [
						{
							"internalType": "uint256",
							"name": "",
							"type": "uint256"
						}
					],
					"stateMutability": "view",
					"type": "function"
				}
			],
			"devdoc": {
				"kind": "dev",
				"methods": {},
				"version": 1
			},
			"evm": {
				"assembly": "    /* \"RealEstate.sol\":57:4669  contract RealEstate {... */\n  mstore(0x40, 0x80)\n    /* \"RealEstate.sol\":1092:1166  constructor() {... */\n  callvalue\n  dup1\n  iszero\n  tag_1\n  jumpi\n  0x00\n  dup1\n  revert\ntag_1:\n  pop\n    /* \"RealEstate.sol\":1124:1134  msg.sender */\n  caller\n    /* \"RealEstate.sol\":1116:1121  admin */\n  0x00\n  dup1\n    /* \"RealEstate.sol\":1116:1134  admin = msg.sender */\n  0x0100\n  exp\n  dup2\n  sload\n  dup2\n  0xffffffffffffffffffffffffffffffffffffffff\n  mul\n  not\n  and\n  swap1\n  dup4\n  0xffffffffffffffffffffffffffffffffffffffff\n  and\n  mul\n  or\n  swap1\n  sstore\n  pop\n    /* \"RealEstate.sol\":57:4669  contract RealEstate {... */\n  dataSize(sub_0)\n  dup1\n  dataOffset(sub_0)\n  0x00\n  codecopy\n  0x00\n  return\nstop\n\nsub_0: assembly {\n        /* \"RealEstate.sol\":57:4669  contract RealEstate {... */\n      mstore(0x40, 0x80)\n      jumpi(tag_1, lt(calldatasize, 0x04))\n      shr(0xe0, calldataload(0x00))\n      dup1\n      0x6fa830a6\n      gt\n      tag_14\n      jumpi\n      dup1\n      0x6fa830a6\n      eq\n      tag_8\n      jumpi\n      dup1\n      0x8927a106\n      eq\n      tag_9\n      jumpi\n      dup1\n      0xd89e1e1e\n      eq\n      tag_10\n      jumpi\n      dup1\n      0xd9e8843f\n      eq\n      tag_11\n      jumpi\n      dup1\n      0xf7b10808\n      eq\n      tag_12\n      jumpi\n      dup1\n      0xf851a440\n      eq\n      tag_13\n      jumpi\n      jump(tag_1)\n    tag_14:\n      dup1\n      0x0b3bce20\n      eq\n      tag_2\n      jumpi\n      dup1\n      0x126dbe43\n      eq\n      tag_3\n      jumpi\n      dup1\n      0x20d0f311\n      eq\n      tag_4\n      jumpi\n      dup1\n      0x2e8331fa\n      eq\n      tag_5\n      jumpi\n      dup1\n      0x57286c1f\n      eq\n      tag_6\n      jumpi\n      dup1\n      0x588e00a5\n      eq\n      tag_7\n      jumpi\n    tag_1:\n      0x00\n      dup1\n      revert\n        /* \"RealEstate.sol\":532:559  uint public totalProperties */\n    tag_2:\n      callvalue\n      dup1\n      iszero\n      tag_15\n      jumpi\n      0x00\n      dup1\n      revert\n    tag_15:\n      pop\n      tag_16\n      tag_17\n      jump\t// in\n    tag_16:\n      mload(0x40)\n      tag_18\n      swap2\n      swap1\n      tag_19\n      jump\t// in\n    tag_18:\n      mload(0x40)\n      dup1\n      swap2\n      sub\n      swap1\n      return\n        /* \"RealEstate.sol\":4107:4365  function getPropertyDetails(uint _propertyId) public view returns (string memory, uint, address, bool) {... */\n    tag_3:\n      callvalue\n      dup1\n      iszero\n      tag_20\n      jumpi\n      0x00\n      dup1\n      revert\n    tag_20:\n      pop\n      tag_21\n      0x04\n      dup1\n      calldatasize\n      sub\n      dup2\n      add\n      swap1\n      tag_22\n      swap2\n      swap1\n      tag_23\n      jump\t// in\n    tag_22:\n      tag_24\n      jump\t// in\n    tag_21:\n      mload(0x40)\n      tag_25\n      swap5\n      swap4\n      swap3\n      swap2\n      swap1\n      tag_26\n      jump\t// in\n    tag_25:\n      mload(0x40)\n      dup1\n      swap2\n      sub\n      swap1\n      return\n        /* \"RealEstate.sol\":565:588  uint public totalLeases */\n    tag_4:\n      callvalue\n      dup1\n      iszero\n      tag_27\n      jumpi\n      0x00\n      dup1\n      revert\n    tag_27:\n      pop\n      tag_28\n      tag_29\n      jump\t// in\n    tag_28:\n      mload(0x40)\n      tag_30\n      swap2\n      swap1\n      tag_19\n      jump\t// in\n    tag_30:\n      mload(0x40)\n      dup1\n      swap2\n      sub\n      swap1\n      return\n        /* \"RealEstate.sol\":4408:4667  function getLeaseDetails(uint _leaseId) public view returns (uint, address, uint, uint, bool) {... */\n    tag_5:\n      callvalue\n      dup1\n      iszero\n      tag_31\n      jumpi\n      0x00\n      dup1\n      revert\n    tag_31:\n      pop\n      tag_32\n      0x04\n      dup1\n      calldatasize\n      sub\n      dup2\n      add\n      swap1\n      tag_33\n      swap2\n      swap1\n      tag_23\n      jump\t// in\n    tag_33:\n      tag_34\n      jump\t// in\n    tag_32:\n      mload(0x40)\n      tag_35\n      swap6\n      swap5\n      swap4\n      swap3\n      swap2\n      swap1\n      tag_36\n      jump\t// in\n    tag_35:\n      mload(0x40)\n      dup1\n      swap2\n      sub\n      swap1\n      return\n        /* \"RealEstate.sol\":2322:2970  function createLease(uint _propertyId, address _tenant, uint _monthlyRent, uint _leaseDurationInMonths) public {... */\n    tag_6:\n      callvalue\n      dup1\n      iszero\n      tag_37\n      jumpi\n      0x00\n      dup1\n      revert\n    tag_37:\n      pop\n      tag_38\n      0x04\n      dup1\n      calldatasize\n      sub\n      dup2\n      add\n      swap1\n      tag_39\n      swap2\n      swap1\n      tag_40\n      jump\t// in\n    tag_39:\n      tag_41\n      jump\t// in\n    tag_38:\n      stop\n        /* \"RealEstate.sol\":3637:4061  function terminateLease(uint _leaseId) public {... */\n    tag_7:\n      callvalue\n      dup1\n      iszero\n      tag_42\n      jumpi\n      0x00\n      dup1\n      revert\n    tag_42:\n      pop\n      tag_43\n      0x04\n      dup1\n      calldatasize\n      sub\n      dup2\n      add\n      swap1\n      tag_44\n      swap2\n      swap1\n      tag_23\n      jump\t// in\n    tag_44:\n      tag_45\n      jump\t// in\n    tag_43:\n      stop\n        /* \"RealEstate.sol\":1799:2272  function buyProperty(uint _propertyId) public payable {... */\n    tag_8:\n      tag_46\n      0x04\n      dup1\n      calldatasize\n      sub\n      dup2\n      add\n      swap1\n      tag_47\n      swap2\n      swap1\n      tag_23\n      jump\t// in\n    tag_47:\n      tag_48\n      jump\t// in\n    tag_46:\n      stop\n        /* \"RealEstate.sol\":682:727  mapping(uint => LeaseAgreement) public leases */\n    tag_9:\n      callvalue\n      dup1\n      iszero\n      tag_49\n      jumpi\n      0x00\n      dup1\n      revert\n    tag_49:\n      pop\n      tag_50\n      0x04\n      dup1\n      calldatasize\n      sub\n      dup2\n      add\n      swap1\n      tag_51\n      swap2\n      swap1\n      tag_23\n      jump\t// in\n    tag_51:\n      tag_52\n      jump\t// in\n    tag_50:\n      mload(0x40)\n      tag_53\n      swap6\n      swap5\n      swap4\n      swap3\n      swap2\n      swap1\n      tag_36\n      jump\t// in\n    tag_53:\n      mload(0x40)\n      dup1\n      swap2\n      sub\n      swap1\n      return\n        /* \"RealEstate.sol\":1391:1759  function listProperty(string memory _location, uint _price, address payable _owner) public onlyAdmin {... */\n    tag_10:\n      callvalue\n      dup1\n      iszero\n      tag_54\n      jumpi\n      0x00\n      dup1\n      revert\n    tag_54:\n      pop\n      tag_55\n      0x04\n      dup1\n      calldatasize\n      sub\n      dup2\n      add\n      swap1\n      tag_56\n      swap2\n      swap1\n      tag_57\n      jump\t// in\n    tag_56:\n      tag_58\n      jump\t// in\n    tag_55:\n      stop\n        /* \"RealEstate.sol\":3024:3594  function payRent(uint _leaseId) public payable {... */\n    tag_11:\n      tag_59\n      0x04\n      dup1\n      calldatasize\n      sub\n      dup2\n      add\n      swap1\n      tag_60\n      swap2\n      swap1\n      tag_23\n      jump\t// in\n    tag_60:\n      tag_61\n      jump\t// in\n    tag_59:\n      stop\n        /* \"RealEstate.sol\":595:638  mapping(uint => Property) public properties */\n    tag_12:\n      callvalue\n      dup1\n      iszero\n      tag_62\n      jumpi\n      0x00\n      dup1\n      revert\n    tag_62:\n      pop\n      tag_63\n      0x04\n      dup1\n      calldatasize\n      sub\n      dup2\n      add\n      swap1\n      tag_64\n      swap2\n      swap1\n      tag_23\n      jump\t// in\n    tag_64:\n      tag_65\n      jump\t// in\n    tag_63:\n      mload(0x40)\n      tag_66\n      swap6\n      swap5\n      swap4\n      swap3\n      swap2\n      swap1\n      tag_67\n      jump\t// in\n    tag_66:\n      mload(0x40)\n      dup1\n      swap2\n      sub\n      swap1\n      return\n        /* \"RealEstate.sol\":106:126  address public admin */\n    tag_13:\n      callvalue\n      dup1\n      iszero\n      tag_68\n      jumpi\n      0x00\n      dup1\n      revert\n    tag_68:\n      pop\n      tag_69\n      tag_70\n      jump\t// in\n    tag_69:\n      mload(0x40)\n      tag_71\n      swap2\n      swap1\n      tag_72\n      jump\t// in\n    tag_71:\n      mload(0x40)\n      dup1\n      swap2\n      sub\n      swap1\n      return\n        /* \"RealEstate.sol\":532:559  uint public totalProperties */\n    tag_17:\n      sload(0x01)\n      dup2\n      jump\t// out\n        /* \"RealEstate.sol\":4107:4365  function getPropertyDetails(uint _propertyId) public view returns (string memory, uint, address, bool) {... */\n    tag_24:\n        /* \"RealEstate.sol\":4174:4187  string memory */\n      0x60\n        /* \"RealEstate.sol\":4189:4193  uint */\n      0x00\n        /* \"RealEstate.sol\":4195:4202  address */\n      dup1\n        /* \"RealEstate.sol\":4204:4208  bool */\n      0x00\n        /* \"RealEstate.sol\":4220:4244  Property memory property */\n      dup1\n        /* \"RealEstate.sol\":4247:4257  properties */\n      0x03\n        /* \"RealEstate.sol\":4247:4270  properties[_propertyId] */\n      0x00\n        /* \"RealEstate.sol\":4258:4269  _propertyId */\n      dup8\n        /* \"RealEstate.sol\":4247:4270  properties[_propertyId] */\n      dup2\n      mstore\n      0x20\n      add\n      swap1\n      dup2\n      mstore\n      0x20\n      add\n      0x00\n      keccak256\n        /* \"RealEstate.sol\":4220:4270  Property memory property = properties[_propertyId] */\n      mload(0x40)\n      dup1\n      0xa0\n      add\n      0x40\n      mstore\n      swap1\n      dup2\n      0x00\n      dup3\n      add\n      sload\n      dup2\n      mstore\n      0x20\n      add\n      0x01\n      dup3\n      add\n      dup1\n      sload\n      tag_74\n      swap1\n      tag_75\n      jump\t// in\n    tag_74:\n      dup1\n      0x1f\n      add\n      0x20\n      dup1\n      swap2\n      div\n      mul\n      0x20\n      add\n      mload(0x40)\n      swap1\n      dup2\n      add\n      0x40\n      mstore\n      dup1\n      swap3\n      swap2\n      swap1\n      dup2\n      dup2\n      mstore\n      0x20\n      add\n      dup3\n      dup1\n      sload\n      tag_76\n      swap1\n      tag_75\n      jump\t// in\n    tag_76:\n      dup1\n      iszero\n      tag_77\n      jumpi\n      dup1\n      0x1f\n      lt\n      tag_78\n      jumpi\n      0x0100\n      dup1\n      dup4\n      sload\n      div\n      mul\n      dup4\n      mstore\n      swap2\n      0x20\n      add\n      swap2\n      jump(tag_77)\n    tag_78:\n      dup3\n      add\n      swap2\n      swap1\n      0x00\n      mstore\n      keccak256(0x00, 0x20)\n      swap1\n    tag_79:\n      dup2\n      sload\n      dup2\n      mstore\n      swap1\n      0x01\n      add\n      swap1\n      0x20\n      add\n      dup1\n      dup4\n      gt\n      tag_79\n      jumpi\n      dup3\n      swap1\n      sub\n      0x1f\n      and\n      dup3\n      add\n      swap2\n    tag_77:\n      pop\n      pop\n      pop\n      pop\n      pop\n      dup2\n      mstore\n      0x20\n      add\n      0x02\n      dup3\n      add\n      sload\n      dup2\n      mstore\n      0x20\n      add\n      0x03\n      dup3\n      add\n      0x00\n      swap1\n      sload\n      swap1\n      0x0100\n      exp\n      swap1\n      div\n      0xffffffffffffffffffffffffffffffffffffffff\n      and\n      0xffffffffffffffffffffffffffffffffffffffff\n      and\n      0xffffffffffffffffffffffffffffffffffffffff\n      and\n      dup2\n      mstore\n      0x20\n      add\n      0x03\n      dup3\n      add\n      0x14\n      swap1\n      sload\n      swap1\n      0x0100\n      exp\n      swap1\n      div\n      0xff\n      and\n      iszero\n      iszero\n      iszero\n      iszero\n      dup2\n      mstore\n      pop\n      pop\n      swap1\n      pop\n        /* \"RealEstate.sol\":4288:4296  property */\n      dup1\n        /* \"RealEstate.sol\":4288:4305  property.location */\n      0x20\n      add\n      mload\n        /* \"RealEstate.sol\":4307:4315  property */\n      dup2\n        /* \"RealEstate.sol\":4307:4321  property.price */\n      0x40\n      add\n      mload\n        /* \"RealEstate.sol\":4323:4331  property */\n      dup3\n        /* \"RealEstate.sol\":4323:4337  property.owner */\n      0x60\n      add\n      mload\n        /* \"RealEstate.sol\":4339:4347  property */\n      dup4\n        /* \"RealEstate.sol\":4339:4357  property.isForSale */\n      0x80\n      add\n      mload\n        /* \"RealEstate.sol\":4280:4358  return (property.location, property.price, property.owner, property.isForSale) */\n      swap5\n      pop\n      swap5\n      pop\n      swap5\n      pop\n      swap5\n      pop\n      pop\n        /* \"RealEstate.sol\":4107:4365  function getPropertyDetails(uint _propertyId) public view returns (string memory, uint, address, bool) {... */\n      swap2\n      swap4\n      pop\n      swap2\n      swap4\n      jump\t// out\n        /* \"RealEstate.sol\":565:588  uint public totalLeases */\n    tag_29:\n      sload(0x02)\n      dup2\n      jump\t// out\n        /* \"RealEstate.sol\":4408:4667  function getLeaseDetails(uint _leaseId) public view returns (uint, address, uint, uint, bool) {... */\n    tag_34:\n        /* \"RealEstate.sol\":4469:4473  uint */\n      0x00\n        /* \"RealEstate.sol\":4475:4482  address */\n      dup1\n        /* \"RealEstate.sol\":4484:4488  uint */\n      0x00\n        /* \"RealEstate.sol\":4490:4494  uint */\n      dup1\n        /* \"RealEstate.sol\":4496:4500  bool */\n      0x00\n        /* \"RealEstate.sol\":4512:4539  LeaseAgreement memory lease */\n      dup1\n        /* \"RealEstate.sol\":4542:4548  leases */\n      0x04\n        /* \"RealEstate.sol\":4542:4558  leases[_leaseId] */\n      0x00\n        /* \"RealEstate.sol\":4549:4557  _leaseId */\n      dup9\n        /* \"RealEstate.sol\":4542:4558  leases[_leaseId] */\n      dup2\n      mstore\n      0x20\n      add\n      swap1\n      dup2\n      mstore\n      0x20\n      add\n      0x00\n      keccak256\n        /* \"RealEstate.sol\":4512:4558  LeaseAgreement memory lease = leases[_leaseId] */\n      mload(0x40)\n      dup1\n      0xa0\n      add\n      0x40\n      mstore\n      swap1\n      dup2\n      0x00\n      dup3\n      add\n      sload\n      dup2\n      mstore\n      0x20\n      add\n      0x01\n      dup3\n      add\n      0x00\n      swap1\n      sload\n      swap1\n      0x0100\n      exp\n      swap1\n      div\n      0xffffffffffffffffffffffffffffffffffffffff\n      and\n      0xffffffffffffffffffffffffffffffffffffffff\n      and\n      0xffffffffffffffffffffffffffffffffffffffff\n      and\n      dup2\n      mstore\n      0x20\n      add\n      0x02\n      dup3\n      add\n      sload\n      dup2\n      mstore\n      0x20\n      add\n      0x03\n      dup3\n      add\n      sload\n      dup2\n      mstore\n      0x20\n      add\n      0x04\n      dup3\n      add\n      0x00\n      swap1\n      sload\n      swap1\n      0x0100\n      exp\n      swap1\n      div\n      0xff\n      and\n      iszero\n      iszero\n      iszero\n      iszero\n      dup2\n      mstore\n      pop\n      pop\n      swap1\n      pop\n        /* \"RealEstate.sol\":4576:4581  lease */\n      dup1\n        /* \"RealEstate.sol\":4576:4592  lease.propertyId */\n      0x00\n      add\n      mload\n        /* \"RealEstate.sol\":4594:4599  lease */\n      dup2\n        /* \"RealEstate.sol\":4594:4606  lease.tenant */\n      0x20\n      add\n      mload\n        /* \"RealEstate.sol\":4608:4613  lease */\n      dup3\n        /* \"RealEstate.sol\":4608:4625  lease.monthlyRent */\n      0x40\n      add\n      mload\n        /* \"RealEstate.sol\":4627:4632  lease */\n      dup4\n        /* \"RealEstate.sol\":4627:4645  lease.leaseEndDate */\n      0x60\n      add\n      mload\n        /* \"RealEstate.sol\":4647:4652  lease */\n      dup5\n        /* \"RealEstate.sol\":4647:4659  lease.active */\n      0x80\n      add\n      mload\n        /* \"RealEstate.sol\":4568:4660  return (lease.propertyId, lease.tenant, lease.monthlyRent, lease.leaseEndDate, lease.active) */\n      swap6\n      pop\n      swap6\n      pop\n      swap6\n      pop\n      swap6\n      pop\n      swap6\n      pop\n      pop\n        /* \"RealEstate.sol\":4408:4667  function getLeaseDetails(uint _leaseId) public view returns (uint, address, uint, uint, bool) {... */\n      swap2\n      swap4\n      swap6\n      swap1\n      swap3\n      swap5\n      pop\n      jump\t// out\n        /* \"RealEstate.sol\":2322:2970  function createLease(uint _propertyId, address _tenant, uint _monthlyRent, uint _leaseDurationInMonths) public {... */\n    tag_41:\n        /* \"RealEstate.sol\":2443:2468  Property storage property */\n      0x00\n        /* \"RealEstate.sol\":2471:2481  properties */\n      0x03\n        /* \"RealEstate.sol\":2471:2494  properties[_propertyId] */\n      0x00\n        /* \"RealEstate.sol\":2482:2493  _propertyId */\n      dup7\n        /* \"RealEstate.sol\":2471:2494  properties[_propertyId] */\n      dup2\n      mstore\n      0x20\n      add\n      swap1\n      dup2\n      mstore\n      0x20\n      add\n      0x00\n      keccak256\n        /* \"RealEstate.sol\":2443:2494  Property storage property = properties[_propertyId] */\n      swap1\n      pop\n        /* \"RealEstate.sol\":2530:2540  msg.sender */\n      caller\n        /* \"RealEstate.sol\":2512:2540  property.owner == msg.sender */\n      0xffffffffffffffffffffffffffffffffffffffff\n      and\n        /* \"RealEstate.sol\":2512:2520  property */\n      dup2\n        /* \"RealEstate.sol\":2512:2526  property.owner */\n      0x03\n      add\n      0x00\n      swap1\n      sload\n      swap1\n      0x0100\n      exp\n      swap1\n      div\n      0xffffffffffffffffffffffffffffffffffffffff\n      and\n        /* \"RealEstate.sol\":2512:2540  property.owner == msg.sender */\n      0xffffffffffffffffffffffffffffffffffffffff\n      and\n      eq\n        /* \"RealEstate.sol\":2504:2588  require(property.owner == msg.sender, \"Only the property owner can create a lease.\") */\n      tag_82\n      jumpi\n      mload(0x40)\n      0x08c379a000000000000000000000000000000000000000000000000000000000\n      dup2\n      mstore\n      0x04\n      add\n      tag_83\n      swap1\n      tag_84\n      jump\t// in\n    tag_83:\n      mload(0x40)\n      dup1\n      swap2\n      sub\n      swap1\n      revert\n    tag_82:\n        /* \"RealEstate.sol\":2607:2615  property */\n      dup1\n        /* \"RealEstate.sol\":2607:2625  property.isForSale */\n      0x03\n      add\n      0x14\n      swap1\n      sload\n      swap1\n      0x0100\n      exp\n      swap1\n      div\n      0xff\n      and\n        /* \"RealEstate.sol\":2606:2625  !property.isForSale */\n      iszero\n        /* \"RealEstate.sol\":2598:2671  require(!property.isForSale, \"Cannot lease a property that is for sale.\") */\n      tag_85\n      jumpi\n      mload(0x40)\n      0x08c379a000000000000000000000000000000000000000000000000000000000\n      dup2\n      mstore\n      0x04\n      add\n      tag_86\n      swap1\n      tag_87\n      jump\t// in\n    tag_86:\n      mload(0x40)\n      dup1\n      swap2\n      sub\n      swap1\n      revert\n    tag_85:\n        /* \"RealEstate.sol\":2682:2694  uint leaseId */\n      0x00\n        /* \"RealEstate.sol\":2697:2708  totalLeases */\n      0x02\n      0x00\n        /* \"RealEstate.sol\":2697:2710  totalLeases++ */\n      dup2\n      sload\n      dup1\n      swap3\n      swap2\n      swap1\n      tag_88\n      swap1\n      tag_89\n      jump\t// in\n    tag_88:\n      swap2\n      swap1\n      pop\n      sstore\n        /* \"RealEstate.sol\":2682:2710  uint leaseId = totalLeases++ */\n      swap1\n      pop\n        /* \"RealEstate.sol\":2720:2737  uint leaseEndDate */\n      0x00\n        /* \"RealEstate.sol\":2784:2791  30 days */\n      0x278d00\n        /* \"RealEstate.sol\":2759:2781  _leaseDurationInMonths */\n      dup5\n        /* \"RealEstate.sol\":2759:2791  _leaseDurationInMonths * 30 days */\n      tag_90\n      swap2\n      swap1\n      tag_91\n      jump\t// in\n    tag_90:\n        /* \"RealEstate.sol\":2740:2755  block.timestamp */\n      timestamp\n        /* \"RealEstate.sol\":2740:2792  block.timestamp + (_leaseDurationInMonths * 30 days) */\n      tag_92\n      swap2\n      swap1\n      tag_93\n      jump\t// in\n    tag_92:\n        /* \"RealEstate.sol\":2720:2792  uint leaseEndDate = block.timestamp + (_leaseDurationInMonths * 30 days) */\n      swap1\n      pop\n        /* \"RealEstate.sol\":2820:2890  LeaseAgreement(_propertyId, _tenant, _monthlyRent, leaseEndDate, true) */\n      mload(0x40)\n      dup1\n      0xa0\n      add\n      0x40\n      mstore\n      dup1\n        /* \"RealEstate.sol\":2835:2846  _propertyId */\n      dup9\n        /* \"RealEstate.sol\":2820:2890  LeaseAgreement(_propertyId, _tenant, _monthlyRent, leaseEndDate, true) */\n      dup2\n      mstore\n      0x20\n      add\n        /* \"RealEstate.sol\":2848:2855  _tenant */\n      dup8\n        /* \"RealEstate.sol\":2820:2890  LeaseAgreement(_propertyId, _tenant, _monthlyRent, leaseEndDate, true) */\n      0xffffffffffffffffffffffffffffffffffffffff\n      and\n      dup2\n      mstore\n      0x20\n      add\n        /* \"RealEstate.sol\":2857:2869  _monthlyRent */\n      dup7\n        /* \"RealEstate.sol\":2820:2890  LeaseAgreement(_propertyId, _tenant, _monthlyRent, leaseEndDate, true) */\n      dup2\n      mstore\n      0x20\n      add\n        /* \"RealEstate.sol\":2871:2883  leaseEndDate */\n      dup3\n        /* \"RealEstate.sol\":2820:2890  LeaseAgreement(_propertyId, _tenant, _monthlyRent, leaseEndDate, true) */\n      dup2\n      mstore\n      0x20\n      add\n        /* \"RealEstate.sol\":2885:2889  true */\n      0x01\n        /* \"RealEstate.sol\":2820:2890  LeaseAgreement(_propertyId, _tenant, _monthlyRent, leaseEndDate, true) */\n      iszero\n      iszero\n      dup2\n      mstore\n      pop\n        /* \"RealEstate.sol\":2802:2808  leases */\n      0x04\n        /* \"RealEstate.sol\":2802:2817  leases[leaseId] */\n      0x00\n        /* \"RealEstate.sol\":2809:2816  leaseId */\n      dup5\n        /* \"RealEstate.sol\":2802:2817  leases[leaseId] */\n      dup2\n      mstore\n      0x20\n      add\n      swap1\n      dup2\n      mstore\n      0x20\n      add\n      0x00\n      keccak256\n        /* \"RealEstate.sol\":2802:2890  leases[leaseId] = LeaseAgreement(_propertyId, _tenant, _monthlyRent, leaseEndDate, true) */\n      0x00\n      dup3\n      add\n      mload\n      dup2\n      0x00\n      add\n      sstore\n      0x20\n      dup3\n      add\n      mload\n      dup2\n      0x01\n      add\n      exp(0x0100, 0x00)\n      dup2\n      sload\n      dup2\n      0xffffffffffffffffffffffffffffffffffffffff\n      mul\n      not\n      and\n      swap1\n      dup4\n      0xffffffffffffffffffffffffffffffffffffffff\n      and\n      mul\n      or\n      swap1\n      sstore\n      pop\n      0x40\n      dup3\n      add\n      mload\n      dup2\n      0x02\n      add\n      sstore\n      0x60\n      dup3\n      add\n      mload\n      dup2\n      0x03\n      add\n      sstore\n      0x80\n      dup3\n      add\n      mload\n      dup2\n      0x04\n      add\n      exp(0x0100, 0x00)\n      dup2\n      sload\n      dup2\n      0xff\n      mul\n      not\n      and\n      swap1\n      dup4\n      iszero\n      iszero\n      mul\n      or\n      swap1\n      sstore\n      pop\n      swap1\n      pop\n      pop\n        /* \"RealEstate.sol\":2906:2963  LeaseCreated(leaseId, _propertyId, _tenant, _monthlyRent) */\n      0xa4eadbdfa5ce26c0c157827060a5fa08928e1a5c9436db22dcef741116614fbd\n        /* \"RealEstate.sol\":2919:2926  leaseId */\n      dup3\n        /* \"RealEstate.sol\":2928:2939  _propertyId */\n      dup9\n        /* \"RealEstate.sol\":2941:2948  _tenant */\n      dup9\n        /* \"RealEstate.sol\":2950:2962  _monthlyRent */\n      dup9\n        /* \"RealEstate.sol\":2906:2963  LeaseCreated(leaseId, _propertyId, _tenant, _monthlyRent) */\n      mload(0x40)\n      tag_94\n      swap5\n      swap4\n      swap3\n      swap2\n      swap1\n      tag_95\n      jump\t// in\n    tag_94:\n      mload(0x40)\n      dup1\n      swap2\n      sub\n      swap1\n      log1\n        /* \"RealEstate.sol\":2433:2970  {... */\n      pop\n      pop\n      pop\n        /* \"RealEstate.sol\":2322:2970  function createLease(uint _propertyId, address _tenant, uint _monthlyRent, uint _leaseDurationInMonths) public {... */\n      pop\n      pop\n      pop\n      pop\n      jump\t// out\n        /* \"RealEstate.sol\":3637:4061  function terminateLease(uint _leaseId) public {... */\n    tag_45:\n        /* \"RealEstate.sol\":3693:3721  LeaseAgreement storage lease */\n      0x00\n        /* \"RealEstate.sol\":3724:3730  leases */\n      0x04\n        /* \"RealEstate.sol\":3724:3740  leases[_leaseId] */\n      0x00\n        /* \"RealEstate.sol\":3731:3739  _leaseId */\n      dup4\n        /* \"RealEstate.sol\":3724:3740  leases[_leaseId] */\n      dup2\n      mstore\n      0x20\n      add\n      swap1\n      dup2\n      mstore\n      0x20\n      add\n      0x00\n      keccak256\n        /* \"RealEstate.sol\":3693:3740  LeaseAgreement storage lease = leases[_leaseId] */\n      swap1\n      pop\n        /* \"RealEstate.sol\":3758:3763  lease */\n      dup1\n        /* \"RealEstate.sol\":3758:3770  lease.active */\n      0x04\n      add\n      0x00\n      swap1\n      sload\n      swap1\n      0x0100\n      exp\n      swap1\n      div\n      0xff\n      and\n        /* \"RealEstate.sol\":3750:3803  require(lease.active, \"Lease is already terminated.\") */\n      tag_97\n      jumpi\n      mload(0x40)\n      0x08c379a000000000000000000000000000000000000000000000000000000000\n      dup2\n      mstore\n      0x04\n      add\n      tag_98\n      swap1\n      tag_99\n      jump\t// in\n    tag_98:\n      mload(0x40)\n      dup1\n      swap2\n      sub\n      swap1\n      revert\n    tag_97:\n        /* \"RealEstate.sol\":3848:3853  admin */\n      0x00\n      dup1\n      sload\n      swap1\n      0x0100\n      exp\n      swap1\n      div\n      0xffffffffffffffffffffffffffffffffffffffff\n      and\n        /* \"RealEstate.sol\":3834:3853  msg.sender == admin */\n      0xffffffffffffffffffffffffffffffffffffffff\n      and\n        /* \"RealEstate.sol\":3834:3844  msg.sender */\n      caller\n        /* \"RealEstate.sol\":3834:3853  msg.sender == admin */\n      0xffffffffffffffffffffffffffffffffffffffff\n      and\n      eq\n        /* \"RealEstate.sol\":3834:3883  msg.sender == admin || msg.sender == lease.tenant */\n      dup1\n      tag_100\n      jumpi\n      pop\n        /* \"RealEstate.sol\":3871:3876  lease */\n      dup1\n        /* \"RealEstate.sol\":3871:3883  lease.tenant */\n      0x01\n      add\n      0x00\n      swap1\n      sload\n      swap1\n      0x0100\n      exp\n      swap1\n      div\n      0xffffffffffffffffffffffffffffffffffffffff\n      and\n        /* \"RealEstate.sol\":3857:3883  msg.sender == lease.tenant */\n      0xffffffffffffffffffffffffffffffffffffffff\n      and\n        /* \"RealEstate.sol\":3857:3867  msg.sender */\n      caller\n        /* \"RealEstate.sol\":3857:3883  msg.sender == lease.tenant */\n      0xffffffffffffffffffffffffffffffffffffffff\n      and\n      eq\n        /* \"RealEstate.sol\":3834:3883  msg.sender == admin || msg.sender == lease.tenant */\n    tag_100:\n        /* \"RealEstate.sol\":3834:3935  msg.sender == admin || msg.sender == lease.tenant || msg.sender == properties[lease.propertyId].owner */\n      dup1\n      tag_101\n      jumpi\n      pop\n        /* \"RealEstate.sol\":3901:3911  properties */\n      0x03\n        /* \"RealEstate.sol\":3901:3929  properties[lease.propertyId] */\n      0x00\n        /* \"RealEstate.sol\":3912:3917  lease */\n      dup3\n        /* \"RealEstate.sol\":3912:3928  lease.propertyId */\n      0x00\n      add\n      sload\n        /* \"RealEstate.sol\":3901:3929  properties[lease.propertyId] */\n      dup2\n      mstore\n      0x20\n      add\n      swap1\n      dup2\n      mstore\n      0x20\n      add\n      0x00\n      keccak256\n        /* \"RealEstate.sol\":3901:3935  properties[lease.propertyId].owner */\n      0x03\n      add\n      0x00\n      swap1\n      sload\n      swap1\n      0x0100\n      exp\n      swap1\n      div\n      0xffffffffffffffffffffffffffffffffffffffff\n      and\n        /* \"RealEstate.sol\":3887:3935  msg.sender == properties[lease.propertyId].owner */\n      0xffffffffffffffffffffffffffffffffffffffff\n      and\n        /* \"RealEstate.sol\":3887:3897  msg.sender */\n      caller\n        /* \"RealEstate.sol\":3887:3935  msg.sender == properties[lease.propertyId].owner */\n      0xffffffffffffffffffffffffffffffffffffffff\n      and\n      eq\n        /* \"RealEstate.sol\":3834:3935  msg.sender == admin || msg.sender == lease.tenant || msg.sender == properties[lease.propertyId].owner */\n    tag_101:\n        /* \"RealEstate.sol\":3813:4023  require(... */\n      tag_102\n      jumpi\n      mload(0x40)\n      0x08c379a000000000000000000000000000000000000000000000000000000000\n      dup2\n      mstore\n      0x04\n      add\n      tag_103\n      swap1\n      tag_104\n      jump\t// in\n    tag_103:\n      mload(0x40)\n      dup1\n      swap2\n      sub\n      swap1\n      revert\n    tag_102:\n        /* \"RealEstate.sol\":4049:4054  false */\n      0x00\n        /* \"RealEstate.sol\":4034:4039  lease */\n      dup2\n        /* \"RealEstate.sol\":4034:4046  lease.active */\n      0x04\n      add\n      0x00\n        /* \"RealEstate.sol\":4034:4054  lease.active = false */\n      0x0100\n      exp\n      dup2\n      sload\n      dup2\n      0xff\n      mul\n      not\n      and\n      swap1\n      dup4\n      iszero\n      iszero\n      mul\n      or\n      swap1\n      sstore\n      pop\n        /* \"RealEstate.sol\":3683:4061  {... */\n      pop\n        /* \"RealEstate.sol\":3637:4061  function terminateLease(uint _leaseId) public {... */\n      pop\n      jump\t// out\n        /* \"RealEstate.sol\":1799:2272  function buyProperty(uint _propertyId) public payable {... */\n    tag_48:\n        /* \"RealEstate.sol\":1863:1888  Property storage property */\n      0x00\n        /* \"RealEstate.sol\":1891:1901  properties */\n      0x03\n        /* \"RealEstate.sol\":1891:1914  properties[_propertyId] */\n      0x00\n        /* \"RealEstate.sol\":1902:1913  _propertyId */\n      dup4\n        /* \"RealEstate.sol\":1891:1914  properties[_propertyId] */\n      dup2\n      mstore\n      0x20\n      add\n      swap1\n      dup2\n      mstore\n      0x20\n      add\n      0x00\n      keccak256\n        /* \"RealEstate.sol\":1863:1914  Property storage property = properties[_propertyId] */\n      swap1\n      pop\n        /* \"RealEstate.sol\":1932:1940  property */\n      dup1\n        /* \"RealEstate.sol\":1932:1950  property.isForSale */\n      0x03\n      add\n      0x14\n      swap1\n      sload\n      swap1\n      0x0100\n      exp\n      swap1\n      div\n      0xff\n      and\n        /* \"RealEstate.sol\":1924:1980  require(property.isForSale, \"Property is not for sale.\") */\n      tag_106\n      jumpi\n      mload(0x40)\n      0x08c379a000000000000000000000000000000000000000000000000000000000\n      dup2\n      mstore\n      0x04\n      add\n      tag_107\n      swap1\n      tag_108\n      jump\t// in\n    tag_107:\n      mload(0x40)\n      dup1\n      swap2\n      sub\n      swap1\n      revert\n    tag_106:\n        /* \"RealEstate.sol\":2011:2019  property */\n      dup1\n        /* \"RealEstate.sol\":2011:2025  property.price */\n      0x02\n      add\n      sload\n        /* \"RealEstate.sol\":1998:2007  msg.value */\n      callvalue\n        /* \"RealEstate.sol\":1998:2025  msg.value == property.price */\n      eq\n        /* \"RealEstate.sol\":1990:2055  require(msg.value == property.price, \"Incorrect payment amount.\") */\n      tag_109\n      jumpi\n      mload(0x40)\n      0x08c379a000000000000000000000000000000000000000000000000000000000\n      dup2\n      mstore\n      0x04\n      add\n      tag_110\n      swap1\n      tag_111\n      jump\t// in\n    tag_110:\n      mload(0x40)\n      dup1\n      swap2\n      sub\n      swap1\n      revert\n    tag_109:\n        /* \"RealEstate.sol\":2096:2104  property */\n      dup1\n        /* \"RealEstate.sol\":2096:2110  property.owner */\n      0x03\n      add\n      0x00\n      swap1\n      sload\n      swap1\n      0x0100\n      exp\n      swap1\n      div\n      0xffffffffffffffffffffffffffffffffffffffff\n      and\n        /* \"RealEstate.sol\":2096:2119  property.owner.transfer */\n      0xffffffffffffffffffffffffffffffffffffffff\n      and\n        /* \"RealEstate.sol\":2096:2130  property.owner.transfer(msg.value) */\n      0x08fc\n        /* \"RealEstate.sol\":2120:2129  msg.value */\n      callvalue\n        /* \"RealEstate.sol\":2096:2130  property.owner.transfer(msg.value) */\n      swap1\n      dup2\n      iszero\n      mul\n      swap1\n      mload(0x40)\n      0x00\n      mload(0x40)\n      dup1\n      dup4\n      sub\n      dup2\n      dup6\n      dup9\n      dup9\n      call\n      swap4\n      pop\n      pop\n      pop\n      pop\n      iszero\n      dup1\n      iszero\n      tag_113\n      jumpi\n      returndatasize\n      0x00\n      dup1\n      returndatacopy\n      revert(0x00, returndatasize)\n    tag_113:\n      pop\n        /* \"RealEstate.sol\":2165:2175  msg.sender */\n      caller\n        /* \"RealEstate.sol\":2140:2148  property */\n      dup2\n        /* \"RealEstate.sol\":2140:2154  property.owner */\n      0x03\n      add\n      0x00\n        /* \"RealEstate.sol\":2140:2176  property.owner = payable(msg.sender) */\n      0x0100\n      exp\n      dup2\n      sload\n      dup2\n      0xffffffffffffffffffffffffffffffffffffffff\n      mul\n      not\n      and\n      swap1\n      dup4\n      0xffffffffffffffffffffffffffffffffffffffff\n      and\n      mul\n      or\n      swap1\n      sstore\n      pop\n        /* \"RealEstate.sol\":2207:2212  false */\n      0x00\n        /* \"RealEstate.sol\":2186:2194  property */\n      dup2\n        /* \"RealEstate.sol\":2186:2204  property.isForSale */\n      0x03\n      add\n      0x14\n        /* \"RealEstate.sol\":2186:2212  property.isForSale = false */\n      0x0100\n      exp\n      dup2\n      sload\n      dup2\n      0xff\n      mul\n      not\n      and\n      swap1\n      dup4\n      iszero\n      iszero\n      mul\n      or\n      swap1\n      sstore\n      pop\n        /* \"RealEstate.sol\":2228:2265  PropertySold(_propertyId, msg.sender) */\n      0xb424abc5eb4b182f4334d7f8fa7c796e8d0b113fa9b68319cb6faefffbf0f18c\n        /* \"RealEstate.sol\":2241:2252  _propertyId */\n      dup3\n        /* \"RealEstate.sol\":2254:2264  msg.sender */\n      caller\n        /* \"RealEstate.sol\":2228:2265  PropertySold(_propertyId, msg.sender) */\n      mload(0x40)\n      tag_114\n      swap3\n      swap2\n      swap1\n      tag_115\n      jump\t// in\n    tag_114:\n      mload(0x40)\n      dup1\n      swap2\n      sub\n      swap1\n      log1\n        /* \"RealEstate.sol\":1853:2272  {... */\n      pop\n        /* \"RealEstate.sol\":1799:2272  function buyProperty(uint _propertyId) public payable {... */\n      pop\n      jump\t// out\n        /* \"RealEstate.sol\":682:727  mapping(uint => LeaseAgreement) public leases */\n    tag_52:\n      mstore(0x20, 0x04)\n      dup1\n      0x00\n      mstore\n      keccak256(0x00, 0x40)\n      0x00\n      swap2\n      pop\n      swap1\n      pop\n      dup1\n      0x00\n      add\n      sload\n      swap1\n      dup1\n      0x01\n      add\n      0x00\n      swap1\n      sload\n      swap1\n      0x0100\n      exp\n      swap1\n      div\n      0xffffffffffffffffffffffffffffffffffffffff\n      and\n      swap1\n      dup1\n      0x02\n      add\n      sload\n      swap1\n      dup1\n      0x03\n      add\n      sload\n      swap1\n      dup1\n      0x04\n      add\n      0x00\n      swap1\n      sload\n      swap1\n      0x0100\n      exp\n      swap1\n      div\n      0xff\n      and\n      swap1\n      pop\n      dup6\n      jump\t// out\n        /* \"RealEstate.sol\":1391:1759  function listProperty(string memory _location, uint _price, address payable _owner) public onlyAdmin {... */\n    tag_58:\n        /* \"RealEstate.sol\":1274:1279  admin */\n      0x00\n      dup1\n      sload\n      swap1\n      0x0100\n      exp\n      swap1\n      div\n      0xffffffffffffffffffffffffffffffffffffffff\n      and\n        /* \"RealEstate.sol\":1260:1279  msg.sender == admin */\n      0xffffffffffffffffffffffffffffffffffffffff\n      and\n        /* \"RealEstate.sol\":1260:1270  msg.sender */\n      caller\n        /* \"RealEstate.sol\":1260:1279  msg.sender == admin */\n      0xffffffffffffffffffffffffffffffffffffffff\n      and\n      eq\n        /* \"RealEstate.sol\":1252:1323  require(msg.sender == admin, \"Only the admin can perform this action.\") */\n      tag_117\n      jumpi\n      mload(0x40)\n      0x08c379a000000000000000000000000000000000000000000000000000000000\n      dup2\n      mstore\n      0x04\n      add\n      tag_118\n      swap1\n      tag_119\n      jump\t// in\n    tag_118:\n      mload(0x40)\n      dup1\n      swap2\n      sub\n      swap1\n      revert\n    tag_117:\n        /* \"RealEstate.sol\":1519:1520  0 */\n      0x00\n        /* \"RealEstate.sol\":1510:1516  _price */\n      dup3\n        /* \"RealEstate.sol\":1510:1520  _price > 0 */\n      gt\n        /* \"RealEstate.sol\":1502:1557  require(_price > 0, \"Price must be greater than zero.\") */\n      tag_121\n      jumpi\n      mload(0x40)\n      0x08c379a000000000000000000000000000000000000000000000000000000000\n      dup2\n      mstore\n      0x04\n      add\n      tag_122\n      swap1\n      tag_123\n      jump\t// in\n    tag_122:\n      mload(0x40)\n      dup1\n      swap2\n      sub\n      swap1\n      revert\n    tag_121:\n        /* \"RealEstate.sol\":1568:1583  uint propertyId */\n      0x00\n        /* \"RealEstate.sol\":1586:1601  totalProperties */\n      0x01\n      0x00\n        /* \"RealEstate.sol\":1586:1603  totalProperties++ */\n      dup2\n      sload\n      dup1\n      swap3\n      swap2\n      swap1\n      tag_124\n      swap1\n      tag_89\n      jump\t// in\n    tag_124:\n      swap2\n      swap1\n      pop\n      sstore\n        /* \"RealEstate.sol\":1568:1603  uint propertyId = totalProperties++ */\n      swap1\n      pop\n        /* \"RealEstate.sol\":1638:1691  Property(propertyId, _location, _price, _owner, true) */\n      mload(0x40)\n      dup1\n      0xa0\n      add\n      0x40\n      mstore\n      dup1\n        /* \"RealEstate.sol\":1647:1657  propertyId */\n      dup3\n        /* \"RealEstate.sol\":1638:1691  Property(propertyId, _location, _price, _owner, true) */\n      dup2\n      mstore\n      0x20\n      add\n        /* \"RealEstate.sol\":1659:1668  _location */\n      dup6\n        /* \"RealEstate.sol\":1638:1691  Property(propertyId, _location, _price, _owner, true) */\n      dup2\n      mstore\n      0x20\n      add\n        /* \"RealEstate.sol\":1670:1676  _price */\n      dup5\n        /* \"RealEstate.sol\":1638:1691  Property(propertyId, _location, _price, _owner, true) */\n      dup2\n      mstore\n      0x20\n      add\n        /* \"RealEstate.sol\":1678:1684  _owner */\n      dup4\n        /* \"RealEstate.sol\":1638:1691  Property(propertyId, _location, _price, _owner, true) */\n      0xffffffffffffffffffffffffffffffffffffffff\n      and\n      dup2\n      mstore\n      0x20\n      add\n        /* \"RealEstate.sol\":1686:1690  true */\n      0x01\n        /* \"RealEstate.sol\":1638:1691  Property(propertyId, _location, _price, _owner, true) */\n      iszero\n      iszero\n      dup2\n      mstore\n      pop\n        /* \"RealEstate.sol\":1613:1623  properties */\n      0x03\n        /* \"RealEstate.sol\":1613:1635  properties[propertyId] */\n      0x00\n        /* \"RealEstate.sol\":1624:1634  propertyId */\n      dup4\n        /* \"RealEstate.sol\":1613:1635  properties[propertyId] */\n      dup2\n      mstore\n      0x20\n      add\n      swap1\n      dup2\n      mstore\n      0x20\n      add\n      0x00\n      keccak256\n        /* \"RealEstate.sol\":1613:1691  properties[propertyId] = Property(propertyId, _location, _price, _owner, true) */\n      0x00\n      dup3\n      add\n      mload\n      dup2\n      0x00\n      add\n      sstore\n      0x20\n      dup3\n      add\n      mload\n      dup2\n      0x01\n      add\n      swap1\n      dup2\n      tag_125\n      swap2\n      swap1\n      tag_126\n      jump\t// in\n    tag_125:\n      pop\n      0x40\n      dup3\n      add\n      mload\n      dup2\n      0x02\n      add\n      sstore\n      0x60\n      dup3\n      add\n      mload\n      dup2\n      0x03\n      add\n      exp(0x0100, 0x00)\n      dup2\n      sload\n      dup2\n      0xffffffffffffffffffffffffffffffffffffffff\n      mul\n      not\n      and\n      swap1\n      dup4\n      0xffffffffffffffffffffffffffffffffffffffff\n      and\n      mul\n      or\n      swap1\n      sstore\n      pop\n      0x80\n      dup3\n      add\n      mload\n      dup2\n      0x03\n      add\n      exp(0x0100, 0x14)\n      dup2\n      sload\n      dup2\n      0xff\n      mul\n      not\n      and\n      swap1\n      dup4\n      iszero\n      iszero\n      mul\n      or\n      swap1\n      sstore\n      pop\n      swap1\n      pop\n      pop\n        /* \"RealEstate.sol\":1707:1752  PropertyListed(propertyId, _location, _price) */\n      0xb906962cbf3f3ecd490633cbf2018014c57107262f8d80f40a11ca0e8b31f2aa\n        /* \"RealEstate.sol\":1722:1732  propertyId */\n      dup2\n        /* \"RealEstate.sol\":1734:1743  _location */\n      dup6\n        /* \"RealEstate.sol\":1745:1751  _price */\n      dup6\n        /* \"RealEstate.sol\":1707:1752  PropertyListed(propertyId, _location, _price) */\n      mload(0x40)\n      tag_127\n      swap4\n      swap3\n      swap2\n      swap1\n      tag_128\n      jump\t// in\n    tag_127:\n      mload(0x40)\n      dup1\n      swap2\n      sub\n      swap1\n      log1\n        /* \"RealEstate.sol\":1492:1759  {... */\n      pop\n        /* \"RealEstate.sol\":1391:1759  function listProperty(string memory _location, uint _price, address payable _owner) public onlyAdmin {... */\n      pop\n      pop\n      pop\n      jump\t// out\n        /* \"RealEstate.sol\":3024:3594  function payRent(uint _leaseId) public payable {... */\n    tag_61:\n        /* \"RealEstate.sol\":3081:3109  LeaseAgreement storage lease */\n      0x00\n        /* \"RealEstate.sol\":3112:3118  leases */\n      0x04\n        /* \"RealEstate.sol\":3112:3128  leases[_leaseId] */\n      0x00\n        /* \"RealEstate.sol\":3119:3127  _leaseId */\n      dup4\n        /* \"RealEstate.sol\":3112:3128  leases[_leaseId] */\n      dup2\n      mstore\n      0x20\n      add\n      swap1\n      dup2\n      mstore\n      0x20\n      add\n      0x00\n      keccak256\n        /* \"RealEstate.sol\":3081:3128  LeaseAgreement storage lease = leases[_leaseId] */\n      swap1\n      pop\n        /* \"RealEstate.sol\":3146:3151  lease */\n      dup1\n        /* \"RealEstate.sol\":3146:3158  lease.active */\n      0x04\n      add\n      0x00\n      swap1\n      sload\n      swap1\n      0x0100\n      exp\n      swap1\n      div\n      0xff\n      and\n        /* \"RealEstate.sol\":3138:3183  require(lease.active, \"Lease is not active.\") */\n      tag_130\n      jumpi\n      mload(0x40)\n      0x08c379a000000000000000000000000000000000000000000000000000000000\n      dup2\n      mstore\n      0x04\n      add\n      tag_131\n      swap1\n      tag_132\n      jump\t// in\n    tag_131:\n      mload(0x40)\n      dup1\n      swap2\n      sub\n      swap1\n      revert\n    tag_130:\n        /* \"RealEstate.sol\":3217:3227  msg.sender */\n      caller\n        /* \"RealEstate.sol\":3201:3227  lease.tenant == msg.sender */\n      0xffffffffffffffffffffffffffffffffffffffff\n      and\n        /* \"RealEstate.sol\":3201:3206  lease */\n      dup2\n        /* \"RealEstate.sol\":3201:3213  lease.tenant */\n      0x01\n      add\n      0x00\n      swap1\n      sload\n      swap1\n      0x0100\n      exp\n      swap1\n      div\n      0xffffffffffffffffffffffffffffffffffffffff\n      and\n        /* \"RealEstate.sol\":3201:3227  lease.tenant == msg.sender */\n      0xffffffffffffffffffffffffffffffffffffffff\n      and\n      eq\n        /* \"RealEstate.sol\":3193:3261  require(lease.tenant == msg.sender, \"Only the tenant can pay rent.\") */\n      tag_133\n      jumpi\n      mload(0x40)\n      0x08c379a000000000000000000000000000000000000000000000000000000000\n      dup2\n      mstore\n      0x04\n      add\n      tag_134\n      swap1\n      tag_135\n      jump\t// in\n    tag_134:\n      mload(0x40)\n      dup1\n      swap2\n      sub\n      swap1\n      revert\n    tag_133:\n        /* \"RealEstate.sol\":3292:3297  lease */\n      dup1\n        /* \"RealEstate.sol\":3292:3309  lease.monthlyRent */\n      0x02\n      add\n      sload\n        /* \"RealEstate.sol\":3279:3288  msg.value */\n      callvalue\n        /* \"RealEstate.sol\":3279:3309  msg.value == lease.monthlyRent */\n      eq\n        /* \"RealEstate.sol\":3271:3336  require(msg.value == lease.monthlyRent, \"Incorrect rent amount.\") */\n      tag_136\n      jumpi\n      mload(0x40)\n      0x08c379a000000000000000000000000000000000000000000000000000000000\n      dup2\n      mstore\n      0x04\n      add\n      tag_137\n      swap1\n      tag_138\n      jump\t// in\n    tag_137:\n      mload(0x40)\n      dup1\n      swap2\n      sub\n      swap1\n      revert\n    tag_136:\n        /* \"RealEstate.sol\":3373:3378  lease */\n      dup1\n        /* \"RealEstate.sol\":3373:3391  lease.leaseEndDate */\n      0x03\n      add\n      sload\n        /* \"RealEstate.sol\":3354:3369  block.timestamp */\n      timestamp\n        /* \"RealEstate.sol\":3354:3391  block.timestamp <= lease.leaseEndDate */\n      gt\n      iszero\n        /* \"RealEstate.sol\":3346:3414  require(block.timestamp <= lease.leaseEndDate, \"Lease has expired.\") */\n      tag_139\n      jumpi\n      mload(0x40)\n      0x08c379a000000000000000000000000000000000000000000000000000000000\n      dup2\n      mstore\n      0x04\n      add\n      tag_140\n      swap1\n      tag_141\n      jump\t// in\n    tag_140:\n      mload(0x40)\n      dup1\n      swap2\n      sub\n      swap1\n      revert\n    tag_139:\n        /* \"RealEstate.sol\":3425:3450  Property storage property */\n      0x00\n        /* \"RealEstate.sol\":3453:3463  properties */\n      0x03\n        /* \"RealEstate.sol\":3453:3481  properties[lease.propertyId] */\n      0x00\n        /* \"RealEstate.sol\":3464:3469  lease */\n      dup4\n        /* \"RealEstate.sol\":3464:3480  lease.propertyId */\n      0x00\n      add\n      sload\n        /* \"RealEstate.sol\":3453:3481  properties[lease.propertyId] */\n      dup2\n      mstore\n      0x20\n      add\n      swap1\n      dup2\n      mstore\n      0x20\n      add\n      0x00\n      keccak256\n        /* \"RealEstate.sol\":3425:3481  Property storage property = properties[lease.propertyId] */\n      swap1\n      pop\n        /* \"RealEstate.sol\":3491:3499  property */\n      dup1\n        /* \"RealEstate.sol\":3491:3505  property.owner */\n      0x03\n      add\n      0x00\n      swap1\n      sload\n      swap1\n      0x0100\n      exp\n      swap1\n      div\n      0xffffffffffffffffffffffffffffffffffffffff\n      and\n        /* \"RealEstate.sol\":3491:3514  property.owner.transfer */\n      0xffffffffffffffffffffffffffffffffffffffff\n      and\n        /* \"RealEstate.sol\":3491:3525  property.owner.transfer(msg.value) */\n      0x08fc\n        /* \"RealEstate.sol\":3515:3524  msg.value */\n      callvalue\n        /* \"RealEstate.sol\":3491:3525  property.owner.transfer(msg.value) */\n      swap1\n      dup2\n      iszero\n      mul\n      swap1\n      mload(0x40)\n      0x00\n      mload(0x40)\n      dup1\n      dup4\n      sub\n      dup2\n      dup6\n      dup9\n      dup9\n      call\n      swap4\n      pop\n      pop\n      pop\n      pop\n      iszero\n      dup1\n      iszero\n      tag_143\n      jumpi\n      returndatasize\n      0x00\n      dup1\n      returndatacopy\n      revert(0x00, returndatasize)\n    tag_143:\n      pop\n        /* \"RealEstate.sol\":3541:3587  RentPaid(_leaseId, msg.value, block.timestamp) */\n      0xa62c35dfc0ff11d3713608ebcdc5c5d1952c7702620f2c46c22950f7b70d5797\n        /* \"RealEstate.sol\":3550:3558  _leaseId */\n      dup4\n        /* \"RealEstate.sol\":3560:3569  msg.value */\n      callvalue\n        /* \"RealEstate.sol\":3571:3586  block.timestamp */\n      timestamp\n        /* \"RealEstate.sol\":3541:3587  RentPaid(_leaseId, msg.value, block.timestamp) */\n      mload(0x40)\n      tag_144\n      swap4\n      swap3\n      swap2\n      swap1\n      tag_145\n      jump\t// in\n    tag_144:\n      mload(0x40)\n      dup1\n      swap2\n      sub\n      swap1\n      log1\n        /* \"RealEstate.sol\":3071:3594  {... */\n      pop\n      pop\n        /* \"RealEstate.sol\":3024:3594  function payRent(uint _leaseId) public payable {... */\n      pop\n      jump\t// out\n        /* \"RealEstate.sol\":595:638  mapping(uint => Property) public properties */\n    tag_65:\n      mstore(0x20, 0x03)\n      dup1\n      0x00\n      mstore\n      keccak256(0x00, 0x40)\n      0x00\n      swap2\n      pop\n      swap1\n      pop\n      dup1\n      0x00\n      add\n      sload\n      swap1\n      dup1\n      0x01\n      add\n      dup1\n      sload\n      tag_146\n      swap1\n      tag_75\n      jump\t// in\n    tag_146:\n      dup1\n      0x1f\n      add\n      0x20\n      dup1\n      swap2\n      div\n      mul\n      0x20\n      add\n      mload(0x40)\n      swap1\n      dup2\n      add\n      0x40\n      mstore\n      dup1\n      swap3\n      swap2\n      swap1\n      dup2\n      dup2\n      mstore\n      0x20\n      add\n      dup3\n      dup1\n      sload\n      tag_147\n      swap1\n      tag_75\n      jump\t// in\n    tag_147:\n      dup1\n      iszero\n      tag_148\n      jumpi\n      dup1\n      0x1f\n      lt\n      tag_149\n      jumpi\n      0x0100\n      dup1\n      dup4\n      sload\n      div\n      mul\n      dup4\n      mstore\n      swap2\n      0x20\n      add\n      swap2\n      jump(tag_148)\n    tag_149:\n      dup3\n      add\n      swap2\n      swap1\n      0x00\n      mstore\n      keccak256(0x00, 0x20)\n      swap1\n    tag_150:\n      dup2\n      sload\n      dup2\n      mstore\n      swap1\n      0x01\n      add\n      swap1\n      0x20\n      add\n      dup1\n      dup4\n      gt\n      tag_150\n      jumpi\n      dup3\n      swap1\n      sub\n      0x1f\n      and\n      dup3\n      add\n      swap2\n    tag_148:\n      pop\n      pop\n      pop\n      pop\n      pop\n      swap1\n      dup1\n      0x02\n      add\n      sload\n      swap1\n      dup1\n      0x03\n      add\n      0x00\n      swap1\n      sload\n      swap1\n      0x0100\n      exp\n      swap1\n      div\n      0xffffffffffffffffffffffffffffffffffffffff\n      and\n      swap1\n      dup1\n      0x03\n      add\n      0x14\n      swap1\n      sload\n      swap1\n      0x0100\n      exp\n      swap1\n      div\n      0xff\n      and\n      swap1\n      pop\n      dup6\n      jump\t// out\n        /* \"RealEstate.sol\":106:126  address public admin */\n    tag_70:\n      0x00\n      dup1\n      sload\n      swap1\n      0x0100\n      exp\n      swap1\n      div\n      0xffffffffffffffffffffffffffffffffffffffff\n      and\n      dup2\n      jump\t// out\n        /* \"#utility.yul\":7:84   */\n    tag_151:\n        /* \"#utility.yul\":44:51   */\n      0x00\n        /* \"#utility.yul\":73:78   */\n      dup2\n        /* \"#utility.yul\":62:78   */\n      swap1\n      pop\n        /* \"#utility.yul\":7:84   */\n      swap2\n      swap1\n      pop\n      jump\t// out\n        /* \"#utility.yul\":90:208   */\n    tag_152:\n        /* \"#utility.yul\":177:201   */\n      tag_227\n        /* \"#utility.yul\":195:200   */\n      dup2\n        /* \"#utility.yul\":177:201   */\n      tag_151\n      jump\t// in\n    tag_227:\n        /* \"#utility.yul\":172:175   */\n      dup3\n        /* \"#utility.yul\":165:202   */\n      mstore\n        /* \"#utility.yul\":90:208   */\n      pop\n      pop\n      jump\t// out\n        /* \"#utility.yul\":214:436   */\n    tag_19:\n        /* \"#utility.yul\":307:311   */\n      0x00\n        /* \"#utility.yul\":345:347   */\n      0x20\n        /* \"#utility.yul\":334:343   */\n      dup3\n        /* \"#utility.yul\":330:348   */\n      add\n        /* \"#utility.yul\":322:348   */\n      swap1\n      pop\n        /* \"#utility.yul\":358:429   */\n      tag_229\n        /* \"#utility.yul\":426:427   */\n      0x00\n        /* \"#utility.yul\":415:424   */\n      dup4\n        /* \"#utility.yul\":411:428   */\n      add\n        /* \"#utility.yul\":402:408   */\n      dup5\n        /* \"#utility.yul\":358:429   */\n      tag_152\n      jump\t// in\n    tag_229:\n        /* \"#utility.yul\":214:436   */\n      swap3\n      swap2\n      pop\n      pop\n      jump\t// out\n        /* \"#utility.yul\":442:517   */\n    tag_153:\n        /* \"#utility.yul\":475:481   */\n      0x00\n        /* \"#utility.yul\":508:510   */\n      0x40\n        /* \"#utility.yul\":502:511   */\n      mload\n        /* \"#utility.yul\":492:511   */\n      swap1\n      pop\n        /* \"#utility.yul\":442:517   */\n      swap1\n      jump\t// out\n        /* \"#utility.yul\":523:640   */\n    tag_154:\n        /* \"#utility.yul\":632:633   */\n      0x00\n        /* \"#utility.yul\":629:630   */\n      dup1\n        /* \"#utility.yul\":622:634   */\n      revert\n        /* \"#utility.yul\":646:763   */\n    tag_155:\n        /* \"#utility.yul\":755:756   */\n      0x00\n        /* \"#utility.yul\":752:753   */\n      dup1\n        /* \"#utility.yul\":745:757   */\n      revert\n        /* \"#utility.yul\":769:891   */\n    tag_156:\n        /* \"#utility.yul\":842:866   */\n      tag_234\n        /* \"#utility.yul\":860:865   */\n      dup2\n        /* \"#utility.yul\":842:866   */\n      tag_151\n      jump\t// in\n    tag_234:\n        /* \"#utility.yul\":835:840   */\n      dup2\n        /* \"#utility.yul\":832:867   */\n      eq\n        /* \"#utility.yul\":822:885   */\n      tag_235\n      jumpi\n        /* \"#utility.yul\":881:882   */\n      0x00\n        /* \"#utility.yul\":878:879   */\n      dup1\n        /* \"#utility.yul\":871:883   */\n      revert\n        /* \"#utility.yul\":822:885   */\n    tag_235:\n        /* \"#utility.yul\":769:891   */\n      pop\n      jump\t// out\n        /* \"#utility.yul\":897:1036   */\n    tag_157:\n        /* \"#utility.yul\":943:948   */\n      0x00\n        /* \"#utility.yul\":981:987   */\n      dup2\n        /* \"#utility.yul\":968:988   */\n      calldataload\n        /* \"#utility.yul\":959:988   */\n      swap1\n      pop\n        /* \"#utility.yul\":997:1030   */\n      tag_237\n        /* \"#utility.yul\":1024:1029   */\n      dup2\n        /* \"#utility.yul\":997:1030   */\n      tag_156\n      jump\t// in\n    tag_237:\n        /* \"#utility.yul\":897:1036   */\n      swap3\n      swap2\n      pop\n      pop\n      jump\t// out\n        /* \"#utility.yul\":1042:1371   */\n    tag_23:\n        /* \"#utility.yul\":1101:1107   */\n      0x00\n        /* \"#utility.yul\":1150:1152   */\n      0x20\n        /* \"#utility.yul\":1138:1147   */\n      dup3\n        /* \"#utility.yul\":1129:1136   */\n      dup5\n        /* \"#utility.yul\":1125:1148   */\n      sub\n        /* \"#utility.yul\":1121:1153   */\n      slt\n        /* \"#utility.yul\":1118:1237   */\n      iszero\n      tag_239\n      jumpi\n        /* \"#utility.yul\":1156:1235   */\n      tag_240\n      tag_154\n      jump\t// in\n    tag_240:\n        /* \"#utility.yul\":1118:1237   */\n    tag_239:\n        /* \"#utility.yul\":1276:1277   */\n      0x00\n        /* \"#utility.yul\":1301:1354   */\n      tag_241\n        /* \"#utility.yul\":1346:1353   */\n      dup5\n        /* \"#utility.yul\":1337:1343   */\n      dup3\n        /* \"#utility.yul\":1326:1335   */\n      dup6\n        /* \"#utility.yul\":1322:1344   */\n      add\n        /* \"#utility.yul\":1301:1354   */\n      tag_157\n      jump\t// in\n    tag_241:\n        /* \"#utility.yul\":1291:1354   */\n      swap2\n      pop\n        /* \"#utility.yul\":1247:1364   */\n      pop\n        /* \"#utility.yul\":1042:1371   */\n      swap3\n      swap2\n      pop\n      pop\n      jump\t// out\n        /* \"#utility.yul\":1377:1476   */\n    tag_158:\n        /* \"#utility.yul\":1429:1435   */\n      0x00\n        /* \"#utility.yul\":1463:1468   */\n      dup2\n        /* \"#utility.yul\":1457:1469   */\n      mload\n        /* \"#utility.yul\":1447:1469   */\n      swap1\n      pop\n        /* \"#utility.yul\":1377:1476   */\n      swap2\n      swap1\n      pop\n      jump\t// out\n        /* \"#utility.yul\":1482:1651   */\n    tag_159:\n        /* \"#utility.yul\":1566:1577   */\n      0x00\n        /* \"#utility.yul\":1600:1606   */\n      dup3\n        /* \"#utility.yul\":1595:1598   */\n      dup3\n        /* \"#utility.yul\":1588:1607   */\n      mstore\n        /* \"#utility.yul\":1640:1644   */\n      0x20\n        /* \"#utility.yul\":1635:1638   */\n      dup3\n        /* \"#utility.yul\":1631:1645   */\n      add\n        /* \"#utility.yul\":1616:1645   */\n      swap1\n      pop\n        /* \"#utility.yul\":1482:1651   */\n      swap3\n      swap2\n      pop\n      pop\n      jump\t// out\n        /* \"#utility.yul\":1657:1796   */\n    tag_160:\n        /* \"#utility.yul\":1746:1752   */\n      dup3\n        /* \"#utility.yul\":1741:1744   */\n      dup2\n        /* \"#utility.yul\":1736:1739   */\n      dup4\n        /* \"#utility.yul\":1730:1753   */\n      mcopy\n        /* \"#utility.yul\":1787:1788   */\n      0x00\n        /* \"#utility.yul\":1778:1784   */\n      dup4\n        /* \"#utility.yul\":1773:1776   */\n      dup4\n        /* \"#utility.yul\":1769:1785   */\n      add\n        /* \"#utility.yul\":1762:1789   */\n      mstore\n        /* \"#utility.yul\":1657:1796   */\n      pop\n      pop\n      pop\n      jump\t// out\n        /* \"#utility.yul\":1802:1904   */\n    tag_161:\n        /* \"#utility.yul\":1843:1849   */\n      0x00\n        /* \"#utility.yul\":1894:1896   */\n      0x1f\n        /* \"#utility.yul\":1890:1897   */\n      not\n        /* \"#utility.yul\":1885:1887   */\n      0x1f\n        /* \"#utility.yul\":1878:1883   */\n      dup4\n        /* \"#utility.yul\":1874:1888   */\n      add\n        /* \"#utility.yul\":1870:1898   */\n      and\n        /* \"#utility.yul\":1860:1898   */\n      swap1\n      pop\n        /* \"#utility.yul\":1802:1904   */\n      swap2\n      swap1\n      pop\n      jump\t// out\n        /* \"#utility.yul\":1910:2287   */\n    tag_162:\n        /* \"#utility.yul\":1998:2001   */\n      0x00\n        /* \"#utility.yul\":2026:2065   */\n      tag_247\n        /* \"#utility.yul\":2059:2064   */\n      dup3\n        /* \"#utility.yul\":2026:2065   */\n      tag_158\n      jump\t// in\n    tag_247:\n        /* \"#utility.yul\":2081:2152   */\n      tag_248\n        /* \"#utility.yul\":2145:2151   */\n      dup2\n        /* \"#utility.yul\":2140:2143   */\n      dup6\n        /* \"#utility.yul\":2081:2152   */\n      tag_159\n      jump\t// in\n    tag_248:\n        /* \"#utility.yul\":2074:2152   */\n      swap4\n      pop\n        /* \"#utility.yul\":2161:2226   */\n      tag_249\n        /* \"#utility.yul\":2219:2225   */\n      dup2\n        /* \"#utility.yul\":2214:2217   */\n      dup6\n        /* \"#utility.yul\":2207:2211   */\n      0x20\n        /* \"#utility.yul\":2200:2205   */\n      dup7\n        /* \"#utility.yul\":2196:2212   */\n      add\n        /* \"#utility.yul\":2161:2226   */\n      tag_160\n      jump\t// in\n    tag_249:\n        /* \"#utility.yul\":2251:2280   */\n      tag_250\n        /* \"#utility.yul\":2273:2279   */\n      dup2\n        /* \"#utility.yul\":2251:2280   */\n      tag_161\n      jump\t// in\n    tag_250:\n        /* \"#utility.yul\":2246:2249   */\n      dup5\n        /* \"#utility.yul\":2242:2281   */\n      add\n        /* \"#utility.yul\":2235:2281   */\n      swap2\n      pop\n        /* \"#utility.yul\":2002:2287   */\n      pop\n        /* \"#utility.yul\":1910:2287   */\n      swap3\n      swap2\n      pop\n      pop\n      jump\t// out\n        /* \"#utility.yul\":2293:2419   */\n    tag_163:\n        /* \"#utility.yul\":2330:2337   */\n      0x00\n        /* \"#utility.yul\":2370:2412   */\n      0xffffffffffffffffffffffffffffffffffffffff\n        /* \"#utility.yul\":2363:2368   */\n      dup3\n        /* \"#utility.yul\":2359:2413   */\n      and\n        /* \"#utility.yul\":2348:2413   */\n      swap1\n      pop\n        /* \"#utility.yul\":2293:2419   */\n      swap2\n      swap1\n      pop\n      jump\t// out\n        /* \"#utility.yul\":2425:2521   */\n    tag_164:\n        /* \"#utility.yul\":2462:2469   */\n      0x00\n        /* \"#utility.yul\":2491:2515   */\n      tag_253\n        /* \"#utility.yul\":2509:2514   */\n      dup3\n        /* \"#utility.yul\":2491:2515   */\n      tag_163\n      jump\t// in\n    tag_253:\n        /* \"#utility.yul\":2480:2515   */\n      swap1\n      pop\n        /* \"#utility.yul\":2425:2521   */\n      swap2\n      swap1\n      pop\n      jump\t// out\n        /* \"#utility.yul\":2527:2645   */\n    tag_165:\n        /* \"#utility.yul\":2614:2638   */\n      tag_255\n        /* \"#utility.yul\":2632:2637   */\n      dup2\n        /* \"#utility.yul\":2614:2638   */\n      tag_164\n      jump\t// in\n    tag_255:\n        /* \"#utility.yul\":2609:2612   */\n      dup3\n        /* \"#utility.yul\":2602:2639   */\n      mstore\n        /* \"#utility.yul\":2527:2645   */\n      pop\n      pop\n      jump\t// out\n        /* \"#utility.yul\":2651:2741   */\n    tag_166:\n        /* \"#utility.yul\":2685:2692   */\n      0x00\n        /* \"#utility.yul\":2728:2733   */\n      dup2\n        /* \"#utility.yul\":2721:2734   */\n      iszero\n        /* \"#utility.yul\":2714:2735   */\n      iszero\n        /* \"#utility.yul\":2703:2735   */\n      swap1\n      pop\n        /* \"#utility.yul\":2651:2741   */\n      swap2\n      swap1\n      pop\n      jump\t// out\n        /* \"#utility.yul\":2747:2856   */\n    tag_167:\n        /* \"#utility.yul\":2828:2849   */\n      tag_258\n        /* \"#utility.yul\":2843:2848   */\n      dup2\n        /* \"#utility.yul\":2828:2849   */\n      tag_166\n      jump\t// in\n    tag_258:\n        /* \"#utility.yul\":2823:2826   */\n      dup3\n        /* \"#utility.yul\":2816:2850   */\n      mstore\n        /* \"#utility.yul\":2747:2856   */\n      pop\n      pop\n      jump\t// out\n        /* \"#utility.yul\":2862:3494   */\n    tag_26:\n        /* \"#utility.yul\":3053:3057   */\n      0x00\n        /* \"#utility.yul\":3091:3094   */\n      0x80\n        /* \"#utility.yul\":3080:3089   */\n      dup3\n        /* \"#utility.yul\":3076:3095   */\n      add\n        /* \"#utility.yul\":3068:3095   */\n      swap1\n      pop\n        /* \"#utility.yul\":3141:3150   */\n      dup2\n        /* \"#utility.yul\":3135:3139   */\n      dup2\n        /* \"#utility.yul\":3131:3151   */\n      sub\n        /* \"#utility.yul\":3127:3128   */\n      0x00\n        /* \"#utility.yul\":3116:3125   */\n      dup4\n        /* \"#utility.yul\":3112:3129   */\n      add\n        /* \"#utility.yul\":3105:3152   */\n      mstore\n        /* \"#utility.yul\":3169:3247   */\n      tag_260\n        /* \"#utility.yul\":3242:3246   */\n      dup2\n        /* \"#utility.yul\":3233:3239   */\n      dup8\n        /* \"#utility.yul\":3169:3247   */\n      tag_162\n      jump\t// in\n    tag_260:\n        /* \"#utility.yul\":3161:3247   */\n      swap1\n      pop\n        /* \"#utility.yul\":3257:3329   */\n      tag_261\n        /* \"#utility.yul\":3325:3327   */\n      0x20\n        /* \"#utility.yul\":3314:3323   */\n      dup4\n        /* \"#utility.yul\":3310:3328   */\n      add\n        /* \"#utility.yul\":3301:3307   */\n      dup7\n        /* \"#utility.yul\":3257:3329   */\n      tag_152\n      jump\t// in\n    tag_261:\n        /* \"#utility.yul\":3339:3411   */\n      tag_262\n        /* \"#utility.yul\":3407:3409   */\n      0x40\n        /* \"#utility.yul\":3396:3405   */\n      dup4\n        /* \"#utility.yul\":3392:3410   */\n      add\n        /* \"#utility.yul\":3383:3389   */\n      dup6\n        /* \"#utility.yul\":3339:3411   */\n      tag_165\n      jump\t// in\n    tag_262:\n        /* \"#utility.yul\":3421:3487   */\n      tag_263\n        /* \"#utility.yul\":3483:3485   */\n      0x60\n        /* \"#utility.yul\":3472:3481   */\n      dup4\n        /* \"#utility.yul\":3468:3486   */\n      add\n        /* \"#utility.yul\":3459:3465   */\n      dup5\n        /* \"#utility.yul\":3421:3487   */\n      tag_167\n      jump\t// in\n    tag_263:\n        /* \"#utility.yul\":2862:3494   */\n      swap6\n      swap5\n      pop\n      pop\n      pop\n      pop\n      pop\n      jump\t// out\n        /* \"#utility.yul\":3500:4152   */\n    tag_36:\n        /* \"#utility.yul\":3699:3703   */\n      0x00\n        /* \"#utility.yul\":3737:3740   */\n      0xa0\n        /* \"#utility.yul\":3726:3735   */\n      dup3\n        /* \"#utility.yul\":3722:3741   */\n      add\n        /* \"#utility.yul\":3714:3741   */\n      swap1\n      pop\n        /* \"#utility.yul\":3751:3822   */\n      tag_265\n        /* \"#utility.yul\":3819:3820   */\n      0x00\n        /* \"#utility.yul\":3808:3817   */\n      dup4\n        /* \"#utility.yul\":3804:3821   */\n      add\n        /* \"#utility.yul\":3795:3801   */\n      dup9\n        /* \"#utility.yul\":3751:3822   */\n      tag_152\n      jump\t// in\n    tag_265:\n        /* \"#utility.yul\":3832:3904   */\n      tag_266\n        /* \"#utility.yul\":3900:3902   */\n      0x20\n        /* \"#utility.yul\":3889:3898   */\n      dup4\n        /* \"#utility.yul\":3885:3903   */\n      add\n        /* \"#utility.yul\":3876:3882   */\n      dup8\n        /* \"#utility.yul\":3832:3904   */\n      tag_165\n      jump\t// in\n    tag_266:\n        /* \"#utility.yul\":3914:3986   */\n      tag_267\n        /* \"#utility.yul\":3982:3984   */\n      0x40\n        /* \"#utility.yul\":3971:3980   */\n      dup4\n        /* \"#utility.yul\":3967:3985   */\n      add\n        /* \"#utility.yul\":3958:3964   */\n      dup7\n        /* \"#utility.yul\":3914:3986   */\n      tag_152\n      jump\t// in\n    tag_267:\n        /* \"#utility.yul\":3996:4068   */\n      tag_268\n        /* \"#utility.yul\":4064:4066   */\n      0x60\n        /* \"#utility.yul\":4053:4062   */\n      dup4\n        /* \"#utility.yul\":4049:4067   */\n      add\n        /* \"#utility.yul\":4040:4046   */\n      dup6\n        /* \"#utility.yul\":3996:4068   */\n      tag_152\n      jump\t// in\n    tag_268:\n        /* \"#utility.yul\":4078:4145   */\n      tag_269\n        /* \"#utility.yul\":4140:4143   */\n      0x80\n        /* \"#utility.yul\":4129:4138   */\n      dup4\n        /* \"#utility.yul\":4125:4144   */\n      add\n        /* \"#utility.yul\":4116:4122   */\n      dup5\n        /* \"#utility.yul\":4078:4145   */\n      tag_167\n      jump\t// in\n    tag_269:\n        /* \"#utility.yul\":3500:4152   */\n      swap7\n      swap6\n      pop\n      pop\n      pop\n      pop\n      pop\n      pop\n      jump\t// out\n        /* \"#utility.yul\":4158:4280   */\n    tag_168:\n        /* \"#utility.yul\":4231:4255   */\n      tag_271\n        /* \"#utility.yul\":4249:4254   */\n      dup2\n        /* \"#utility.yul\":4231:4255   */\n      tag_164\n      jump\t// in\n    tag_271:\n        /* \"#utility.yul\":4224:4229   */\n      dup2\n        /* \"#utility.yul\":4221:4256   */\n      eq\n        /* \"#utility.yul\":4211:4274   */\n      tag_272\n      jumpi\n        /* \"#utility.yul\":4270:4271   */\n      0x00\n        /* \"#utility.yul\":4267:4268   */\n      dup1\n        /* \"#utility.yul\":4260:4272   */\n      revert\n        /* \"#utility.yul\":4211:4274   */\n    tag_272:\n        /* \"#utility.yul\":4158:4280   */\n      pop\n      jump\t// out\n        /* \"#utility.yul\":4286:4425   */\n    tag_169:\n        /* \"#utility.yul\":4332:4337   */\n      0x00\n        /* \"#utility.yul\":4370:4376   */\n      dup2\n        /* \"#utility.yul\":4357:4377   */\n      calldataload\n        /* \"#utility.yul\":4348:4377   */\n      swap1\n      pop\n        /* \"#utility.yul\":4386:4419   */\n      tag_274\n        /* \"#utility.yul\":4413:4418   */\n      dup2\n        /* \"#utility.yul\":4386:4419   */\n      tag_168\n      jump\t// in\n    tag_274:\n        /* \"#utility.yul\":4286:4425   */\n      swap3\n      swap2\n      pop\n      pop\n      jump\t// out\n        /* \"#utility.yul\":4431:5196   */\n    tag_40:\n        /* \"#utility.yul\":4517:4523   */\n      0x00\n        /* \"#utility.yul\":4525:4531   */\n      dup1\n        /* \"#utility.yul\":4533:4539   */\n      0x00\n        /* \"#utility.yul\":4541:4547   */\n      dup1\n        /* \"#utility.yul\":4590:4593   */\n      0x80\n        /* \"#utility.yul\":4578:4587   */\n      dup6\n        /* \"#utility.yul\":4569:4576   */\n      dup8\n        /* \"#utility.yul\":4565:4588   */\n      sub\n        /* \"#utility.yul\":4561:4594   */\n      slt\n        /* \"#utility.yul\":4558:4678   */\n      iszero\n      tag_276\n      jumpi\n        /* \"#utility.yul\":4597:4676   */\n      tag_277\n      tag_154\n      jump\t// in\n    tag_277:\n        /* \"#utility.yul\":4558:4678   */\n    tag_276:\n        /* \"#utility.yul\":4717:4718   */\n      0x00\n        /* \"#utility.yul\":4742:4795   */\n      tag_278\n        /* \"#utility.yul\":4787:4794   */\n      dup8\n        /* \"#utility.yul\":4778:4784   */\n      dup3\n        /* \"#utility.yul\":4767:4776   */\n      dup9\n        /* \"#utility.yul\":4763:4785   */\n      add\n        /* \"#utility.yul\":4742:4795   */\n      tag_157\n      jump\t// in\n    tag_278:\n        /* \"#utility.yul\":4732:4795   */\n      swap5\n      pop\n        /* \"#utility.yul\":4688:4805   */\n      pop\n        /* \"#utility.yul\":4844:4846   */\n      0x20\n        /* \"#utility.yul\":4870:4923   */\n      tag_279\n        /* \"#utility.yul\":4915:4922   */\n      dup8\n        /* \"#utility.yul\":4906:4912   */\n      dup3\n        /* \"#utility.yul\":4895:4904   */\n      dup9\n        /* \"#utility.yul\":4891:4913   */\n      add\n        /* \"#utility.yul\":4870:4923   */\n      tag_169\n      jump\t// in\n    tag_279:\n        /* \"#utility.yul\":4860:4923   */\n      swap4\n      pop\n        /* \"#utility.yul\":4815:4933   */\n      pop\n        /* \"#utility.yul\":4972:4974   */\n      0x40\n        /* \"#utility.yul\":4998:5051   */\n      tag_280\n        /* \"#utility.yul\":5043:5050   */\n      dup8\n        /* \"#utility.yul\":5034:5040   */\n      dup3\n        /* \"#utility.yul\":5023:5032   */\n      dup9\n        /* \"#utility.yul\":5019:5041   */\n      add\n        /* \"#utility.yul\":4998:5051   */\n      tag_157\n      jump\t// in\n    tag_280:\n        /* \"#utility.yul\":4988:5051   */\n      swap3\n      pop\n        /* \"#utility.yul\":4943:5061   */\n      pop\n        /* \"#utility.yul\":5100:5102   */\n      0x60\n        /* \"#utility.yul\":5126:5179   */\n      tag_281\n        /* \"#utility.yul\":5171:5178   */\n      dup8\n        /* \"#utility.yul\":5162:5168   */\n      dup3\n        /* \"#utility.yul\":5151:5160   */\n      dup9\n        /* \"#utility.yul\":5147:5169   */\n      add\n        /* \"#utility.yul\":5126:5179   */\n      tag_157\n      jump\t// in\n    tag_281:\n        /* \"#utility.yul\":5116:5179   */\n      swap2\n      pop\n        /* \"#utility.yul\":5071:5189   */\n      pop\n        /* \"#utility.yul\":4431:5196   */\n      swap3\n      swap6\n      swap2\n      swap5\n      pop\n      swap3\n      pop\n      jump\t// out\n        /* \"#utility.yul\":5202:5319   */\n    tag_170:\n        /* \"#utility.yul\":5311:5312   */\n      0x00\n        /* \"#utility.yul\":5308:5309   */\n      dup1\n        /* \"#utility.yul\":5301:5313   */\n      revert\n        /* \"#utility.yul\":5325:5442   */\n    tag_171:\n        /* \"#utility.yul\":5434:5435   */\n      0x00\n        /* \"#utility.yul\":5431:5432   */\n      dup1\n        /* \"#utility.yul\":5424:5436   */\n      revert\n        /* \"#utility.yul\":5448:5628   */\n    tag_172:\n        /* \"#utility.yul\":5496:5573   */\n      0x4e487b7100000000000000000000000000000000000000000000000000000000\n        /* \"#utility.yul\":5493:5494   */\n      0x00\n        /* \"#utility.yul\":5486:5574   */\n      mstore\n        /* \"#utility.yul\":5593:5597   */\n      0x41\n        /* \"#utility.yul\":5590:5591   */\n      0x04\n        /* \"#utility.yul\":5583:5598   */\n      mstore\n        /* \"#utility.yul\":5617:5621   */\n      0x24\n        /* \"#utility.yul\":5614:5615   */\n      0x00\n        /* \"#utility.yul\":5607:5622   */\n      revert\n        /* \"#utility.yul\":5634:5915   */\n    tag_173:\n        /* \"#utility.yul\":5717:5744   */\n      tag_286\n        /* \"#utility.yul\":5739:5743   */\n      dup3\n        /* \"#utility.yul\":5717:5744   */\n      tag_161\n      jump\t// in\n    tag_286:\n        /* \"#utility.yul\":5709:5715   */\n      dup2\n        /* \"#utility.yul\":5705:5745   */\n      add\n        /* \"#utility.yul\":5847:5853   */\n      dup2\n        /* \"#utility.yul\":5835:5845   */\n      dup2\n        /* \"#utility.yul\":5832:5854   */\n      lt\n        /* \"#utility.yul\":5811:5829   */\n      0xffffffffffffffff\n        /* \"#utility.yul\":5799:5809   */\n      dup3\n        /* \"#utility.yul\":5796:5830   */\n      gt\n        /* \"#utility.yul\":5793:5855   */\n      or\n        /* \"#utility.yul\":5790:5878   */\n      iszero\n      tag_287\n      jumpi\n        /* \"#utility.yul\":5858:5876   */\n      tag_288\n      tag_172\n      jump\t// in\n    tag_288:\n        /* \"#utility.yul\":5790:5878   */\n    tag_287:\n        /* \"#utility.yul\":5898:5908   */\n      dup1\n        /* \"#utility.yul\":5894:5896   */\n      0x40\n        /* \"#utility.yul\":5887:5909   */\n      mstore\n        /* \"#utility.yul\":5677:5915   */\n      pop\n        /* \"#utility.yul\":5634:5915   */\n      pop\n      pop\n      jump\t// out\n        /* \"#utility.yul\":5921:6050   */\n    tag_174:\n        /* \"#utility.yul\":5955:5961   */\n      0x00\n        /* \"#utility.yul\":5982:6002   */\n      tag_290\n      tag_153\n      jump\t// in\n    tag_290:\n        /* \"#utility.yul\":5972:6002   */\n      swap1\n      pop\n        /* \"#utility.yul\":6011:6044   */\n      tag_291\n        /* \"#utility.yul\":6039:6043   */\n      dup3\n        /* \"#utility.yul\":6031:6037   */\n      dup3\n        /* \"#utility.yul\":6011:6044   */\n      tag_173\n      jump\t// in\n    tag_291:\n        /* \"#utility.yul\":5921:6050   */\n      swap2\n      swap1\n      pop\n      jump\t// out\n        /* \"#utility.yul\":6056:6364   */\n    tag_175:\n        /* \"#utility.yul\":6118:6122   */\n      0x00\n        /* \"#utility.yul\":6208:6226   */\n      0xffffffffffffffff\n        /* \"#utility.yul\":6200:6206   */\n      dup3\n        /* \"#utility.yul\":6197:6227   */\n      gt\n        /* \"#utility.yul\":6194:6250   */\n      iszero\n      tag_293\n      jumpi\n        /* \"#utility.yul\":6230:6248   */\n      tag_294\n      tag_172\n      jump\t// in\n    tag_294:\n        /* \"#utility.yul\":6194:6250   */\n    tag_293:\n        /* \"#utility.yul\":6268:6297   */\n      tag_295\n        /* \"#utility.yul\":6290:6296   */\n      dup3\n        /* \"#utility.yul\":6268:6297   */\n      tag_161\n      jump\t// in\n    tag_295:\n        /* \"#utility.yul\":6260:6297   */\n      swap1\n      pop\n        /* \"#utility.yul\":6352:6356   */\n      0x20\n        /* \"#utility.yul\":6346:6350   */\n      dup2\n        /* \"#utility.yul\":6342:6357   */\n      add\n        /* \"#utility.yul\":6334:6357   */\n      swap1\n      pop\n        /* \"#utility.yul\":6056:6364   */\n      swap2\n      swap1\n      pop\n      jump\t// out\n        /* \"#utility.yul\":6370:6518   */\n    tag_176:\n        /* \"#utility.yul\":6468:6474   */\n      dup3\n        /* \"#utility.yul\":6463:6466   */\n      dup2\n        /* \"#utility.yul\":6458:6461   */\n      dup4\n        /* \"#utility.yul\":6445:6475   */\n      calldatacopy\n        /* \"#utility.yul\":6509:6510   */\n      0x00\n        /* \"#utility.yul\":6500:6506   */\n      dup4\n        /* \"#utility.yul\":6495:6498   */\n      dup4\n        /* \"#utility.yul\":6491:6507   */\n      add\n        /* \"#utility.yul\":6484:6511   */\n      mstore\n        /* \"#utility.yul\":6370:6518   */\n      pop\n      pop\n      pop\n      jump\t// out\n        /* \"#utility.yul\":6524:6949   */\n    tag_177:\n        /* \"#utility.yul\":6602:6607   */\n      0x00\n        /* \"#utility.yul\":6627:6693   */\n      tag_298\n        /* \"#utility.yul\":6643:6692   */\n      tag_299\n        /* \"#utility.yul\":6685:6691   */\n      dup5\n        /* \"#utility.yul\":6643:6692   */\n      tag_175\n      jump\t// in\n    tag_299:\n        /* \"#utility.yul\":6627:6693   */\n      tag_174\n      jump\t// in\n    tag_298:\n        /* \"#utility.yul\":6618:6693   */\n      swap1\n      pop\n        /* \"#utility.yul\":6716:6722   */\n      dup3\n        /* \"#utility.yul\":6709:6714   */\n      dup2\n        /* \"#utility.yul\":6702:6723   */\n      mstore\n        /* \"#utility.yul\":6754:6758   */\n      0x20\n        /* \"#utility.yul\":6747:6752   */\n      dup2\n        /* \"#utility.yul\":6743:6759   */\n      add\n        /* \"#utility.yul\":6792:6795   */\n      dup5\n        /* \"#utility.yul\":6783:6789   */\n      dup5\n        /* \"#utility.yul\":6778:6781   */\n      dup5\n        /* \"#utility.yul\":6774:6790   */\n      add\n        /* \"#utility.yul\":6771:6796   */\n      gt\n        /* \"#utility.yul\":6768:6880   */\n      iszero\n      tag_300\n      jumpi\n        /* \"#utility.yul\":6799:6878   */\n      tag_301\n      tag_171\n      jump\t// in\n    tag_301:\n        /* \"#utility.yul\":6768:6880   */\n    tag_300:\n        /* \"#utility.yul\":6889:6943   */\n      tag_302\n        /* \"#utility.yul\":6936:6942   */\n      dup5\n        /* \"#utility.yul\":6931:6934   */\n      dup3\n        /* \"#utility.yul\":6926:6929   */\n      dup6\n        /* \"#utility.yul\":6889:6943   */\n      tag_176\n      jump\t// in\n    tag_302:\n        /* \"#utility.yul\":6608:6949   */\n      pop\n        /* \"#utility.yul\":6524:6949   */\n      swap4\n      swap3\n      pop\n      pop\n      pop\n      jump\t// out\n        /* \"#utility.yul\":6969:7309   */\n    tag_178:\n        /* \"#utility.yul\":7025:7030   */\n      0x00\n        /* \"#utility.yul\":7074:7077   */\n      dup3\n        /* \"#utility.yul\":7067:7071   */\n      0x1f\n        /* \"#utility.yul\":7059:7065   */\n      dup4\n        /* \"#utility.yul\":7055:7072   */\n      add\n        /* \"#utility.yul\":7051:7078   */\n      slt\n        /* \"#utility.yul\":7041:7163   */\n      tag_304\n      jumpi\n        /* \"#utility.yul\":7082:7161   */\n      tag_305\n      tag_170\n      jump\t// in\n    tag_305:\n        /* \"#utility.yul\":7041:7163   */\n    tag_304:\n        /* \"#utility.yul\":7199:7205   */\n      dup2\n        /* \"#utility.yul\":7186:7206   */\n      calldataload\n        /* \"#utility.yul\":7224:7303   */\n      tag_306\n        /* \"#utility.yul\":7299:7302   */\n      dup5\n        /* \"#utility.yul\":7291:7297   */\n      dup3\n        /* \"#utility.yul\":7284:7288   */\n      0x20\n        /* \"#utility.yul\":7276:7282   */\n      dup7\n        /* \"#utility.yul\":7272:7289   */\n      add\n        /* \"#utility.yul\":7224:7303   */\n      tag_177\n      jump\t// in\n    tag_306:\n        /* \"#utility.yul\":7215:7303   */\n      swap2\n      pop\n        /* \"#utility.yul\":7031:7309   */\n      pop\n        /* \"#utility.yul\":6969:7309   */\n      swap3\n      swap2\n      pop\n      pop\n      jump\t// out\n        /* \"#utility.yul\":7315:7419   */\n    tag_179:\n        /* \"#utility.yul\":7360:7367   */\n      0x00\n        /* \"#utility.yul\":7389:7413   */\n      tag_308\n        /* \"#utility.yul\":7407:7412   */\n      dup3\n        /* \"#utility.yul\":7389:7413   */\n      tag_163\n      jump\t// in\n    tag_308:\n        /* \"#utility.yul\":7378:7413   */\n      swap1\n      pop\n        /* \"#utility.yul\":7315:7419   */\n      swap2\n      swap1\n      pop\n      jump\t// out\n        /* \"#utility.yul\":7425:7563   */\n    tag_180:\n        /* \"#utility.yul\":7506:7538   */\n      tag_310\n        /* \"#utility.yul\":7532:7537   */\n      dup2\n        /* \"#utility.yul\":7506:7538   */\n      tag_179\n      jump\t// in\n    tag_310:\n        /* \"#utility.yul\":7499:7504   */\n      dup2\n        /* \"#utility.yul\":7496:7539   */\n      eq\n        /* \"#utility.yul\":7486:7557   */\n      tag_311\n      jumpi\n        /* \"#utility.yul\":7553:7554   */\n      0x00\n        /* \"#utility.yul\":7550:7551   */\n      dup1\n        /* \"#utility.yul\":7543:7555   */\n      revert\n        /* \"#utility.yul\":7486:7557   */\n    tag_311:\n        /* \"#utility.yul\":7425:7563   */\n      pop\n      jump\t// out\n        /* \"#utility.yul\":7569:7724   */\n    tag_181:\n        /* \"#utility.yul\":7623:7628   */\n      0x00\n        /* \"#utility.yul\":7661:7667   */\n      dup2\n        /* \"#utility.yul\":7648:7668   */\n      calldataload\n        /* \"#utility.yul\":7639:7668   */\n      swap1\n      pop\n        /* \"#utility.yul\":7677:7718   */\n      tag_313\n        /* \"#utility.yul\":7712:7717   */\n      dup2\n        /* \"#utility.yul\":7677:7718   */\n      tag_180\n      jump\t// in\n    tag_313:\n        /* \"#utility.yul\":7569:7724   */\n      swap3\n      swap2\n      pop\n      pop\n      jump\t// out\n        /* \"#utility.yul\":7730:8545   */\n    tag_57:\n        /* \"#utility.yul\":7825:7831   */\n      0x00\n        /* \"#utility.yul\":7833:7839   */\n      dup1\n        /* \"#utility.yul\":7841:7847   */\n      0x00\n        /* \"#utility.yul\":7890:7892   */\n      0x60\n        /* \"#utility.yul\":7878:7887   */\n      dup5\n        /* \"#utility.yul\":7869:7876   */\n      dup7\n        /* \"#utility.yul\":7865:7888   */\n      sub\n        /* \"#utility.yul\":7861:7893   */\n      slt\n        /* \"#utility.yul\":7858:7977   */\n      iszero\n      tag_315\n      jumpi\n        /* \"#utility.yul\":7896:7975   */\n      tag_316\n      tag_154\n      jump\t// in\n    tag_316:\n        /* \"#utility.yul\":7858:7977   */\n    tag_315:\n        /* \"#utility.yul\":8044:8045   */\n      0x00\n        /* \"#utility.yul\":8033:8042   */\n      dup5\n        /* \"#utility.yul\":8029:8046   */\n      add\n        /* \"#utility.yul\":8016:8047   */\n      calldataload\n        /* \"#utility.yul\":8074:8092   */\n      0xffffffffffffffff\n        /* \"#utility.yul\":8066:8072   */\n      dup2\n        /* \"#utility.yul\":8063:8093   */\n      gt\n        /* \"#utility.yul\":8060:8177   */\n      iszero\n      tag_317\n      jumpi\n        /* \"#utility.yul\":8096:8175   */\n      tag_318\n      tag_155\n      jump\t// in\n    tag_318:\n        /* \"#utility.yul\":8060:8177   */\n    tag_317:\n        /* \"#utility.yul\":8201:8264   */\n      tag_319\n        /* \"#utility.yul\":8256:8263   */\n      dup7\n        /* \"#utility.yul\":8247:8253   */\n      dup3\n        /* \"#utility.yul\":8236:8245   */\n      dup8\n        /* \"#utility.yul\":8232:8254   */\n      add\n        /* \"#utility.yul\":8201:8264   */\n      tag_178\n      jump\t// in\n    tag_319:\n        /* \"#utility.yul\":8191:8264   */\n      swap4\n      pop\n        /* \"#utility.yul\":7987:8274   */\n      pop\n        /* \"#utility.yul\":8313:8315   */\n      0x20\n        /* \"#utility.yul\":8339:8392   */\n      tag_320\n        /* \"#utility.yul\":8384:8391   */\n      dup7\n        /* \"#utility.yul\":8375:8381   */\n      dup3\n        /* \"#utility.yul\":8364:8373   */\n      dup8\n        /* \"#utility.yul\":8360:8382   */\n      add\n        /* \"#utility.yul\":8339:8392   */\n      tag_157\n      jump\t// in\n    tag_320:\n        /* \"#utility.yul\":8329:8392   */\n      swap3\n      pop\n        /* \"#utility.yul\":8284:8402   */\n      pop\n        /* \"#utility.yul\":8441:8443   */\n      0x40\n        /* \"#utility.yul\":8467:8528   */\n      tag_321\n        /* \"#utility.yul\":8520:8527   */\n      dup7\n        /* \"#utility.yul\":8511:8517   */\n      dup3\n        /* \"#utility.yul\":8500:8509   */\n      dup8\n        /* \"#utility.yul\":8496:8518   */\n      add\n        /* \"#utility.yul\":8467:8528   */\n      tag_181\n      jump\t// in\n    tag_321:\n        /* \"#utility.yul\":8457:8528   */\n      swap2\n      pop\n        /* \"#utility.yul\":8412:8538   */\n      pop\n        /* \"#utility.yul\":7730:8545   */\n      swap3\n      pop\n      swap3\n      pop\n      swap3\n      jump\t// out\n        /* \"#utility.yul\":8551:8693   */\n    tag_182:\n        /* \"#utility.yul\":8654:8686   */\n      tag_323\n        /* \"#utility.yul\":8680:8685   */\n      dup2\n        /* \"#utility.yul\":8654:8686   */\n      tag_179\n      jump\t// in\n    tag_323:\n        /* \"#utility.yul\":8649:8652   */\n      dup3\n        /* \"#utility.yul\":8642:8687   */\n      mstore\n        /* \"#utility.yul\":8551:8693   */\n      pop\n      pop\n      jump\t// out\n        /* \"#utility.yul\":8699:9474   */\n    tag_67:\n        /* \"#utility.yul\":8934:8938   */\n      0x00\n        /* \"#utility.yul\":8972:8975   */\n      0xa0\n        /* \"#utility.yul\":8961:8970   */\n      dup3\n        /* \"#utility.yul\":8957:8976   */\n      add\n        /* \"#utility.yul\":8949:8976   */\n      swap1\n      pop\n        /* \"#utility.yul\":8986:9057   */\n      tag_325\n        /* \"#utility.yul\":9054:9055   */\n      0x00\n        /* \"#utility.yul\":9043:9052   */\n      dup4\n        /* \"#utility.yul\":9039:9056   */\n      add\n        /* \"#utility.yul\":9030:9036   */\n      dup9\n        /* \"#utility.yul\":8986:9057   */\n      tag_152\n      jump\t// in\n    tag_325:\n        /* \"#utility.yul\":9104:9113   */\n      dup2\n        /* \"#utility.yul\":9098:9102   */\n      dup2\n        /* \"#utility.yul\":9094:9114   */\n      sub\n        /* \"#utility.yul\":9089:9091   */\n      0x20\n        /* \"#utility.yul\":9078:9087   */\n      dup4\n        /* \"#utility.yul\":9074:9092   */\n      add\n        /* \"#utility.yul\":9067:9115   */\n      mstore\n        /* \"#utility.yul\":9132:9210   */\n      tag_326\n        /* \"#utility.yul\":9205:9209   */\n      dup2\n        /* \"#utility.yul\":9196:9202   */\n      dup8\n        /* \"#utility.yul\":9132:9210   */\n      tag_162\n      jump\t// in\n    tag_326:\n        /* \"#utility.yul\":9124:9210   */\n      swap1\n      pop\n        /* \"#utility.yul\":9220:9292   */\n      tag_327\n        /* \"#utility.yul\":9288:9290   */\n      0x40\n        /* \"#utility.yul\":9277:9286   */\n      dup4\n        /* \"#utility.yul\":9273:9291   */\n      add\n        /* \"#utility.yul\":9264:9270   */\n      dup7\n        /* \"#utility.yul\":9220:9292   */\n      tag_152\n      jump\t// in\n    tag_327:\n        /* \"#utility.yul\":9302:9390   */\n      tag_328\n        /* \"#utility.yul\":9386:9388   */\n      0x60\n        /* \"#utility.yul\":9375:9384   */\n      dup4\n        /* \"#utility.yul\":9371:9389   */\n      add\n        /* \"#utility.yul\":9362:9368   */\n      dup6\n        /* \"#utility.yul\":9302:9390   */\n      tag_182\n      jump\t// in\n    tag_328:\n        /* \"#utility.yul\":9400:9467   */\n      tag_329\n        /* \"#utility.yul\":9462:9465   */\n      0x80\n        /* \"#utility.yul\":9451:9460   */\n      dup4\n        /* \"#utility.yul\":9447:9466   */\n      add\n        /* \"#utility.yul\":9438:9444   */\n      dup5\n        /* \"#utility.yul\":9400:9467   */\n      tag_167\n      jump\t// in\n    tag_329:\n        /* \"#utility.yul\":8699:9474   */\n      swap7\n      swap6\n      pop\n      pop\n      pop\n      pop\n      pop\n      pop\n      jump\t// out\n        /* \"#utility.yul\":9480:9702   */\n    tag_72:\n        /* \"#utility.yul\":9573:9577   */\n      0x00\n        /* \"#utility.yul\":9611:9613   */\n      0x20\n        /* \"#utility.yul\":9600:9609   */\n      dup3\n        /* \"#utility.yul\":9596:9614   */\n      add\n        /* \"#utility.yul\":9588:9614   */\n      swap1\n      pop\n        /* \"#utility.yul\":9624:9695   */\n      tag_331\n        /* \"#utility.yul\":9692:9693   */\n      0x00\n        /* \"#utility.yul\":9681:9690   */\n      dup4\n        /* \"#utility.yul\":9677:9694   */\n      add\n        /* \"#utility.yul\":9668:9674   */\n      dup5\n        /* \"#utility.yul\":9624:9695   */\n      tag_165\n      jump\t// in\n    tag_331:\n        /* \"#utility.yul\":9480:9702   */\n      swap3\n      swap2\n      pop\n      pop\n      jump\t// out\n        /* \"#utility.yul\":9708:9888   */\n    tag_183:\n        /* \"#utility.yul\":9756:9833   */\n      0x4e487b7100000000000000000000000000000000000000000000000000000000\n        /* \"#utility.yul\":9753:9754   */\n      0x00\n        /* \"#utility.yul\":9746:9834   */\n      mstore\n        /* \"#utility.yul\":9853:9857   */\n      0x22\n        /* \"#utility.yul\":9850:9851   */\n      0x04\n        /* \"#utility.yul\":9843:9858   */\n      mstore\n        /* \"#utility.yul\":9877:9881   */\n      0x24\n        /* \"#utility.yul\":9874:9875   */\n      0x00\n        /* \"#utility.yul\":9867:9882   */\n      revert\n        /* \"#utility.yul\":9894:10214   */\n    tag_75:\n        /* \"#utility.yul\":9938:9944   */\n      0x00\n        /* \"#utility.yul\":9975:9976   */\n      0x02\n        /* \"#utility.yul\":9969:9973   */\n      dup3\n        /* \"#utility.yul\":9965:9977   */\n      div\n        /* \"#utility.yul\":9955:9977   */\n      swap1\n      pop\n        /* \"#utility.yul\":10022:10023   */\n      0x01\n        /* \"#utility.yul\":10016:10020   */\n      dup3\n        /* \"#utility.yul\":10012:10024   */\n      and\n        /* \"#utility.yul\":10043:10061   */\n      dup1\n        /* \"#utility.yul\":10033:10114   */\n      tag_334\n      jumpi\n        /* \"#utility.yul\":10099:10103   */\n      0x7f\n        /* \"#utility.yul\":10091:10097   */\n      dup3\n        /* \"#utility.yul\":10087:10104   */\n      and\n        /* \"#utility.yul\":10077:10104   */\n      swap2\n      pop\n        /* \"#utility.yul\":10033:10114   */\n    tag_334:\n        /* \"#utility.yul\":10161:10163   */\n      0x20\n        /* \"#utility.yul\":10153:10159   */\n      dup3\n        /* \"#utility.yul\":10150:10164   */\n      lt\n        /* \"#utility.yul\":10130:10148   */\n      dup2\n        /* \"#utility.yul\":10127:10165   */\n      sub\n        /* \"#utility.yul\":10124:10208   */\n      tag_335\n      jumpi\n        /* \"#utility.yul\":10180:10198   */\n      tag_336\n      tag_183\n      jump\t// in\n    tag_336:\n        /* \"#utility.yul\":10124:10208   */\n    tag_335:\n        /* \"#utility.yul\":9945:10214   */\n      pop\n        /* \"#utility.yul\":9894:10214   */\n      swap2\n      swap1\n      pop\n      jump\t// out\n        /* \"#utility.yul\":10220:10450   */\n    tag_184:\n        /* \"#utility.yul\":10360:10394   */\n      0x4f6e6c79207468652070726f7065727479206f776e65722063616e2063726561\n        /* \"#utility.yul\":10356:10357   */\n      0x00\n        /* \"#utility.yul\":10348:10354   */\n      dup3\n        /* \"#utility.yul\":10344:10358   */\n      add\n        /* \"#utility.yul\":10337:10395   */\n      mstore\n        /* \"#utility.yul\":10429:10442   */\n      0x74652061206c656173652e000000000000000000000000000000000000000000\n        /* \"#utility.yul\":10424:10426   */\n      0x20\n        /* \"#utility.yul\":10416:10422   */\n      dup3\n        /* \"#utility.yul\":10412:10427   */\n      add\n        /* \"#utility.yul\":10405:10443   */\n      mstore\n        /* \"#utility.yul\":10220:10450   */\n      pop\n      jump\t// out\n        /* \"#utility.yul\":10456:10822   */\n    tag_185:\n        /* \"#utility.yul\":10598:10601   */\n      0x00\n        /* \"#utility.yul\":10619:10686   */\n      tag_339\n        /* \"#utility.yul\":10683:10685   */\n      0x2b\n        /* \"#utility.yul\":10678:10681   */\n      dup4\n        /* \"#utility.yul\":10619:10686   */\n      tag_159\n      jump\t// in\n    tag_339:\n        /* \"#utility.yul\":10612:10686   */\n      swap2\n      pop\n        /* \"#utility.yul\":10695:10788   */\n      tag_340\n        /* \"#utility.yul\":10784:10787   */\n      dup3\n        /* \"#utility.yul\":10695:10788   */\n      tag_184\n      jump\t// in\n    tag_340:\n        /* \"#utility.yul\":10813:10815   */\n      0x40\n        /* \"#utility.yul\":10808:10811   */\n      dup3\n        /* \"#utility.yul\":10804:10816   */\n      add\n        /* \"#utility.yul\":10797:10816   */\n      swap1\n      pop\n        /* \"#utility.yul\":10456:10822   */\n      swap2\n      swap1\n      pop\n      jump\t// out\n        /* \"#utility.yul\":10828:11247   */\n    tag_84:\n        /* \"#utility.yul\":10994:10998   */\n      0x00\n        /* \"#utility.yul\":11032:11034   */\n      0x20\n        /* \"#utility.yul\":11021:11030   */\n      dup3\n        /* \"#utility.yul\":11017:11035   */\n      add\n        /* \"#utility.yul\":11009:11035   */\n      swap1\n      pop\n        /* \"#utility.yul\":11081:11090   */\n      dup2\n        /* \"#utility.yul\":11075:11079   */\n      dup2\n        /* \"#utility.yul\":11071:11091   */\n      sub\n        /* \"#utility.yul\":11067:11068   */\n      0x00\n        /* \"#utility.yul\":11056:11065   */\n      dup4\n        /* \"#utility.yul\":11052:11069   */\n      add\n        /* \"#utility.yul\":11045:11092   */\n      mstore\n        /* \"#utility.yul\":11109:11240   */\n      tag_342\n        /* \"#utility.yul\":11235:11239   */\n      dup2\n        /* \"#utility.yul\":11109:11240   */\n      tag_185\n      jump\t// in\n    tag_342:\n        /* \"#utility.yul\":11101:11240   */\n      swap1\n      pop\n        /* \"#utility.yul\":10828:11247   */\n      swap2\n      swap1\n      pop\n      jump\t// out\n        /* \"#utility.yul\":11253:11481   */\n    tag_186:\n        /* \"#utility.yul\":11393:11427   */\n      0x43616e6e6f74206c6561736520612070726f7065727479207468617420697320\n        /* \"#utility.yul\":11389:11390   */\n      0x00\n        /* \"#utility.yul\":11381:11387   */\n      dup3\n        /* \"#utility.yul\":11377:11391   */\n      add\n        /* \"#utility.yul\":11370:11428   */\n      mstore\n        /* \"#utility.yul\":11462:11473   */\n      0x666f722073616c652e0000000000000000000000000000000000000000000000\n        /* \"#utility.yul\":11457:11459   */\n      0x20\n        /* \"#utility.yul\":11449:11455   */\n      dup3\n        /* \"#utility.yul\":11445:11460   */\n      add\n        /* \"#utility.yul\":11438:11474   */\n      mstore\n        /* \"#utility.yul\":11253:11481   */\n      pop\n      jump\t// out\n        /* \"#utility.yul\":11487:11853   */\n    tag_187:\n        /* \"#utility.yul\":11629:11632   */\n      0x00\n        /* \"#utility.yul\":11650:11717   */\n      tag_345\n        /* \"#utility.yul\":11714:11716   */\n      0x29\n        /* \"#utility.yul\":11709:11712   */\n      dup4\n        /* \"#utility.yul\":11650:11717   */\n      tag_159\n      jump\t// in\n    tag_345:\n        /* \"#utility.yul\":11643:11717   */\n      swap2\n      pop\n        /* \"#utility.yul\":11726:11819   */\n      tag_346\n        /* \"#utility.yul\":11815:11818   */\n      dup3\n        /* \"#utility.yul\":11726:11819   */\n      tag_186\n      jump\t// in\n    tag_346:\n        /* \"#utility.yul\":11844:11846   */\n      0x40\n        /* \"#utility.yul\":11839:11842   */\n      dup3\n        /* \"#utility.yul\":11835:11847   */\n      add\n        /* \"#utility.yul\":11828:11847   */\n      swap1\n      pop\n        /* \"#utility.yul\":11487:11853   */\n      swap2\n      swap1\n      pop\n      jump\t// out\n        /* \"#utility.yul\":11859:12278   */\n    tag_87:\n        /* \"#utility.yul\":12025:12029   */\n      0x00\n        /* \"#utility.yul\":12063:12065   */\n      0x20\n        /* \"#utility.yul\":12052:12061   */\n      dup3\n        /* \"#utility.yul\":12048:12066   */\n      add\n        /* \"#utility.yul\":12040:12066   */\n      swap1\n      pop\n        /* \"#utility.yul\":12112:12121   */\n      dup2\n        /* \"#utility.yul\":12106:12110   */\n      dup2\n        /* \"#utility.yul\":12102:12122   */\n      sub\n        /* \"#utility.yul\":12098:12099   */\n      0x00\n        /* \"#utility.yul\":12087:12096   */\n      dup4\n        /* \"#utility.yul\":12083:12100   */\n      add\n        /* \"#utility.yul\":12076:12123   */\n      mstore\n        /* \"#utility.yul\":12140:12271   */\n      tag_348\n        /* \"#utility.yul\":12266:12270   */\n      dup2\n        /* \"#utility.yul\":12140:12271   */\n      tag_187\n      jump\t// in\n    tag_348:\n        /* \"#utility.yul\":12132:12271   */\n      swap1\n      pop\n        /* \"#utility.yul\":11859:12278   */\n      swap2\n      swap1\n      pop\n      jump\t// out\n        /* \"#utility.yul\":12284:12464   */\n    tag_188:\n        /* \"#utility.yul\":12332:12409   */\n      0x4e487b7100000000000000000000000000000000000000000000000000000000\n        /* \"#utility.yul\":12329:12330   */\n      0x00\n        /* \"#utility.yul\":12322:12410   */\n      mstore\n        /* \"#utility.yul\":12429:12433   */\n      0x11\n        /* \"#utility.yul\":12426:12427   */\n      0x04\n        /* \"#utility.yul\":12419:12434   */\n      mstore\n        /* \"#utility.yul\":12453:12457   */\n      0x24\n        /* \"#utility.yul\":12450:12451   */\n      0x00\n        /* \"#utility.yul\":12443:12458   */\n      revert\n        /* \"#utility.yul\":12470:12703   */\n    tag_89:\n        /* \"#utility.yul\":12509:12512   */\n      0x00\n        /* \"#utility.yul\":12532:12556   */\n      tag_351\n        /* \"#utility.yul\":12550:12555   */\n      dup3\n        /* \"#utility.yul\":12532:12556   */\n      tag_151\n      jump\t// in\n    tag_351:\n        /* \"#utility.yul\":12523:12556   */\n      swap2\n      pop\n        /* \"#utility.yul\":12578:12644   */\n      0xffffffffffffffffffffffffffffffffffffffffffffffffffffffffffffffff\n        /* \"#utility.yul\":12571:12576   */\n      dup3\n        /* \"#utility.yul\":12568:12645   */\n      sub\n        /* \"#utility.yul\":12565:12668   */\n      tag_352\n      jumpi\n        /* \"#utility.yul\":12648:12666   */\n      tag_353\n      tag_188\n      jump\t// in\n    tag_353:\n        /* \"#utility.yul\":12565:12668   */\n    tag_352:\n        /* \"#utility.yul\":12695:12696   */\n      0x01\n        /* \"#utility.yul\":12688:12693   */\n      dup3\n        /* \"#utility.yul\":12684:12697   */\n      add\n        /* \"#utility.yul\":12677:12697   */\n      swap1\n      pop\n        /* \"#utility.yul\":12470:12703   */\n      swap2\n      swap1\n      pop\n      jump\t// out\n        /* \"#utility.yul\":12709:13119   */\n    tag_91:\n        /* \"#utility.yul\":12749:12756   */\n      0x00\n        /* \"#utility.yul\":12772:12792   */\n      tag_355\n        /* \"#utility.yul\":12790:12791   */\n      dup3\n        /* \"#utility.yul\":12772:12792   */\n      tag_151\n      jump\t// in\n    tag_355:\n        /* \"#utility.yul\":12767:12792   */\n      swap2\n      pop\n        /* \"#utility.yul\":12806:12826   */\n      tag_356\n        /* \"#utility.yul\":12824:12825   */\n      dup4\n        /* \"#utility.yul\":12806:12826   */\n      tag_151\n      jump\t// in\n    tag_356:\n        /* \"#utility.yul\":12801:12826   */\n      swap3\n      pop\n        /* \"#utility.yul\":12861:12862   */\n      dup3\n        /* \"#utility.yul\":12858:12859   */\n      dup3\n        /* \"#utility.yul\":12854:12863   */\n      mul\n        /* \"#utility.yul\":12883:12913   */\n      tag_357\n        /* \"#utility.yul\":12901:12912   */\n      dup2\n        /* \"#utility.yul\":12883:12913   */\n      tag_151\n      jump\t// in\n    tag_357:\n        /* \"#utility.yul\":12872:12913   */\n      swap2\n      pop\n        /* \"#utility.yul\":13062:13063   */\n      dup3\n        /* \"#utility.yul\":13053:13060   */\n      dup3\n        /* \"#utility.yul\":13049:13064   */\n      div\n        /* \"#utility.yul\":13046:13047   */\n      dup5\n        /* \"#utility.yul\":13043:13065   */\n      eq\n        /* \"#utility.yul\":13023:13024   */\n      dup4\n        /* \"#utility.yul\":13016:13025   */\n      iszero\n        /* \"#utility.yul\":12996:13079   */\n      or\n        /* \"#utility.yul\":12973:13112   */\n      tag_358\n      jumpi\n        /* \"#utility.yul\":13092:13110   */\n      tag_359\n      tag_188\n      jump\t// in\n    tag_359:\n        /* \"#utility.yul\":12973:13112   */\n    tag_358:\n        /* \"#utility.yul\":12757:13119   */\n      pop\n        /* \"#utility.yul\":12709:13119   */\n      swap3\n      swap2\n      pop\n      pop\n      jump\t// out\n        /* \"#utility.yul\":13125:13316   */\n    tag_93:\n        /* \"#utility.yul\":13165:13168   */\n      0x00\n        /* \"#utility.yul\":13184:13204   */\n      tag_361\n        /* \"#utility.yul\":13202:13203   */\n      dup3\n        /* \"#utility.yul\":13184:13204   */\n      tag_151\n      jump\t// in\n    tag_361:\n        /* \"#utility.yul\":13179:13204   */\n      swap2\n      pop\n        /* \"#utility.yul\":13218:13238   */\n      tag_362\n        /* \"#utility.yul\":13236:13237   */\n      dup4\n        /* \"#utility.yul\":13218:13238   */\n      tag_151\n      jump\t// in\n    tag_362:\n        /* \"#utility.yul\":13213:13238   */\n      swap3\n      pop\n        /* \"#utility.yul\":13261:13262   */\n      dup3\n        /* \"#utility.yul\":13258:13259   */\n      dup3\n        /* \"#utility.yul\":13254:13263   */\n      add\n        /* \"#utility.yul\":13247:13263   */\n      swap1\n      pop\n        /* \"#utility.yul\":13282:13285   */\n      dup1\n        /* \"#utility.yul\":13279:13280   */\n      dup3\n        /* \"#utility.yul\":13276:13286   */\n      gt\n        /* \"#utility.yul\":13273:13309   */\n      iszero\n      tag_363\n      jumpi\n        /* \"#utility.yul\":13289:13307   */\n      tag_364\n      tag_188\n      jump\t// in\n    tag_364:\n        /* \"#utility.yul\":13273:13309   */\n    tag_363:\n        /* \"#utility.yul\":13125:13316   */\n      swap3\n      swap2\n      pop\n      pop\n      jump\t// out\n        /* \"#utility.yul\":13322:13875   */\n    tag_95:\n        /* \"#utility.yul\":13499:13503   */\n      0x00\n        /* \"#utility.yul\":13537:13540   */\n      0x80\n        /* \"#utility.yul\":13526:13535   */\n      dup3\n        /* \"#utility.yul\":13522:13541   */\n      add\n        /* \"#utility.yul\":13514:13541   */\n      swap1\n      pop\n        /* \"#utility.yul\":13551:13622   */\n      tag_366\n        /* \"#utility.yul\":13619:13620   */\n      0x00\n        /* \"#utility.yul\":13608:13617   */\n      dup4\n        /* \"#utility.yul\":13604:13621   */\n      add\n        /* \"#utility.yul\":13595:13601   */\n      dup8\n        /* \"#utility.yul\":13551:13622   */\n      tag_152\n      jump\t// in\n    tag_366:\n        /* \"#utility.yul\":13632:13704   */\n      tag_367\n        /* \"#utility.yul\":13700:13702   */\n      0x20\n        /* \"#utility.yul\":13689:13698   */\n      dup4\n        /* \"#utility.yul\":13685:13703   */\n      add\n        /* \"#utility.yul\":13676:13682   */\n      dup7\n        /* \"#utility.yul\":13632:13704   */\n      tag_152\n      jump\t// in\n    tag_367:\n        /* \"#utility.yul\":13714:13786   */\n      tag_368\n        /* \"#utility.yul\":13782:13784   */\n      0x40\n        /* \"#utility.yul\":13771:13780   */\n      dup4\n        /* \"#utility.yul\":13767:13785   */\n      add\n        /* \"#utility.yul\":13758:13764   */\n      dup6\n        /* \"#utility.yul\":13714:13786   */\n      tag_165\n      jump\t// in\n    tag_368:\n        /* \"#utility.yul\":13796:13868   */\n      tag_369\n        /* \"#utility.yul\":13864:13866   */\n      0x60\n        /* \"#utility.yul\":13853:13862   */\n      dup4\n        /* \"#utility.yul\":13849:13867   */\n      add\n        /* \"#utility.yul\":13840:13846   */\n      dup5\n        /* \"#utility.yul\":13796:13868   */\n      tag_152\n      jump\t// in\n    tag_369:\n        /* \"#utility.yul\":13322:13875   */\n      swap6\n      swap5\n      pop\n      pop\n      pop\n      pop\n      pop\n      jump\t// out\n        /* \"#utility.yul\":13881:14059   */\n    tag_189:\n        /* \"#utility.yul\":14021:14051   */\n      0x4c6561736520697320616c7265616479207465726d696e617465642e00000000\n        /* \"#utility.yul\":14017:14018   */\n      0x00\n        /* \"#utility.yul\":14009:14015   */\n      dup3\n        /* \"#utility.yul\":14005:14019   */\n      add\n        /* \"#utility.yul\":13998:14052   */\n      mstore\n        /* \"#utility.yul\":13881:14059   */\n      pop\n      jump\t// out\n        /* \"#utility.yul\":14065:14431   */\n    tag_190:\n        /* \"#utility.yul\":14207:14210   */\n      0x00\n        /* \"#utility.yul\":14228:14295   */\n      tag_372\n        /* \"#utility.yul\":14292:14294   */\n      0x1c\n        /* \"#utility.yul\":14287:14290   */\n      dup4\n        /* \"#utility.yul\":14228:14295   */\n      tag_159\n      jump\t// in\n    tag_372:\n        /* \"#utility.yul\":14221:14295   */\n      swap2\n      pop\n        /* \"#utility.yul\":14304:14397   */\n      tag_373\n        /* \"#utility.yul\":14393:14396   */\n      dup3\n        /* \"#utility.yul\":14304:14397   */\n      tag_189\n      jump\t// in\n    tag_373:\n        /* \"#utility.yul\":14422:14424   */\n      0x20\n        /* \"#utility.yul\":14417:14420   */\n      dup3\n        /* \"#utility.yul\":14413:14425   */\n      add\n        /* \"#utility.yul\":14406:14425   */\n      swap1\n      pop\n        /* \"#utility.yul\":14065:14431   */\n      swap2\n      swap1\n      pop\n      jump\t// out\n        /* \"#utility.yul\":14437:14856   */\n    tag_99:\n        /* \"#utility.yul\":14603:14607   */\n      0x00\n        /* \"#utility.yul\":14641:14643   */\n      0x20\n        /* \"#utility.yul\":14630:14639   */\n      dup3\n        /* \"#utility.yul\":14626:14644   */\n      add\n        /* \"#utility.yul\":14618:14644   */\n      swap1\n      pop\n        /* \"#utility.yul\":14690:14699   */\n      dup2\n        /* \"#utility.yul\":14684:14688   */\n      dup2\n        /* \"#utility.yul\":14680:14700   */\n      sub\n        /* \"#utility.yul\":14676:14677   */\n      0x00\n        /* \"#utility.yul\":14665:14674   */\n      dup4\n        /* \"#utility.yul\":14661:14678   */\n      add\n        /* \"#utility.yul\":14654:14701   */\n      mstore\n        /* \"#utility.yul\":14718:14849   */\n      tag_375\n        /* \"#utility.yul\":14844:14848   */\n      dup2\n        /* \"#utility.yul\":14718:14849   */\n      tag_190\n      jump\t// in\n    tag_375:\n        /* \"#utility.yul\":14710:14849   */\n      swap1\n      pop\n        /* \"#utility.yul\":14437:14856   */\n      swap2\n      swap1\n      pop\n      jump\t// out\n        /* \"#utility.yul\":14862:15111   */\n    tag_191:\n        /* \"#utility.yul\":15002:15036   */\n      0x4f6e6c792061646d696e2c2074656e616e742c206f722070726f706572747920\n        /* \"#utility.yul\":14998:14999   */\n      0x00\n        /* \"#utility.yul\":14990:14996   */\n      dup3\n        /* \"#utility.yul\":14986:15000   */\n      add\n        /* \"#utility.yul\":14979:15037   */\n      mstore\n        /* \"#utility.yul\":15071:15103   */\n      0x6f776e65722063616e207465726d696e61746520746865206c656173652e0000\n        /* \"#utility.yul\":15066:15068   */\n      0x20\n        /* \"#utility.yul\":15058:15064   */\n      dup3\n        /* \"#utility.yul\":15054:15069   */\n      add\n        /* \"#utility.yul\":15047:15104   */\n      mstore\n        /* \"#utility.yul\":14862:15111   */\n      pop\n      jump\t// out\n        /* \"#utility.yul\":15117:15483   */\n    tag_192:\n        /* \"#utility.yul\":15259:15262   */\n      0x00\n        /* \"#utility.yul\":15280:15347   */\n      tag_378\n        /* \"#utility.yul\":15344:15346   */\n      0x3e\n        /* \"#utility.yul\":15339:15342   */\n      dup4\n        /* \"#utility.yul\":15280:15347   */\n      tag_159\n      jump\t// in\n    tag_378:\n        /* \"#utility.yul\":15273:15347   */\n      swap2\n      pop\n        /* \"#utility.yul\":15356:15449   */\n      tag_379\n        /* \"#utility.yul\":15445:15448   */\n      dup3\n        /* \"#utility.yul\":15356:15449   */\n      tag_191\n      jump\t// in\n    tag_379:\n        /* \"#utility.yul\":15474:15476   */\n      0x40\n        /* \"#utility.yul\":15469:15472   */\n      dup3\n        /* \"#utility.yul\":15465:15477   */\n      add\n        /* \"#utility.yul\":15458:15477   */\n      swap1\n      pop\n        /* \"#utility.yul\":15117:15483   */\n      swap2\n      swap1\n      pop\n      jump\t// out\n        /* \"#utility.yul\":15489:15908   */\n    tag_104:\n        /* \"#utility.yul\":15655:15659   */\n      0x00\n        /* \"#utility.yul\":15693:15695   */\n      0x20\n        /* \"#utility.yul\":15682:15691   */\n      dup3\n        /* \"#utility.yul\":15678:15696   */\n      add\n        /* \"#utility.yul\":15670:15696   */\n      swap1\n      pop\n        /* \"#utility.yul\":15742:15751   */\n      dup2\n        /* \"#utility.yul\":15736:15740   */\n      dup2\n        /* \"#utility.yul\":15732:15752   */\n      sub\n        /* \"#utility.yul\":15728:15729   */\n      0x00\n        /* \"#utility.yul\":15717:15726   */\n      dup4\n        /* \"#utility.yul\":15713:15730   */\n      add\n        /* \"#utility.yul\":15706:15753   */\n      mstore\n        /* \"#utility.yul\":15770:15901   */\n      tag_381\n        /* \"#utility.yul\":15896:15900   */\n      dup2\n        /* \"#utility.yul\":15770:15901   */\n      tag_192\n      jump\t// in\n    tag_381:\n        /* \"#utility.yul\":15762:15901   */\n      swap1\n      pop\n        /* \"#utility.yul\":15489:15908   */\n      swap2\n      swap1\n      pop\n      jump\t// out\n        /* \"#utility.yul\":15914:16089   */\n    tag_193:\n        /* \"#utility.yul\":16054:16081   */\n      0x50726f7065727479206973206e6f7420666f722073616c652e00000000000000\n        /* \"#utility.yul\":16050:16051   */\n      0x00\n        /* \"#utility.yul\":16042:16048   */\n      dup3\n        /* \"#utility.yul\":16038:16052   */\n      add\n        /* \"#utility.yul\":16031:16082   */\n      mstore\n        /* \"#utility.yul\":15914:16089   */\n      pop\n      jump\t// out\n        /* \"#utility.yul\":16095:16461   */\n    tag_194:\n        /* \"#utility.yul\":16237:16240   */\n      0x00\n        /* \"#utility.yul\":16258:16325   */\n      tag_384\n        /* \"#utility.yul\":16322:16324   */\n      0x19\n        /* \"#utility.yul\":16317:16320   */\n      dup4\n        /* \"#utility.yul\":16258:16325   */\n      tag_159\n      jump\t// in\n    tag_384:\n        /* \"#utility.yul\":16251:16325   */\n      swap2\n      pop\n        /* \"#utility.yul\":16334:16427   */\n      tag_385\n        /* \"#utility.yul\":16423:16426   */\n      dup3\n        /* \"#utility.yul\":16334:16427   */\n      tag_193\n      jump\t// in\n    tag_385:\n        /* \"#utility.yul\":16452:16454   */\n      0x20\n        /* \"#utility.yul\":16447:16450   */\n      dup3\n        /* \"#utility.yul\":16443:16455   */\n      add\n        /* \"#utility.yul\":16436:16455   */\n      swap1\n      pop\n        /* \"#utility.yul\":16095:16461   */\n      swap2\n      swap1\n      pop\n      jump\t// out\n        /* \"#utility.yul\":16467:16886   */\n    tag_108:\n        /* \"#utility.yul\":16633:16637   */\n      0x00\n        /* \"#utility.yul\":16671:16673   */\n      0x20\n        /* \"#utility.yul\":16660:16669   */\n      dup3\n        /* \"#utility.yul\":16656:16674   */\n      add\n        /* \"#utility.yul\":16648:16674   */\n      swap1\n      pop\n        /* \"#utility.yul\":16720:16729   */\n      dup2\n        /* \"#utility.yul\":16714:16718   */\n      dup2\n        /* \"#utility.yul\":16710:16730   */\n      sub\n        /* \"#utility.yul\":16706:16707   */\n      0x00\n        /* \"#utility.yul\":16695:16704   */\n      dup4\n        /* \"#utility.yul\":16691:16708   */\n      add\n        /* \"#utility.yul\":16684:16731   */\n      mstore\n        /* \"#utility.yul\":16748:16879   */\n      tag_387\n        /* \"#utility.yul\":16874:16878   */\n      dup2\n        /* \"#utility.yul\":16748:16879   */\n      tag_194\n      jump\t// in\n    tag_387:\n        /* \"#utility.yul\":16740:16879   */\n      swap1\n      pop\n        /* \"#utility.yul\":16467:16886   */\n      swap2\n      swap1\n      pop\n      jump\t// out\n        /* \"#utility.yul\":16892:17067   */\n    tag_195:\n        /* \"#utility.yul\":17032:17059   */\n      0x496e636f7272656374207061796d656e7420616d6f756e742e00000000000000\n        /* \"#utility.yul\":17028:17029   */\n      0x00\n        /* \"#utility.yul\":17020:17026   */\n      dup3\n        /* \"#utility.yul\":17016:17030   */\n      add\n        /* \"#utility.yul\":17009:17060   */\n      mstore\n        /* \"#utility.yul\":16892:17067   */\n      pop\n      jump\t// out\n        /* \"#utility.yul\":17073:17439   */\n    tag_196:\n        /* \"#utility.yul\":17215:17218   */\n      0x00\n        /* \"#utility.yul\":17236:17303   */\n      tag_390\n        /* \"#utility.yul\":17300:17302   */\n      0x19\n        /* \"#utility.yul\":17295:17298   */\n      dup4\n        /* \"#utility.yul\":17236:17303   */\n      tag_159\n      jump\t// in\n    tag_390:\n        /* \"#utility.yul\":17229:17303   */\n      swap2\n      pop\n        /* \"#utility.yul\":17312:17405   */\n      tag_391\n        /* \"#utility.yul\":17401:17404   */\n      dup3\n        /* \"#utility.yul\":17312:17405   */\n      tag_195\n      jump\t// in\n    tag_391:\n        /* \"#utility.yul\":17430:17432   */\n      0x20\n        /* \"#utility.yul\":17425:17428   */\n      dup3\n        /* \"#utility.yul\":17421:17433   */\n      add\n        /* \"#utility.yul\":17414:17433   */\n      swap1\n      pop\n        /* \"#utility.yul\":17073:17439   */\n      swap2\n      swap1\n      pop\n      jump\t// out\n        /* \"#utility.yul\":17445:17864   */\n    tag_111:\n        /* \"#utility.yul\":17611:17615   */\n      0x00\n        /* \"#utility.yul\":17649:17651   */\n      0x20\n        /* \"#utility.yul\":17638:17647   */\n      dup3\n        /* \"#utility.yul\":17634:17652   */\n      add\n        /* \"#utility.yul\":17626:17652   */\n      swap1\n      pop\n        /* \"#utility.yul\":17698:17707   */\n      dup2\n        /* \"#utility.yul\":17692:17696   */\n      dup2\n        /* \"#utility.yul\":17688:17708   */\n      sub\n        /* \"#utility.yul\":17684:17685   */\n      0x00\n        /* \"#utility.yul\":17673:17682   */\n      dup4\n        /* \"#utility.yul\":17669:17686   */\n      add\n        /* \"#utility.yul\":17662:17709   */\n      mstore\n        /* \"#utility.yul\":17726:17857   */\n      tag_393\n        /* \"#utility.yul\":17852:17856   */\n      dup2\n        /* \"#utility.yul\":17726:17857   */\n      tag_196\n      jump\t// in\n    tag_393:\n        /* \"#utility.yul\":17718:17857   */\n      swap1\n      pop\n        /* \"#utility.yul\":17445:17864   */\n      swap2\n      swap1\n      pop\n      jump\t// out\n        /* \"#utility.yul\":17870:18202   */\n    tag_115:\n        /* \"#utility.yul\":17991:17995   */\n      0x00\n        /* \"#utility.yul\":18029:18031   */\n      0x40\n        /* \"#utility.yul\":18018:18027   */\n      dup3\n        /* \"#utility.yul\":18014:18032   */\n      add\n        /* \"#utility.yul\":18006:18032   */\n      swap1\n      pop\n        /* \"#utility.yul\":18042:18113   */\n      tag_395\n        /* \"#utility.yul\":18110:18111   */\n      0x00\n        /* \"#utility.yul\":18099:18108   */\n      dup4\n        /* \"#utility.yul\":18095:18112   */\n      add\n        /* \"#utility.yul\":18086:18092   */\n      dup6\n        /* \"#utility.yul\":18042:18113   */\n      tag_152\n      jump\t// in\n    tag_395:\n        /* \"#utility.yul\":18123:18195   */\n      tag_396\n        /* \"#utility.yul\":18191:18193   */\n      0x20\n        /* \"#utility.yul\":18180:18189   */\n      dup4\n        /* \"#utility.yul\":18176:18194   */\n      add\n        /* \"#utility.yul\":18167:18173   */\n      dup5\n        /* \"#utility.yul\":18123:18195   */\n      tag_165\n      jump\t// in\n    tag_396:\n        /* \"#utility.yul\":17870:18202   */\n      swap4\n      swap3\n      pop\n      pop\n      pop\n      jump\t// out\n        /* \"#utility.yul\":18208:18434   */\n    tag_197:\n        /* \"#utility.yul\":18348:18382   */\n      0x4f6e6c79207468652061646d696e2063616e20706572666f726d207468697320\n        /* \"#utility.yul\":18344:18345   */\n      0x00\n        /* \"#utility.yul\":18336:18342   */\n      dup3\n        /* \"#utility.yul\":18332:18346   */\n      add\n        /* \"#utility.yul\":18325:18383   */\n      mstore\n        /* \"#utility.yul\":18417:18426   */\n      0x616374696f6e2e00000000000000000000000000000000000000000000000000\n        /* \"#utility.yul\":18412:18414   */\n      0x20\n        /* \"#utility.yul\":18404:18410   */\n      dup3\n        /* \"#utility.yul\":18400:18415   */\n      add\n        /* \"#utility.yul\":18393:18427   */\n      mstore\n        /* \"#utility.yul\":18208:18434   */\n      pop\n      jump\t// out\n        /* \"#utility.yul\":18440:18806   */\n    tag_198:\n        /* \"#utility.yul\":18582:18585   */\n      0x00\n        /* \"#utility.yul\":18603:18670   */\n      tag_399\n        /* \"#utility.yul\":18667:18669   */\n      0x27\n        /* \"#utility.yul\":18662:18665   */\n      dup4\n        /* \"#utility.yul\":18603:18670   */\n      tag_159\n      jump\t// in\n    tag_399:\n        /* \"#utility.yul\":18596:18670   */\n      swap2\n      pop\n        /* \"#utility.yul\":18679:18772   */\n      tag_400\n        /* \"#utility.yul\":18768:18771   */\n      dup3\n        /* \"#utility.yul\":18679:18772   */\n      tag_197\n      jump\t// in\n    tag_400:\n        /* \"#utility.yul\":18797:18799   */\n      0x40\n        /* \"#utility.yul\":18792:18795   */\n      dup3\n        /* \"#utility.yul\":18788:18800   */\n      add\n        /* \"#utility.yul\":18781:18800   */\n      swap1\n      pop\n        /* \"#utility.yul\":18440:18806   */\n      swap2\n      swap1\n      pop\n      jump\t// out\n        /* \"#utility.yul\":18812:19231   */\n    tag_119:\n        /* \"#utility.yul\":18978:18982   */\n      0x00\n        /* \"#utility.yul\":19016:19018   */\n      0x20\n        /* \"#utility.yul\":19005:19014   */\n      dup3\n        /* \"#utility.yul\":19001:19019   */\n      add\n        /* \"#utility.yul\":18993:19019   */\n      swap1\n      pop\n        /* \"#utility.yul\":19065:19074   */\n      dup2\n        /* \"#utility.yul\":19059:19063   */\n      dup2\n        /* \"#utility.yul\":19055:19075   */\n      sub\n        /* \"#utility.yul\":19051:19052   */\n      0x00\n        /* \"#utility.yul\":19040:19049   */\n      dup4\n        /* \"#utility.yul\":19036:19053   */\n      add\n        /* \"#utility.yul\":19029:19076   */\n      mstore\n        /* \"#utility.yul\":19093:19224   */\n      tag_402\n        /* \"#utility.yul\":19219:19223   */\n      dup2\n        /* \"#utility.yul\":19093:19224   */\n      tag_198\n      jump\t// in\n    tag_402:\n        /* \"#utility.yul\":19085:19224   */\n      swap1\n      pop\n        /* \"#utility.yul\":18812:19231   */\n      swap2\n      swap1\n      pop\n      jump\t// out\n        /* \"#utility.yul\":19237:19419   */\n    tag_199:\n        /* \"#utility.yul\":19377:19411   */\n      0x5072696365206d7573742062652067726561746572207468616e207a65726f2e\n        /* \"#utility.yul\":19373:19374   */\n      0x00\n        /* \"#utility.yul\":19365:19371   */\n      dup3\n        /* \"#utility.yul\":19361:19375   */\n      add\n        /* \"#utility.yul\":19354:19412   */\n      mstore\n        /* \"#utility.yul\":19237:19419   */\n      pop\n      jump\t// out\n        /* \"#utility.yul\":19425:19791   */\n    tag_200:\n        /* \"#utility.yul\":19567:19570   */\n      0x00\n        /* \"#utility.yul\":19588:19655   */\n      tag_405\n        /* \"#utility.yul\":19652:19654   */\n      0x20\n        /* \"#utility.yul\":19647:19650   */\n      dup4\n        /* \"#utility.yul\":19588:19655   */\n      tag_159\n      jump\t// in\n    tag_405:\n        /* \"#utility.yul\":19581:19655   */\n      swap2\n      pop\n        /* \"#utility.yul\":19664:19757   */\n      tag_406\n        /* \"#utility.yul\":19753:19756   */\n      dup3\n        /* \"#utility.yul\":19664:19757   */\n      tag_199\n      jump\t// in\n    tag_406:\n        /* \"#utility.yul\":19782:19784   */\n      0x20\n        /* \"#utility.yul\":19777:19780   */\n      dup3\n        /* \"#utility.yul\":19773:19785   */\n      add\n        /* \"#utility.yul\":19766:19785   */\n      swap1\n      pop\n        /* \"#utility.yul\":19425:19791   */\n      swap2\n      swap1\n      pop\n      jump\t// out\n        /* \"#utility.yul\":19797:20216   */\n    tag_123:\n        /* \"#utility.yul\":19963:19967   */\n      0x00\n        /* \"#utility.yul\":20001:20003   */\n      0x20\n        /* \"#utility.yul\":19990:19999   */\n      dup3\n        /* \"#utility.yul\":19986:20004   */\n      add\n        /* \"#utility.yul\":19978:20004   */\n      swap1\n      pop\n        /* \"#utility.yul\":20050:20059   */\n      dup2\n        /* \"#utility.yul\":20044:20048   */\n      dup2\n        /* \"#utility.yul\":20040:20060   */\n      sub\n        /* \"#utility.yul\":20036:20037   */\n      0x00\n        /* \"#utility.yul\":20025:20034   */\n      dup4\n        /* \"#utility.yul\":20021:20038   */\n      add\n        /* \"#utility.yul\":20014:20061   */\n      mstore\n        /* \"#utility.yul\":20078:20209   */\n      tag_408\n        /* \"#utility.yul\":20204:20208   */\n      dup2\n        /* \"#utility.yul\":20078:20209   */\n      tag_200\n      jump\t// in\n    tag_408:\n        /* \"#utility.yul\":20070:20209   */\n      swap1\n      pop\n        /* \"#utility.yul\":19797:20216   */\n      swap2\n      swap1\n      pop\n      jump\t// out\n        /* \"#utility.yul\":20222:20363   */\n    tag_201:\n        /* \"#utility.yul\":20271:20275   */\n      0x00\n        /* \"#utility.yul\":20294:20297   */\n      dup2\n        /* \"#utility.yul\":20286:20297   */\n      swap1\n      pop\n        /* \"#utility.yul\":20317:20320   */\n      dup2\n        /* \"#utility.yul\":20314:20315   */\n      0x00\n        /* \"#utility.yul\":20307:20321   */\n      mstore\n        /* \"#utility.yul\":20351:20355   */\n      0x20\n        /* \"#utility.yul\":20348:20349   */\n      0x00\n        /* \"#utility.yul\":20338:20356   */\n      keccak256\n        /* \"#utility.yul\":20330:20356   */\n      swap1\n      pop\n        /* \"#utility.yul\":20222:20363   */\n      swap2\n      swap1\n      pop\n      jump\t// out\n        /* \"#utility.yul\":20369:20462   */\n    tag_202:\n        /* \"#utility.yul\":20406:20412   */\n      0x00\n        /* \"#utility.yul\":20453:20455   */\n      0x20\n        /* \"#utility.yul\":20448:20450   */\n      0x1f\n        /* \"#utility.yul\":20441:20446   */\n      dup4\n        /* \"#utility.yul\":20437:20451   */\n      add\n        /* \"#utility.yul\":20433:20456   */\n      div\n        /* \"#utility.yul\":20423:20456   */\n      swap1\n      pop\n        /* \"#utility.yul\":20369:20462   */\n      swap2\n      swap1\n      pop\n      jump\t// out\n        /* \"#utility.yul\":20468:20575   */\n    tag_203:\n        /* \"#utility.yul\":20512:20520   */\n      0x00\n        /* \"#utility.yul\":20562:20567   */\n      dup3\n        /* \"#utility.yul\":20556:20560   */\n      dup3\n        /* \"#utility.yul\":20552:20568   */\n      shl\n        /* \"#utility.yul\":20531:20568   */\n      swap1\n      pop\n        /* \"#utility.yul\":20468:20575   */\n      swap3\n      swap2\n      pop\n      pop\n      jump\t// out\n        /* \"#utility.yul\":20581:20974   */\n    tag_204:\n        /* \"#utility.yul\":20650:20656   */\n      0x00\n        /* \"#utility.yul\":20700:20701   */\n      0x08\n        /* \"#utility.yul\":20688:20698   */\n      dup4\n        /* \"#utility.yul\":20684:20702   */\n      mul\n        /* \"#utility.yul\":20723:20820   */\n      tag_413\n        /* \"#utility.yul\":20753:20819   */\n      0xffffffffffffffffffffffffffffffffffffffffffffffffffffffffffffffff\n        /* \"#utility.yul\":20742:20751   */\n      dup3\n        /* \"#utility.yul\":20723:20820   */\n      tag_203\n      jump\t// in\n    tag_413:\n        /* \"#utility.yul\":20841:20880   */\n      tag_414\n        /* \"#utility.yul\":20871:20879   */\n      dup7\n        /* \"#utility.yul\":20860:20869   */\n      dup4\n        /* \"#utility.yul\":20841:20880   */\n      tag_203\n      jump\t// in\n    tag_414:\n        /* \"#utility.yul\":20829:20880   */\n      swap6\n      pop\n        /* \"#utility.yul\":20913:20917   */\n      dup1\n        /* \"#utility.yul\":20909:20918   */\n      not\n        /* \"#utility.yul\":20902:20907   */\n      dup5\n        /* \"#utility.yul\":20898:20919   */\n      and\n        /* \"#utility.yul\":20889:20919   */\n      swap4\n      pop\n        /* \"#utility.yul\":20962:20966   */\n      dup1\n        /* \"#utility.yul\":20952:20960   */\n      dup7\n        /* \"#utility.yul\":20948:20967   */\n      and\n        /* \"#utility.yul\":20941:20946   */\n      dup5\n        /* \"#utility.yul\":20938:20968   */\n      or\n        /* \"#utility.yul\":20928:20968   */\n      swap3\n      pop\n        /* \"#utility.yul\":20657:20974   */\n      pop\n      pop\n        /* \"#utility.yul\":20581:20974   */\n      swap4\n      swap3\n      pop\n      pop\n      pop\n      jump\t// out\n        /* \"#utility.yul\":20980:21040   */\n    tag_205:\n        /* \"#utility.yul\":21008:21011   */\n      0x00\n        /* \"#utility.yul\":21029:21034   */\n      dup2\n        /* \"#utility.yul\":21022:21034   */\n      swap1\n      pop\n        /* \"#utility.yul\":20980:21040   */\n      swap2\n      swap1\n      pop\n      jump\t// out\n        /* \"#utility.yul\":21046:21188   */\n    tag_206:\n        /* \"#utility.yul\":21096:21105   */\n      0x00\n        /* \"#utility.yul\":21129:21182   */\n      tag_417\n        /* \"#utility.yul\":21147:21181   */\n      tag_418\n        /* \"#utility.yul\":21156:21180   */\n      tag_419\n        /* \"#utility.yul\":21174:21179   */\n      dup5\n        /* \"#utility.yul\":21156:21180   */\n      tag_151\n      jump\t// in\n    tag_419:\n        /* \"#utility.yul\":21147:21181   */\n      tag_205\n      jump\t// in\n    tag_418:\n        /* \"#utility.yul\":21129:21182   */\n      tag_151\n      jump\t// in\n    tag_417:\n        /* \"#utility.yul\":21116:21182   */\n      swap1\n      pop\n        /* \"#utility.yul\":21046:21188   */\n      swap2\n      swap1\n      pop\n      jump\t// out\n        /* \"#utility.yul\":21194:21269   */\n    tag_207:\n        /* \"#utility.yul\":21237:21240   */\n      0x00\n        /* \"#utility.yul\":21258:21263   */\n      dup2\n        /* \"#utility.yul\":21251:21263   */\n      swap1\n      pop\n        /* \"#utility.yul\":21194:21269   */\n      swap2\n      swap1\n      pop\n      jump\t// out\n        /* \"#utility.yul\":21275:21544   */\n    tag_208:\n        /* \"#utility.yul\":21385:21424   */\n      tag_422\n        /* \"#utility.yul\":21416:21423   */\n      dup4\n        /* \"#utility.yul\":21385:21424   */\n      tag_206\n      jump\t// in\n    tag_422:\n        /* \"#utility.yul\":21446:21537   */\n      tag_423\n        /* \"#utility.yul\":21495:21536   */\n      tag_424\n        /* \"#utility.yul\":21519:21535   */\n      dup3\n        /* \"#utility.yul\":21495:21536   */\n      tag_207\n      jump\t// in\n    tag_424:\n        /* \"#utility.yul\":21487:21493   */\n      dup5\n        /* \"#utility.yul\":21480:21484   */\n      dup5\n        /* \"#utility.yul\":21474:21485   */\n      sload\n        /* \"#utility.yul\":21446:21537   */\n      tag_204\n      jump\t// in\n    tag_423:\n        /* \"#utility.yul\":21440:21444   */\n      dup3\n        /* \"#utility.yul\":21433:21538   */\n      sstore\n        /* \"#utility.yul\":21351:21544   */\n      pop\n        /* \"#utility.yul\":21275:21544   */\n      pop\n      pop\n      pop\n      jump\t// out\n        /* \"#utility.yul\":21550:21623   */\n    tag_209:\n        /* \"#utility.yul\":21595:21598   */\n      0x00\n        /* \"#utility.yul\":21550:21623   */\n      swap1\n      jump\t// out\n        /* \"#utility.yul\":21629:21818   */\n    tag_210:\n        /* \"#utility.yul\":21706:21738   */\n      tag_427\n      tag_209\n      jump\t// in\n    tag_427:\n        /* \"#utility.yul\":21747:21812   */\n      tag_428\n        /* \"#utility.yul\":21805:21811   */\n      dup2\n        /* \"#utility.yul\":21797:21803   */\n      dup5\n        /* \"#utility.yul\":21791:21795   */\n      dup5\n        /* \"#utility.yul\":21747:21812   */\n      tag_208\n      jump\t// in\n    tag_428:\n        /* \"#utility.yul\":21682:21818   */\n      pop\n        /* \"#utility.yul\":21629:21818   */\n      pop\n      pop\n      jump\t// out\n        /* \"#utility.yul\":21824:22010   */\n    tag_211:\n        /* \"#utility.yul\":21884:22004   */\n    tag_430:\n        /* \"#utility.yul\":21901:21904   */\n      dup2\n        /* \"#utility.yul\":21894:21899   */\n      dup2\n        /* \"#utility.yul\":21891:21905   */\n      lt\n        /* \"#utility.yul\":21884:22004   */\n      iszero\n      tag_432\n      jumpi\n        /* \"#utility.yul\":21955:21994   */\n      tag_433\n        /* \"#utility.yul\":21992:21993   */\n      0x00\n        /* \"#utility.yul\":21985:21990   */\n      dup3\n        /* \"#utility.yul\":21955:21994   */\n      tag_210\n      jump\t// in\n    tag_433:\n        /* \"#utility.yul\":21928:21929   */\n      0x01\n        /* \"#utility.yul\":21921:21926   */\n      dup2\n        /* \"#utility.yul\":21917:21930   */\n      add\n        /* \"#utility.yul\":21908:21930   */\n      swap1\n      pop\n        /* \"#utility.yul\":21884:22004   */\n      jump(tag_430)\n    tag_432:\n        /* \"#utility.yul\":21824:22010   */\n      pop\n      pop\n      jump\t// out\n        /* \"#utility.yul\":22016:22559   */\n    tag_212:\n        /* \"#utility.yul\":22117:22119   */\n      0x1f\n        /* \"#utility.yul\":22112:22115   */\n      dup3\n        /* \"#utility.yul\":22109:22120   */\n      gt\n        /* \"#utility.yul\":22106:22552   */\n      iszero\n      tag_435\n      jumpi\n        /* \"#utility.yul\":22151:22189   */\n      tag_436\n        /* \"#utility.yul\":22183:22188   */\n      dup2\n        /* \"#utility.yul\":22151:22189   */\n      tag_201\n      jump\t// in\n    tag_436:\n        /* \"#utility.yul\":22235:22264   */\n      tag_437\n        /* \"#utility.yul\":22253:22263   */\n      dup5\n        /* \"#utility.yul\":22235:22264   */\n      tag_202\n      jump\t// in\n    tag_437:\n        /* \"#utility.yul\":22225:22233   */\n      dup2\n        /* \"#utility.yul\":22221:22265   */\n      add\n        /* \"#utility.yul\":22418:22420   */\n      0x20\n        /* \"#utility.yul\":22406:22416   */\n      dup6\n        /* \"#utility.yul\":22403:22421   */\n      lt\n        /* \"#utility.yul\":22400:22449   */\n      iszero\n      tag_438\n      jumpi\n        /* \"#utility.yul\":22439:22447   */\n      dup2\n        /* \"#utility.yul\":22424:22447   */\n      swap1\n      pop\n        /* \"#utility.yul\":22400:22449   */\n    tag_438:\n        /* \"#utility.yul\":22462:22542   */\n      tag_439\n        /* \"#utility.yul\":22518:22540   */\n      tag_440\n        /* \"#utility.yul\":22536:22539   */\n      dup6\n        /* \"#utility.yul\":22518:22540   */\n      tag_202\n      jump\t// in\n    tag_440:\n        /* \"#utility.yul\":22508:22516   */\n      dup4\n        /* \"#utility.yul\":22504:22541   */\n      add\n        /* \"#utility.yul\":22491:22502   */\n      dup3\n        /* \"#utility.yul\":22462:22542   */\n      tag_211\n      jump\t// in\n    tag_439:\n        /* \"#utility.yul\":22121:22552   */\n      pop\n      pop\n        /* \"#utility.yul\":22106:22552   */\n    tag_435:\n        /* \"#utility.yul\":22016:22559   */\n      pop\n      pop\n      pop\n      jump\t// out\n        /* \"#utility.yul\":22565:22682   */\n    tag_213:\n        /* \"#utility.yul\":22619:22627   */\n      0x00\n        /* \"#utility.yul\":22669:22674   */\n      dup3\n        /* \"#utility.yul\":22663:22667   */\n      dup3\n        /* \"#utility.yul\":22659:22675   */\n      shr\n        /* \"#utility.yul\":22638:22675   */\n      swap1\n      pop\n        /* \"#utility.yul\":22565:22682   */\n      swap3\n      swap2\n      pop\n      pop\n      jump\t// out\n        /* \"#utility.yul\":22688:22857   */\n    tag_214:\n        /* \"#utility.yul\":22732:22738   */\n      0x00\n        /* \"#utility.yul\":22765:22816   */\n      tag_443\n        /* \"#utility.yul\":22813:22814   */\n      0x00\n        /* \"#utility.yul\":22809:22815   */\n      not\n        /* \"#utility.yul\":22801:22806   */\n      dup5\n        /* \"#utility.yul\":22798:22799   */\n      0x08\n        /* \"#utility.yul\":22794:22807   */\n      mul\n        /* \"#utility.yul\":22765:22816   */\n      tag_213\n      jump\t// in\n    tag_443:\n        /* \"#utility.yul\":22761:22817   */\n      not\n        /* \"#utility.yul\":22846:22850   */\n      dup1\n        /* \"#utility.yul\":22840:22844   */\n      dup4\n        /* \"#utility.yul\":22836:22851   */\n      and\n        /* \"#utility.yul\":22826:22851   */\n      swap2\n      pop\n        /* \"#utility.yul\":22739:22857   */\n      pop\n        /* \"#utility.yul\":22688:22857   */\n      swap3\n      swap2\n      pop\n      pop\n      jump\t// out\n        /* \"#utility.yul\":22862:23157   */\n    tag_215:\n        /* \"#utility.yul\":22938:22942   */\n      0x00\n        /* \"#utility.yul\":23084:23113   */\n      tag_445\n        /* \"#utility.yul\":23109:23112   */\n      dup4\n        /* \"#utility.yul\":23103:23107   */\n      dup4\n        /* \"#utility.yul\":23084:23113   */\n      tag_214\n      jump\t// in\n    tag_445:\n        /* \"#utility.yul\":23076:23113   */\n      swap2\n      pop\n        /* \"#utility.yul\":23146:23149   */\n      dup3\n        /* \"#utility.yul\":23143:23144   */\n      0x02\n        /* \"#utility.yul\":23139:23150   */\n      mul\n        /* \"#utility.yul\":23133:23137   */\n      dup3\n        /* \"#utility.yul\":23130:23151   */\n      or\n        /* \"#utility.yul\":23122:23151   */\n      swap1\n      pop\n        /* \"#utility.yul\":22862:23157   */\n      swap3\n      swap2\n      pop\n      pop\n      jump\t// out\n        /* \"#utility.yul\":23162:24557   */\n    tag_126:\n        /* \"#utility.yul\":23279:23316   */\n      tag_447\n        /* \"#utility.yul\":23312:23315   */\n      dup3\n        /* \"#utility.yul\":23279:23316   */\n      tag_158\n      jump\t// in\n    tag_447:\n        /* \"#utility.yul\":23381:23399   */\n      0xffffffffffffffff\n        /* \"#utility.yul\":23373:23379   */\n      dup2\n        /* \"#utility.yul\":23370:23400   */\n      gt\n        /* \"#utility.yul\":23367:23423   */\n      iszero\n      tag_448\n      jumpi\n        /* \"#utility.yul\":23403:23421   */\n      tag_449\n      tag_172\n      jump\t// in\n    tag_449:\n        /* \"#utility.yul\":23367:23423   */\n    tag_448:\n        /* \"#utility.yul\":23447:23485   */\n      tag_450\n        /* \"#utility.yul\":23479:23483   */\n      dup3\n        /* \"#utility.yul\":23473:23484   */\n      sload\n        /* \"#utility.yul\":23447:23485   */\n      tag_75\n      jump\t// in\n    tag_450:\n        /* \"#utility.yul\":23532:23599   */\n      tag_451\n        /* \"#utility.yul\":23592:23598   */\n      dup3\n        /* \"#utility.yul\":23584:23590   */\n      dup3\n        /* \"#utility.yul\":23578:23582   */\n      dup6\n        /* \"#utility.yul\":23532:23599   */\n      tag_212\n      jump\t// in\n    tag_451:\n        /* \"#utility.yul\":23626:23627   */\n      0x00\n        /* \"#utility.yul\":23650:23654   */\n      0x20\n        /* \"#utility.yul\":23637:23654   */\n      swap1\n      pop\n        /* \"#utility.yul\":23682:23684   */\n      0x1f\n        /* \"#utility.yul\":23674:23680   */\n      dup4\n        /* \"#utility.yul\":23671:23685   */\n      gt\n        /* \"#utility.yul\":23699:23700   */\n      0x01\n        /* \"#utility.yul\":23694:24312   */\n      dup2\n      eq\n      tag_453\n      jumpi\n        /* \"#utility.yul\":24356:24357   */\n      0x00\n        /* \"#utility.yul\":24373:24379   */\n      dup5\n        /* \"#utility.yul\":24370:24447   */\n      iszero\n      tag_454\n      jumpi\n        /* \"#utility.yul\":24422:24431   */\n      dup3\n        /* \"#utility.yul\":24417:24420   */\n      dup8\n        /* \"#utility.yul\":24413:24432   */\n      add\n        /* \"#utility.yul\":24407:24433   */\n      mload\n        /* \"#utility.yul\":24398:24433   */\n      swap1\n      pop\n        /* \"#utility.yul\":24370:24447   */\n    tag_454:\n        /* \"#utility.yul\":24473:24540   */\n      tag_455\n        /* \"#utility.yul\":24533:24539   */\n      dup6\n        /* \"#utility.yul\":24526:24531   */\n      dup3\n        /* \"#utility.yul\":24473:24540   */\n      tag_215\n      jump\t// in\n    tag_455:\n        /* \"#utility.yul\":24467:24471   */\n      dup7\n        /* \"#utility.yul\":24460:24541   */\n      sstore\n        /* \"#utility.yul\":24329:24551   */\n      pop\n        /* \"#utility.yul\":23664:24551   */\n      jump(tag_452)\n        /* \"#utility.yul\":23694:24312   */\n    tag_453:\n        /* \"#utility.yul\":23746:23750   */\n      0x1f\n        /* \"#utility.yul\":23742:23751   */\n      not\n        /* \"#utility.yul\":23734:23740   */\n      dup5\n        /* \"#utility.yul\":23730:23752   */\n      and\n        /* \"#utility.yul\":23780:23817   */\n      tag_456\n        /* \"#utility.yul\":23812:23816   */\n      dup7\n        /* \"#utility.yul\":23780:23817   */\n      tag_201\n      jump\t// in\n    tag_456:\n        /* \"#utility.yul\":23839:23840   */\n      0x00\n        /* \"#utility.yul\":23853:24061   */\n    tag_457:\n        /* \"#utility.yul\":23867:23874   */\n      dup3\n        /* \"#utility.yul\":23864:23865   */\n      dup2\n        /* \"#utility.yul\":23861:23875   */\n      lt\n        /* \"#utility.yul\":23853:24061   */\n      iszero\n      tag_459\n      jumpi\n        /* \"#utility.yul\":23946:23955   */\n      dup5\n        /* \"#utility.yul\":23941:23944   */\n      dup10\n        /* \"#utility.yul\":23937:23956   */\n      add\n        /* \"#utility.yul\":23931:23957   */\n      mload\n        /* \"#utility.yul\":23923:23929   */\n      dup3\n        /* \"#utility.yul\":23916:23958   */\n      sstore\n        /* \"#utility.yul\":23997:23998   */\n      0x01\n        /* \"#utility.yul\":23989:23995   */\n      dup3\n        /* \"#utility.yul\":23985:23999   */\n      add\n        /* \"#utility.yul\":23975:23999   */\n      swap2\n      pop\n        /* \"#utility.yul\":24044:24046   */\n      0x20\n        /* \"#utility.yul\":24033:24042   */\n      dup6\n        /* \"#utility.yul\":24029:24047   */\n      add\n        /* \"#utility.yul\":24016:24047   */\n      swap5\n      pop\n        /* \"#utility.yul\":23890:23894   */\n      0x20\n        /* \"#utility.yul\":23887:23888   */\n      dup2\n        /* \"#utility.yul\":23883:23895   */\n      add\n        /* \"#utility.yul\":23878:23895   */\n      swap1\n      pop\n        /* \"#utility.yul\":23853:24061   */\n      jump(tag_457)\n    tag_459:\n        /* \"#utility.yul\":24089:24095   */\n      dup7\n        /* \"#utility.yul\":24080:24087   */\n      dup4\n        /* \"#utility.yul\":24077:24096   */\n      lt\n        /* \"#utility.yul\":24074:24253   */\n      iszero\n      tag_460\n      jumpi\n        /* \"#utility.yul\":24147:24156   */\n      dup5\n        /* \"#utility.yul\":24142:24145   */\n      dup10\n        /* \"#utility.yul\":24138:24157   */\n      add\n        /* \"#utility.yul\":24132:24158   */\n      mload\n        /* \"#utility.yul\":24190:24238   */\n      tag_461\n        /* \"#utility.yul\":24232:24236   */\n      0x1f\n        /* \"#utility.yul\":24224:24230   */\n      dup10\n        /* \"#utility.yul\":24220:24237   */\n      and\n        /* \"#utility.yul\":24209:24218   */\n      dup3\n        /* \"#utility.yul\":24190:24238   */\n      tag_214\n      jump\t// in\n    tag_461:\n        /* \"#utility.yul\":24182:24188   */\n      dup4\n        /* \"#utility.yul\":24175:24239   */\n      sstore\n        /* \"#utility.yul\":24097:24253   */\n      pop\n        /* \"#utility.yul\":24074:24253   */\n    tag_460:\n        /* \"#utility.yul\":24299:24300   */\n      0x01\n        /* \"#utility.yul\":24295:24296   */\n      0x02\n        /* \"#utility.yul\":24287:24293   */\n      dup9\n        /* \"#utility.yul\":24283:24297   */\n      mul\n        /* \"#utility.yul\":24279:24301   */\n      add\n        /* \"#utility.yul\":24273:24277   */\n      dup9\n        /* \"#utility.yul\":24266:24302   */\n      sstore\n        /* \"#utility.yul\":23701:24312   */\n      pop\n      pop\n      pop\n        /* \"#utility.yul\":23664:24551   */\n    tag_452:\n      pop\n        /* \"#utility.yul\":23254:24557   */\n      pop\n      pop\n      pop\n        /* \"#utility.yul\":23162:24557   */\n      pop\n      pop\n      jump\t// out\n        /* \"#utility.yul\":24563:25096   */\n    tag_128:\n        /* \"#utility.yul\":24732:24736   */\n      0x00\n        /* \"#utility.yul\":24770:24772   */\n      0x60\n        /* \"#utility.yul\":24759:24768   */\n      dup3\n        /* \"#utility.yul\":24755:24773   */\n      add\n        /* \"#utility.yul\":24747:24773   */\n      swap1\n      pop\n        /* \"#utility.yul\":24783:24854   */\n      tag_463\n        /* \"#utility.yul\":24851:24852   */\n      0x00\n        /* \"#utility.yul\":24840:24849   */\n      dup4\n        /* \"#utility.yul\":24836:24853   */\n      add\n        /* \"#utility.yul\":24827:24833   */\n      dup7\n        /* \"#utility.yul\":24783:24854   */\n      tag_152\n      jump\t// in\n    tag_463:\n        /* \"#utility.yul\":24901:24910   */\n      dup2\n        /* \"#utility.yul\":24895:24899   */\n      dup2\n        /* \"#utility.yul\":24891:24911   */\n      sub\n        /* \"#utility.yul\":24886:24888   */\n      0x20\n        /* \"#utility.yul\":24875:24884   */\n      dup4\n        /* \"#utility.yul\":24871:24889   */\n      add\n        /* \"#utility.yul\":24864:24912   */\n      mstore\n        /* \"#utility.yul\":24929:25007   */\n      tag_464\n        /* \"#utility.yul\":25002:25006   */\n      dup2\n        /* \"#utility.yul\":24993:24999   */\n      dup6\n        /* \"#utility.yul\":24929:25007   */\n      tag_162\n      jump\t// in\n    tag_464:\n        /* \"#utility.yul\":24921:25007   */\n      swap1\n      pop\n        /* \"#utility.yul\":25017:25089   */\n      tag_465\n        /* \"#utility.yul\":25085:25087   */\n      0x40\n        /* \"#utility.yul\":25074:25083   */\n      dup4\n        /* \"#utility.yul\":25070:25088   */\n      add\n        /* \"#utility.yul\":25061:25067   */\n      dup5\n        /* \"#utility.yul\":25017:25089   */\n      tag_152\n      jump\t// in\n    tag_465:\n        /* \"#utility.yul\":24563:25096   */\n      swap5\n      swap4\n      pop\n      pop\n      pop\n      pop\n      jump\t// out\n        /* \"#utility.yul\":25102:25272   */\n    tag_216:\n        /* \"#utility.yul\":25242:25264   */\n      0x4c65617365206973206e6f74206163746976652e000000000000000000000000\n        /* \"#utility.yul\":25238:25239   */\n      0x00\n        /* \"#utility.yul\":25230:25236   */\n      dup3\n        /* \"#utility.yul\":25226:25240   */\n      add\n        /* \"#utility.yul\":25219:25265   */\n      mstore\n        /* \"#utility.yul\":25102:25272   */\n      pop\n      jump\t// out\n        /* \"#utility.yul\":25278:25644   */\n    tag_217:\n        /* \"#utility.yul\":25420:25423   */\n      0x00\n        /* \"#utility.yul\":25441:25508   */\n      tag_468\n        /* \"#utility.yul\":25505:25507   */\n      0x14\n        /* \"#utility.yul\":25500:25503   */\n      dup4\n        /* \"#utility.yul\":25441:25508   */\n      tag_159\n      jump\t// in\n    tag_468:\n        /* \"#utility.yul\":25434:25508   */\n      swap2\n      pop\n        /* \"#utility.yul\":25517:25610   */\n      tag_469\n        /* \"#utility.yul\":25606:25609   */\n      dup3\n        /* \"#utility.yul\":25517:25610   */\n      tag_216\n      jump\t// in\n    tag_469:\n        /* \"#utility.yul\":25635:25637   */\n      0x20\n        /* \"#utility.yul\":25630:25633   */\n      dup3\n        /* \"#utility.yul\":25626:25638   */\n      add\n        /* \"#utility.yul\":25619:25638   */\n      swap1\n      pop\n        /* \"#utility.yul\":25278:25644   */\n      swap2\n      swap1\n      pop\n      jump\t// out\n        /* \"#utility.yul\":25650:26069   */\n    tag_132:\n        /* \"#utility.yul\":25816:25820   */\n      0x00\n        /* \"#utility.yul\":25854:25856   */\n      0x20\n        /* \"#utility.yul\":25843:25852   */\n      dup3\n        /* \"#utility.yul\":25839:25857   */\n      add\n        /* \"#utility.yul\":25831:25857   */\n      swap1\n      pop\n        /* \"#utility.yul\":25903:25912   */\n      dup2\n        /* \"#utility.yul\":25897:25901   */\n      dup2\n        /* \"#utility.yul\":25893:25913   */\n      sub\n        /* \"#utility.yul\":25889:25890   */\n      0x00\n        /* \"#utility.yul\":25878:25887   */\n      dup4\n        /* \"#utility.yul\":25874:25891   */\n      add\n        /* \"#utility.yul\":25867:25914   */\n      mstore\n        /* \"#utility.yul\":25931:26062   */\n      tag_471\n        /* \"#utility.yul\":26057:26061   */\n      dup2\n        /* \"#utility.yul\":25931:26062   */\n      tag_217\n      jump\t// in\n    tag_471:\n        /* \"#utility.yul\":25923:26062   */\n      swap1\n      pop\n        /* \"#utility.yul\":25650:26069   */\n      swap2\n      swap1\n      pop\n      jump\t// out\n        /* \"#utility.yul\":26075:26254   */\n    tag_218:\n        /* \"#utility.yul\":26215:26246   */\n      0x4f6e6c79207468652074656e616e742063616e207061792072656e742e000000\n        /* \"#utility.yul\":26211:26212   */\n      0x00\n        /* \"#utility.yul\":26203:26209   */\n      dup3\n        /* \"#utility.yul\":26199:26213   */\n      add\n        /* \"#utility.yul\":26192:26247   */\n      mstore\n        /* \"#utility.yul\":26075:26254   */\n      pop\n      jump\t// out\n        /* \"#utility.yul\":26260:26626   */\n    tag_219:\n        /* \"#utility.yul\":26402:26405   */\n      0x00\n        /* \"#utility.yul\":26423:26490   */\n      tag_474\n        /* \"#utility.yul\":26487:26489   */\n      0x1d\n        /* \"#utility.yul\":26482:26485   */\n      dup4\n        /* \"#utility.yul\":26423:26490   */\n      tag_159\n      jump\t// in\n    tag_474:\n        /* \"#utility.yul\":26416:26490   */\n      swap2\n      pop\n        /* \"#utility.yul\":26499:26592   */\n      tag_475\n        /* \"#utility.yul\":26588:26591   */\n      dup3\n        /* \"#utility.yul\":26499:26592   */\n      tag_218\n      jump\t// in\n    tag_475:\n        /* \"#utility.yul\":26617:26619   */\n      0x20\n        /* \"#utility.yul\":26612:26615   */\n      dup3\n        /* \"#utility.yul\":26608:26620   */\n      add\n        /* \"#utility.yul\":26601:26620   */\n      swap1\n      pop\n        /* \"#utility.yul\":26260:26626   */\n      swap2\n      swap1\n      pop\n      jump\t// out\n        /* \"#utility.yul\":26632:27051   */\n    tag_135:\n        /* \"#utility.yul\":26798:26802   */\n      0x00\n        /* \"#utility.yul\":26836:26838   */\n      0x20\n        /* \"#utility.yul\":26825:26834   */\n      dup3\n        /* \"#utility.yul\":26821:26839   */\n      add\n        /* \"#utility.yul\":26813:26839   */\n      swap1\n      pop\n        /* \"#utility.yul\":26885:26894   */\n      dup2\n        /* \"#utility.yul\":26879:26883   */\n      dup2\n        /* \"#utility.yul\":26875:26895   */\n      sub\n        /* \"#utility.yul\":26871:26872   */\n      0x00\n        /* \"#utility.yul\":26860:26869   */\n      dup4\n        /* \"#utility.yul\":26856:26873   */\n      add\n        /* \"#utility.yul\":26849:26896   */\n      mstore\n        /* \"#utility.yul\":26913:27044   */\n      tag_477\n        /* \"#utility.yul\":27039:27043   */\n      dup2\n        /* \"#utility.yul\":26913:27044   */\n      tag_219\n      jump\t// in\n    tag_477:\n        /* \"#utility.yul\":26905:27044   */\n      swap1\n      pop\n        /* \"#utility.yul\":26632:27051   */\n      swap2\n      swap1\n      pop\n      jump\t// out\n        /* \"#utility.yul\":27057:27229   */\n    tag_220:\n        /* \"#utility.yul\":27197:27221   */\n      0x496e636f72726563742072656e7420616d6f756e742e00000000000000000000\n        /* \"#utility.yul\":27193:27194   */\n      0x00\n        /* \"#utility.yul\":27185:27191   */\n      dup3\n        /* \"#utility.yul\":27181:27195   */\n      add\n        /* \"#utility.yul\":27174:27222   */\n      mstore\n        /* \"#utility.yul\":27057:27229   */\n      pop\n      jump\t// out\n        /* \"#utility.yul\":27235:27601   */\n    tag_221:\n        /* \"#utility.yul\":27377:27380   */\n      0x00\n        /* \"#utility.yul\":27398:27465   */\n      tag_480\n        /* \"#utility.yul\":27462:27464   */\n      0x16\n        /* \"#utility.yul\":27457:27460   */\n      dup4\n        /* \"#utility.yul\":27398:27465   */\n      tag_159\n      jump\t// in\n    tag_480:\n        /* \"#utility.yul\":27391:27465   */\n      swap2\n      pop\n        /* \"#utility.yul\":27474:27567   */\n      tag_481\n        /* \"#utility.yul\":27563:27566   */\n      dup3\n        /* \"#utility.yul\":27474:27567   */\n      tag_220\n      jump\t// in\n    tag_481:\n        /* \"#utility.yul\":27592:27594   */\n      0x20\n        /* \"#utility.yul\":27587:27590   */\n      dup3\n        /* \"#utility.yul\":27583:27595   */\n      add\n        /* \"#utility.yul\":27576:27595   */\n      swap1\n      pop\n        /* \"#utility.yul\":27235:27601   */\n      swap2\n      swap1\n      pop\n      jump\t// out\n        /* \"#utility.yul\":27607:28026   */\n    tag_138:\n        /* \"#utility.yul\":27773:27777   */\n      0x00\n        /* \"#utility.yul\":27811:27813   */\n      0x20\n        /* \"#utility.yul\":27800:27809   */\n      dup3\n        /* \"#utility.yul\":27796:27814   */\n      add\n        /* \"#utility.yul\":27788:27814   */\n      swap1\n      pop\n        /* \"#utility.yul\":27860:27869   */\n      dup2\n        /* \"#utility.yul\":27854:27858   */\n      dup2\n        /* \"#utility.yul\":27850:27870   */\n      sub\n        /* \"#utility.yul\":27846:27847   */\n      0x00\n        /* \"#utility.yul\":27835:27844   */\n      dup4\n        /* \"#utility.yul\":27831:27848   */\n      add\n        /* \"#utility.yul\":27824:27871   */\n      mstore\n        /* \"#utility.yul\":27888:28019   */\n      tag_483\n        /* \"#utility.yul\":28014:28018   */\n      dup2\n        /* \"#utility.yul\":27888:28019   */\n      tag_221\n      jump\t// in\n    tag_483:\n        /* \"#utility.yul\":27880:28019   */\n      swap1\n      pop\n        /* \"#utility.yul\":27607:28026   */\n      swap2\n      swap1\n      pop\n      jump\t// out\n        /* \"#utility.yul\":28032:28200   */\n    tag_222:\n        /* \"#utility.yul\":28172:28192   */\n      0x4c656173652068617320657870697265642e0000000000000000000000000000\n        /* \"#utility.yul\":28168:28169   */\n      0x00\n        /* \"#utility.yul\":28160:28166   */\n      dup3\n        /* \"#utility.yul\":28156:28170   */\n      add\n        /* \"#utility.yul\":28149:28193   */\n      mstore\n        /* \"#utility.yul\":28032:28200   */\n      pop\n      jump\t// out\n        /* \"#utility.yul\":28206:28572   */\n    tag_223:\n        /* \"#utility.yul\":28348:28351   */\n      0x00\n        /* \"#utility.yul\":28369:28436   */\n      tag_486\n        /* \"#utility.yul\":28433:28435   */\n      0x12\n        /* \"#utility.yul\":28428:28431   */\n      dup4\n        /* \"#utility.yul\":28369:28436   */\n      tag_159\n      jump\t// in\n    tag_486:\n        /* \"#utility.yul\":28362:28436   */\n      swap2\n      pop\n        /* \"#utility.yul\":28445:28538   */\n      tag_487\n        /* \"#utility.yul\":28534:28537   */\n      dup3\n        /* \"#utility.yul\":28445:28538   */\n      tag_222\n      jump\t// in\n    tag_487:\n        /* \"#utility.yul\":28563:28565   */\n      0x20\n        /* \"#utility.yul\":28558:28561   */\n      dup3\n        /* \"#utility.yul\":28554:28566   */\n      add\n        /* \"#utility.yul\":28547:28566   */\n      swap1\n      pop\n        /* \"#utility.yul\":28206:28572   */\n      swap2\n      swap1\n      pop\n      jump\t// out\n        /* \"#utility.yul\":28578:28997   */\n    tag_141:\n        /* \"#utility.yul\":28744:28748   */\n      0x00\n        /* \"#utility.yul\":28782:28784   */\n      0x20\n        /* \"#utility.yul\":28771:28780   */\n      dup3\n        /* \"#utility.yul\":28767:28785   */\n      add\n        /* \"#utility.yul\":28759:28785   */\n      swap1\n      pop\n        /* \"#utility.yul\":28831:28840   */\n      dup2\n        /* \"#utility.yul\":28825:28829   */\n      dup2\n        /* \"#utility.yul\":28821:28841   */\n      sub\n        /* \"#utility.yul\":28817:28818   */\n      0x00\n        /* \"#utility.yul\":28806:28815   */\n      dup4\n        /* \"#utility.yul\":28802:28819   */\n      add\n        /* \"#utility.yul\":28795:28842   */\n      mstore\n        /* \"#utility.yul\":28859:28990   */\n      tag_489\n        /* \"#utility.yul\":28985:28989   */\n      dup2\n        /* \"#utility.yul\":28859:28990   */\n      tag_223\n      jump\t// in\n    tag_489:\n        /* \"#utility.yul\":28851:28990   */\n      swap1\n      pop\n        /* \"#utility.yul\":28578:28997   */\n      swap2\n      swap1\n      pop\n      jump\t// out\n        /* \"#utility.yul\":29003:29445   */\n    tag_145:\n        /* \"#utility.yul\":29152:29156   */\n      0x00\n        /* \"#utility.yul\":29190:29192   */\n      0x60\n        /* \"#utility.yul\":29179:29188   */\n      dup3\n        /* \"#utility.yul\":29175:29193   */\n      add\n        /* \"#utility.yul\":29167:29193   */\n      swap1\n      pop\n        /* \"#utility.yul\":29203:29274   */\n      tag_491\n        /* \"#utility.yul\":29271:29272   */\n      0x00\n        /* \"#utility.yul\":29260:29269   */\n      dup4\n        /* \"#utility.yul\":29256:29273   */\n      add\n        /* \"#utility.yul\":29247:29253   */\n      dup7\n        /* \"#utility.yul\":29203:29274   */\n      tag_152\n      jump\t// in\n    tag_491:\n        /* \"#utility.yul\":29284:29356   */\n      tag_492\n        /* \"#utility.yul\":29352:29354   */\n      0x20\n        /* \"#utility.yul\":29341:29350   */\n      dup4\n        /* \"#utility.yul\":29337:29355   */\n      add\n        /* \"#utility.yul\":29328:29334   */\n      dup6\n        /* \"#utility.yul\":29284:29356   */\n      tag_152\n      jump\t// in\n    tag_492:\n        /* \"#utility.yul\":29366:29438   */\n      tag_493\n        /* \"#utility.yul\":29434:29436   */\n      0x40\n        /* \"#utility.yul\":29423:29432   */\n      dup4\n        /* \"#utility.yul\":29419:29437   */\n      add\n        /* \"#utility.yul\":29410:29416   */\n      dup5\n        /* \"#utility.yul\":29366:29438   */\n      tag_152\n      jump\t// in\n    tag_493:\n        /* \"#utility.yul\":29003:29445   */\n      swap5\n      swap4\n      pop\n      pop\n      pop\n      pop\n      jump\t// out\n\n    auxdata: 0xa26469706673582212203c2b33db354185d496f46874d5f4021bc7a9eebcf8d3620402cd64e856afced464736f6c634300081a0033\n}\n",
				"bytecode": {
					"linkReferences": {},
					"object": "6080604052348015600e575f80fd5b50335f806101000a81548173ffffffffffffffffffffffffffffffffffffffff021916908373ffffffffffffffffffffffffffffffffffffffff160217905550611fa98061005b5f395ff3fe6080604052600436106100a6575f3560e01c80636fa830a6116100635780636fa830a6146101cd5780638927a106146101e9578063d89e1e1e14610229578063d9e8843f14610251578063f7b108081461026d578063f851a440146102ad576100a6565b80630b3bce20146100aa578063126dbe43146100d457806320d0f311146101135780632e8331fa1461013d57806357286c1f1461017d578063588e00a5146101a5575b5f80fd5b3480156100b5575f80fd5b506100be6102d7565b6040516100cb91906110ab565b60405180910390f35b3480156100df575f80fd5b506100fa60048036038101906100f591906110ff565b6102dd565b60405161010a94939291906111f3565b60405180910390f35b34801561011e575f80fd5b50610127610438565b60405161013491906110ab565b60405180910390f35b348015610148575f80fd5b50610163600480360381019061015e91906110ff565b61043e565b60405161017495949392919061123d565b60405180910390f35b348015610188575f80fd5b506101a3600480360381019061019e91906112b8565b61051a565b005b3480156101b0575f80fd5b506101cb60048036038101906101c691906110ff565b610762565b005b6101e760048036038101906101e291906110ff565b610937565b005b3480156101f4575f80fd5b5061020f600480360381019061020a91906110ff565b610ae4565b60405161022095949392919061123d565b60405180910390f35b348015610234575f80fd5b5061024f600480360381019061024a9190611483565b610b41565b005b61026b600480360381019061026691906110ff565b610d4c565b005b348015610278575f80fd5b50610293600480360381019061028e91906110ff565b610f8c565b6040516102a49594939291906114fe565b60405180910390f35b3480156102b8575f80fd5b506102c1611070565b6040516102ce9190611556565b60405180910390f35b60015481565b60605f805f8060035f8781526020019081526020015f206040518060a00160405290815f82015481526020016001820180546103189061159c565b80601f01602080910402602001604051908101604052809291908181526020018280546103449061159c565b801561038f5780601f106103665761010080835404028352916020019161038f565b820191905f5260205f20905b81548152906001019060200180831161037257829003601f168201915b5050505050815260200160028201548152602001600382015f9054906101000a900473ffffffffffffffffffffffffffffffffffffffff1673ffffffffffffffffffffffffffffffffffffffff1673ffffffffffffffffffffffffffffffffffffffff1681526020016003820160149054906101000a900460ff161515151581525050905080602001518160400151826060015183608001519450945094509450509193509193565b60025481565b5f805f805f8060045f8881526020019081526020015f206040518060a00160405290815f8201548152602001600182015f9054906101000a900473ffffffffffffffffffffffffffffffffffffffff1673ffffffffffffffffffffffffffffffffffffffff1673ffffffffffffffffffffffffffffffffffffffff1681526020016002820154815260200160038201548152602001600482015f9054906101000a900460ff1615151515815250509050805f01518160200151826040015183606001518460800151955095509550955095505091939590929450565b5f60035f8681526020019081526020015f2090503373ffffffffffffffffffffffffffffffffffffffff16816003015f9054906101000a900473ffffffffffffffffffffffffffffffffffffffff1673ffffffffffffffffffffffffffffffffffffffff16146105bf576040517f08c379a00000000000000000000000000000000000000000000000000000000081526004016105b69061163c565b60405180910390fd5b8060030160149054906101000a900460ff1615610611576040517f08c379a0000000000000000000000000000000000000000000000000000000008152600401610608906116ca565b60405180910390fd5b5f60025f81548092919061062490611715565b9190505590505f62278d008461063a919061175c565b42610645919061179d565b90506040518060a001604052808881526020018773ffffffffffffffffffffffffffffffffffffffff1681526020018681526020018281526020016001151581525060045f8481526020019081526020015f205f820151815f01556020820151816001015f6101000a81548173ffffffffffffffffffffffffffffffffffffffff021916908373ffffffffffffffffffffffffffffffffffffffff16021790555060408201518160020155606082015181600301556080820151816004015f6101000a81548160ff0219169083151502179055509050507fa4eadbdfa5ce26c0c157827060a5fa08928e1a5c9436db22dcef741116614fbd8288888860405161075194939291906117d0565b60405180910390a150505050505050565b5f60045f8381526020019081526020015f209050806004015f9054906101000a900460ff166107c6576040517f08c379a00000000000000000000000000000000000000000000000000000000081526004016107bd9061185d565b60405180910390fd5b5f8054906101000a900473ffffffffffffffffffffffffffffffffffffffff1673ffffffffffffffffffffffffffffffffffffffff163373ffffffffffffffffffffffffffffffffffffffff16148061086d5750806001015f9054906101000a900473ffffffffffffffffffffffffffffffffffffffff1673ffffffffffffffffffffffffffffffffffffffff163373ffffffffffffffffffffffffffffffffffffffff16145b806108d9575060035f825f015481526020019081526020015f206003015f9054906101000a900473ffffffffffffffffffffffffffffffffffffffff1673ffffffffffffffffffffffffffffffffffffffff163373ffffffffffffffffffffffffffffffffffffffff16145b610918576040517f08c379a000000000000000000000000000000000000000000000000000000000815260040161090f906118eb565b60405180910390fd5b5f816004015f6101000a81548160ff0219169083151502179055505050565b5f60035f8381526020019081526020015f2090508060030160149054906101000a900460ff1661099c576040517f08c379a000000000000000000000000000000000000000000000000000000000815260040161099390611953565b60405180910390fd5b806002015434146109e2576040517f08c379a00000000000000000000000000000000000000000000000000000000081526004016109d9906119bb565b60405180910390fd5b806003015f9054906101000a900473ffffffffffffffffffffffffffffffffffffffff1673ffffffffffffffffffffffffffffffffffffffff166108fc3490811502906040515f60405180830381858888f19350505050158015610a48573d5f803e3d5ffd5b5033816003015f6101000a81548173ffffffffffffffffffffffffffffffffffffffff021916908373ffffffffffffffffffffffffffffffffffffffff1602179055505f8160030160146101000a81548160ff0219169083151502179055507fb424abc5eb4b182f4334d7f8fa7c796e8d0b113fa9b68319cb6faefffbf0f18c8233604051610ad89291906119d9565b60405180910390a15050565b6004602052805f5260405f205f91509050805f015490806001015f9054906101000a900473ffffffffffffffffffffffffffffffffffffffff1690806002015490806003015490806004015f9054906101000a900460ff16905085565b5f8054906101000a900473ffffffffffffffffffffffffffffffffffffffff1673ffffffffffffffffffffffffffffffffffffffff163373ffffffffffffffffffffffffffffffffffffffff1614610bce576040517f08c379a0000000000000000000000000000000000000000000000000000000008152600401610bc590611a70565b60405180910390fd5b5f8211610c10576040517f08c379a0000000000000000000000000000000000000000000000000000000008152600401610c0790611ad8565b60405180910390fd5b5f60015f815480929190610c2390611715565b9190505590506040518060a001604052808281526020018581526020018481526020018373ffffffffffffffffffffffffffffffffffffffff1681526020016001151581525060035f8381526020019081526020015f205f820151815f01556020820151816001019081610c979190611c93565b50604082015181600201556060820151816003015f6101000a81548173ffffffffffffffffffffffffffffffffffffffff021916908373ffffffffffffffffffffffffffffffffffffffff16021790555060808201518160030160146101000a81548160ff0219169083151502179055509050507fb906962cbf3f3ecd490633cbf2018014c57107262f8d80f40a11ca0e8b31f2aa818585604051610d3e93929190611d62565b60405180910390a150505050565b5f60045f8381526020019081526020015f209050806004015f9054906101000a900460ff16610db0576040517f08c379a0000000000000000000000000000000000000000000000000000000008152600401610da790611de8565b60405180910390fd5b3373ffffffffffffffffffffffffffffffffffffffff16816001015f9054906101000a900473ffffffffffffffffffffffffffffffffffffffff1673ffffffffffffffffffffffffffffffffffffffff1614610e41576040517f08c379a0000000000000000000000000000000000000000000000000000000008152600401610e3890611e50565b60405180910390fd5b80600201543414610e87576040517f08c379a0000000000000000000000000000000000000000000000000000000008152600401610e7e90611eb8565b60405180910390fd5b8060030154421115610ece576040517f08c379a0000000000000000000000000000000000000000000000000000000008152600401610ec590611f20565b60405180910390fd5b5f60035f835f015481526020019081526020015f209050806003015f9054906101000a900473ffffffffffffffffffffffffffffffffffffffff1673ffffffffffffffffffffffffffffffffffffffff166108fc3490811502906040515f60405180830381858888f19350505050158015610f4b573d5f803e3d5ffd5b507fa62c35dfc0ff11d3713608ebcdc5c5d1952c7702620f2c46c22950f7b70d5797833442604051610f7f93929190611f3e565b60405180910390a1505050565b6003602052805f5260405f205f91509050805f015490806001018054610fb19061159c565b80601f0160208091040260200160405190810160405280929190818152602001828054610fdd9061159c565b80156110285780601f10610fff57610100808354040283529160200191611028565b820191905f5260205f20905b81548152906001019060200180831161100b57829003601f168201915b505050505090806002015490806003015f9054906101000a900473ffffffffffffffffffffffffffffffffffffffff16908060030160149054906101000a900460ff16905085565b5f8054906101000a900473ffffffffffffffffffffffffffffffffffffffff1681565b5f819050919050565b6110a581611093565b82525050565b5f6020820190506110be5f83018461109c565b92915050565b5f604051905090565b5f80fd5b5f80fd5b6110de81611093565b81146110e8575f80fd5b50565b5f813590506110f9816110d5565b92915050565b5f60208284031215611114576111136110cd565b5b5f611121848285016110eb565b91505092915050565b5f81519050919050565b5f82825260208201905092915050565b8281835e5f83830152505050565b5f601f19601f8301169050919050565b5f61116c8261112a565b6111768185611134565b9350611186818560208601611144565b61118f81611152565b840191505092915050565b5f73ffffffffffffffffffffffffffffffffffffffff82169050919050565b5f6111c38261119a565b9050919050565b6111d3816111b9565b82525050565b5f8115159050919050565b6111ed816111d9565b82525050565b5f6080820190508181035f83015261120b8187611162565b905061121a602083018661109c565b61122760408301856111ca565b61123460608301846111e4565b95945050505050565b5f60a0820190506112505f83018861109c565b61125d60208301876111ca565b61126a604083018661109c565b611277606083018561109c565b61128460808301846111e4565b9695505050505050565b611297816111b9565b81146112a1575f80fd5b50565b5f813590506112b28161128e565b92915050565b5f805f80608085870312156112d0576112cf6110cd565b5b5f6112dd878288016110eb565b94505060206112ee878288016112a4565b93505060406112ff878288016110eb565b9250506060611310878288016110eb565b91505092959194509250565b5f80fd5b5f80fd5b7f4e487b71000000000000000000000000000000000000000000000000000000005f52604160045260245ffd5b61135a82611152565b810181811067ffffffffffffffff8211171561137957611378611324565b5b80604052505050565b5f61138b6110c4565b90506113978282611351565b919050565b5f67ffffffffffffffff8211156113b6576113b5611324565b5b6113bf82611152565b9050602081019050919050565b828183375f83830152505050565b5f6113ec6113e78461139c565b611382565b90508281526020810184848401111561140857611407611320565b5b6114138482856113cc565b509392505050565b5f82601f83011261142f5761142e61131c565b5b813561143f8482602086016113da565b91505092915050565b5f6114528261119a565b9050919050565b61146281611448565b811461146c575f80fd5b50565b5f8135905061147d81611459565b92915050565b5f805f6060848603121561149a576114996110cd565b5b5f84013567ffffffffffffffff8111156114b7576114b66110d1565b5b6114c38682870161141b565b93505060206114d4868287016110eb565b92505060406114e58682870161146f565b9150509250925092565b6114f881611448565b82525050565b5f60a0820190506115115f83018861109c565b81810360208301526115238187611162565b9050611532604083018661109c565b61153f60608301856114ef565b61154c60808301846111e4565b9695505050505050565b5f6020820190506115695f8301846111ca565b92915050565b7f4e487b71000000000000000000000000000000000000000000000000000000005f52602260045260245ffd5b5f60028204905060018216806115b357607f821691505b6020821081036115c6576115c561156f565b5b50919050565b7f4f6e6c79207468652070726f7065727479206f776e65722063616e20637265615f8201527f74652061206c656173652e000000000000000000000000000000000000000000602082015250565b5f611626602b83611134565b9150611631826115cc565b604082019050919050565b5f6020820190508181035f8301526116538161161a565b9050919050565b7f43616e6e6f74206c6561736520612070726f70657274792074686174206973205f8201527f666f722073616c652e0000000000000000000000000000000000000000000000602082015250565b5f6116b4602983611134565b91506116bf8261165a565b604082019050919050565b5f6020820190508181035f8301526116e1816116a8565b9050919050565b7f4e487b71000000000000000000000000000000000000000000000000000000005f52601160045260245ffd5b5f61171f82611093565b91507fffffffffffffffffffffffffffffffffffffffffffffffffffffffffffffffff8203611751576117506116e8565b5b600182019050919050565b5f61176682611093565b915061177183611093565b925082820261177f81611093565b91508282048414831517611796576117956116e8565b5b5092915050565b5f6117a782611093565b91506117b283611093565b92508282019050808211156117ca576117c96116e8565b5b92915050565b5f6080820190506117e35f83018761109c565b6117f0602083018661109c565b6117fd60408301856111ca565b61180a606083018461109c565b95945050505050565b7f4c6561736520697320616c7265616479207465726d696e617465642e000000005f82015250565b5f611847601c83611134565b915061185282611813565b602082019050919050565b5f6020820190508181035f8301526118748161183b565b9050919050565b7f4f6e6c792061646d696e2c2074656e616e742c206f722070726f7065727479205f8201527f6f776e65722063616e207465726d696e61746520746865206c656173652e0000602082015250565b5f6118d5603e83611134565b91506118e08261187b565b604082019050919050565b5f6020820190508181035f830152611902816118c9565b9050919050565b7f50726f7065727479206973206e6f7420666f722073616c652e000000000000005f82015250565b5f61193d601983611134565b915061194882611909565b602082019050919050565b5f6020820190508181035f83015261196a81611931565b9050919050565b7f496e636f7272656374207061796d656e7420616d6f756e742e000000000000005f82015250565b5f6119a5601983611134565b91506119b082611971565b602082019050919050565b5f6020820190508181035f8301526119d281611999565b9050919050565b5f6040820190506119ec5f83018561109c565b6119f960208301846111ca565b9392505050565b7f4f6e6c79207468652061646d696e2063616e20706572666f726d2074686973205f8201527f616374696f6e2e00000000000000000000000000000000000000000000000000602082015250565b5f611a5a602783611134565b9150611a6582611a00565b604082019050919050565b5f6020820190508181035f830152611a8781611a4e565b9050919050565b7f5072696365206d7573742062652067726561746572207468616e207a65726f2e5f82015250565b5f611ac2602083611134565b9150611acd82611a8e565b602082019050919050565b5f6020820190508181035f830152611aef81611ab6565b9050919050565b5f819050815f5260205f209050919050565b5f6020601f8301049050919050565b5f82821b905092915050565b5f60088302611b527fffffffffffffffffffffffffffffffffffffffffffffffffffffffffffffffff82611b17565b611b5c8683611b17565b95508019841693508086168417925050509392505050565b5f819050919050565b5f611b97611b92611b8d84611093565b611b74565b611093565b9050919050565b5f819050919050565b611bb083611b7d565b611bc4611bbc82611b9e565b848454611b23565b825550505050565b5f90565b611bd8611bcc565b611be3818484611ba7565b505050565b5b81811015611c0657611bfb5f82611bd0565b600181019050611be9565b5050565b601f821115611c4b57611c1c81611af6565b611c2584611b08565b81016020851015611c34578190505b611c48611c4085611b08565b830182611be8565b50505b505050565b5f82821c905092915050565b5f611c6b5f1984600802611c50565b1980831691505092915050565b5f611c838383611c5c565b9150826002028217905092915050565b611c9c8261112a565b67ffffffffffffffff811115611cb557611cb4611324565b5b611cbf825461159c565b611cca828285611c0a565b5f60209050601f831160018114611cfb575f8415611ce9578287015190505b611cf38582611c78565b865550611d5a565b601f198416611d0986611af6565b5f5b82811015611d3057848901518255600182019150602085019450602081019050611d0b565b86831015611d4d5784890151611d49601f891682611c5c565b8355505b6001600288020188555050505b505050505050565b5f606082019050611d755f83018661109c565b8181036020830152611d878185611162565b9050611d96604083018461109c565b949350505050565b7f4c65617365206973206e6f74206163746976652e0000000000000000000000005f82015250565b5f611dd2601483611134565b9150611ddd82611d9e565b602082019050919050565b5f6020820190508181035f830152611dff81611dc6565b9050919050565b7f4f6e6c79207468652074656e616e742063616e207061792072656e742e0000005f82015250565b5f611e3a601d83611134565b9150611e4582611e06565b602082019050919050565b5f6020820190508181035f830152611e6781611e2e565b9050919050565b7f496e636f72726563742072656e7420616d6f756e742e000000000000000000005f82015250565b5f611ea2601683611134565b9150611ead82611e6e565b602082019050919050565b5f6020820190508181035f830152611ecf81611e96565b9050919050565b7f4c656173652068617320657870697265642e00000000000000000000000000005f82015250565b5f611f0a601283611134565b9150611f1582611ed6565b602082019050919050565b5f6020820190508181035f830152611f3781611efe565b9050919050565b5f606082019050611f515f83018661109c565b611f5e602083018561109c565b611f6b604083018461109c565b94935050505056fea26469706673582212203c2b33db354185d496f46874d5f4021bc7a9eebcf8d3620402cd64e856afced464736f6c634300081a0033",
					"opcodes": "PUSH1 0x80 PUSH1 0x40 MSTORE CALLVALUE DUP1 ISZERO PUSH1 0xE JUMPI PUSH0 DUP1 REVERT JUMPDEST POP CALLER PUSH0 DUP1 PUSH2 0x100 EXP DUP2 SLOAD DUP2 PUSH20 0xFFFFFFFFFFFFFFFFFFFFFFFFFFFFFFFFFFFFFFFF MUL NOT AND SWAP1 DUP4 PUSH20 0xFFFFFFFFFFFFFFFFFFFFFFFFFFFFFFFFFFFFFFFF AND MUL OR SWAP1 SSTORE POP PUSH2 0x1FA9 DUP1 PUSH2 0x5B PUSH0 CODECOPY PUSH0 RETURN INVALID PUSH1 0x80 PUSH1 0x40 MSTORE PUSH1 0x4 CALLDATASIZE LT PUSH2 0xA6 JUMPI PUSH0 CALLDATALOAD PUSH1 0xE0 SHR DUP1 PUSH4 0x6FA830A6 GT PUSH2 0x63 JUMPI DUP1 PUSH4 0x6FA830A6 EQ PUSH2 0x1CD JUMPI DUP1 PUSH4 0x8927A106 EQ PUSH2 0x1E9 JUMPI DUP1 PUSH4 0xD89E1E1E EQ PUSH2 0x229 JUMPI DUP1 PUSH4 0xD9E8843F EQ PUSH2 0x251 JUMPI DUP1 PUSH4 0xF7B10808 EQ PUSH2 0x26D JUMPI DUP1 PUSH4 0xF851A440 EQ PUSH2 0x2AD JUMPI PUSH2 0xA6 JUMP JUMPDEST DUP1 PUSH4 0xB3BCE20 EQ PUSH2 0xAA JUMPI DUP1 PUSH4 0x126DBE43 EQ PUSH2 0xD4 JUMPI DUP1 PUSH4 0x20D0F311 EQ PUSH2 0x113 JUMPI DUP1 PUSH4 0x2E8331FA EQ PUSH2 0x13D JUMPI DUP1 PUSH4 0x57286C1F EQ PUSH2 0x17D JUMPI DUP1 PUSH4 0x588E00A5 EQ PUSH2 0x1A5 JUMPI JUMPDEST PUSH0 DUP1 REVERT JUMPDEST CALLVALUE DUP1 ISZERO PUSH2 0xB5 JUMPI PUSH0 DUP1 REVERT JUMPDEST POP PUSH2 0xBE PUSH2 0x2D7 JUMP JUMPDEST PUSH1 0x40 MLOAD PUSH2 0xCB SWAP2 SWAP1 PUSH2 0x10AB JUMP JUMPDEST PUSH1 0x40 MLOAD DUP1 SWAP2 SUB SWAP1 RETURN JUMPDEST CALLVALUE DUP1 ISZERO PUSH2 0xDF JUMPI PUSH0 DUP1 REVERT JUMPDEST POP PUSH2 0xFA PUSH1 0x4 DUP1 CALLDATASIZE SUB DUP2 ADD SWAP1 PUSH2 0xF5 SWAP2 SWAP1 PUSH2 0x10FF JUMP JUMPDEST PUSH2 0x2DD JUMP JUMPDEST PUSH1 0x40 MLOAD PUSH2 0x10A SWAP5 SWAP4 SWAP3 SWAP2 SWAP1 PUSH2 0x11F3 JUMP JUMPDEST PUSH1 0x40 MLOAD DUP1 SWAP2 SUB SWAP1 RETURN JUMPDEST CALLVALUE DUP1 ISZERO PUSH2 0x11E JUMPI PUSH0 DUP1 REVERT JUMPDEST POP PUSH2 0x127 PUSH2 0x438 JUMP JUMPDEST PUSH1 0x40 MLOAD PUSH2 0x134 SWAP2 SWAP1 PUSH2 0x10AB JUMP JUMPDEST PUSH1 0x40 MLOAD DUP1 SWAP2 SUB SWAP1 RETURN JUMPDEST CALLVALUE DUP1 ISZERO PUSH2 0x148 JUMPI PUSH0 DUP1 REVERT JUMPDEST POP PUSH2 0x163 PUSH1 0x4 DUP1 CALLDATASIZE SUB DUP2 ADD SWAP1 PUSH2 0x15E SWAP2 SWAP1 PUSH2 0x10FF JUMP JUMPDEST PUSH2 0x43E JUMP JUMPDEST PUSH1 0x40 MLOAD PUSH2 0x174 SWAP6 SWAP5 SWAP4 SWAP3 SWAP2 SWAP1 PUSH2 0x123D JUMP JUMPDEST PUSH1 0x40 MLOAD DUP1 SWAP2 SUB SWAP1 RETURN JUMPDEST CALLVALUE DUP1 ISZERO PUSH2 0x188 JUMPI PUSH0 DUP1 REVERT JUMPDEST POP PUSH2 0x1A3 PUSH1 0x4 DUP1 CALLDATASIZE SUB DUP2 ADD SWAP1 PUSH2 0x19E SWAP2 SWAP1 PUSH2 0x12B8 JUMP JUMPDEST PUSH2 0x51A JUMP JUMPDEST STOP JUMPDEST CALLVALUE DUP1 ISZERO PUSH2 0x1B0 JUMPI PUSH0 DUP1 REVERT JUMPDEST POP PUSH2 0x1CB PUSH1 0x4 DUP1 CALLDATASIZE SUB DUP2 ADD SWAP1 PUSH2 0x1C6 SWAP2 SWAP1 PUSH2 0x10FF JUMP JUMPDEST PUSH2 0x762 JUMP JUMPDEST STOP JUMPDEST PUSH2 0x1E7 PUSH1 0x4 DUP1 CALLDATASIZE SUB DUP2 ADD SWAP1 PUSH2 0x1E2 SWAP2 SWAP1 PUSH2 0x10FF JUMP JUMPDEST PUSH2 0x937 JUMP JUMPDEST STOP JUMPDEST CALLVALUE DUP1 ISZERO PUSH2 0x1F4 JUMPI PUSH0 DUP1 REVERT JUMPDEST POP PUSH2 0x20F PUSH1 0x4 DUP1 CALLDATASIZE SUB DUP2 ADD SWAP1 PUSH2 0x20A SWAP2 SWAP1 PUSH2 0x10FF JUMP JUMPDEST PUSH2 0xAE4 JUMP JUMPDEST PUSH1 0x40 MLOAD PUSH2 0x220 SWAP6 SWAP5 SWAP4 SWAP3 SWAP2 SWAP1 PUSH2 0x123D JUMP JUMPDEST PUSH1 0x40 MLOAD DUP1 SWAP2 SUB SWAP1 RETURN JUMPDEST CALLVALUE DUP1 ISZERO PUSH2 0x234 JUMPI PUSH0 DUP1 REVERT JUMPDEST POP PUSH2 0x24F PUSH1 0x4 DUP1 CALLDATASIZE SUB DUP2 ADD SWAP1 PUSH2 0x24A SWAP2 SWAP1 PUSH2 0x1483 JUMP JUMPDEST PUSH2 0xB41 JUMP JUMPDEST STOP JUMPDEST PUSH2 0x26B PUSH1 0x4 DUP1 CALLDATASIZE SUB DUP2 ADD SWAP1 PUSH2 0x266 SWAP2 SWAP1 PUSH2 0x10FF JUMP JUMPDEST PUSH2 0xD4C JUMP JUMPDEST STOP JUMPDEST CALLVALUE DUP1 ISZERO PUSH2 0x278 JUMPI PUSH0 DUP1 REVERT JUMPDEST POP PUSH2 0x293 PUSH1 0x4 DUP1 CALLDATASIZE SUB DUP2 ADD SWAP1 PUSH2 0x28E SWAP2 SWAP1 PUSH2 0x10FF JUMP JUMPDEST PUSH2 0xF8C JUMP JUMPDEST PUSH1 0x40 MLOAD PUSH2 0x2A4 SWAP6 SWAP5 SWAP4 SWAP3 SWAP2 SWAP1 PUSH2 0x14FE JUMP JUMPDEST PUSH1 0x40 MLOAD DUP1 SWAP2 SUB SWAP1 RETURN JUMPDEST CALLVALUE DUP1 ISZERO PUSH2 0x2B8 JUMPI PUSH0 DUP1 REVERT JUMPDEST POP PUSH2 0x2C1 PUSH2 0x1070 JUMP JUMPDEST PUSH1 0x40 MLOAD PUSH2 0x2CE SWAP2 SWAP1 PUSH2 0x1556 JUMP JUMPDEST PUSH1 0x40 MLOAD DUP1 SWAP2 SUB SWAP1 RETURN JUMPDEST PUSH1 0x1 SLOAD DUP2 JUMP JUMPDEST PUSH1 0x60 PUSH0 DUP1 PUSH0 DUP1 PUSH1 0x3 PUSH0 DUP8 DUP2 MSTORE PUSH1 0x20 ADD SWAP1 DUP2 MSTORE PUSH1 0x20 ADD PUSH0 KECCAK256 PUSH1 0x40 MLOAD DUP1 PUSH1 0xA0 ADD PUSH1 0x40 MSTORE SWAP1 DUP2 PUSH0 DUP3 ADD SLOAD DUP2 MSTORE PUSH1 0x20 ADD PUSH1 0x1 DUP3 ADD DUP1 SLOAD PUSH2 0x318 SWAP1 PUSH2 0x159C JUMP JUMPDEST DUP1 PUSH1 0x1F ADD PUSH1 0x20 DUP1 SWAP2 DIV MUL PUSH1 0x20 ADD PUSH1 0x40 MLOAD SWAP1 DUP2 ADD PUSH1 0x40 MSTORE DUP1 SWAP3 SWAP2 SWAP1 DUP2 DUP2 MSTORE PUSH1 0x20 ADD DUP3 DUP1 SLOAD PUSH2 0x344 SWAP1 PUSH2 0x159C JUMP JUMPDEST DUP1 ISZERO PUSH2 0x38F JUMPI DUP1 PUSH1 0x1F LT PUSH2 0x366 JUMPI PUSH2 0x100 DUP1 DUP4 SLOAD DIV MUL DUP4 MSTORE SWAP2 PUSH1 0x20 ADD SWAP2 PUSH2 0x38F JUMP JUMPDEST DUP3 ADD SWAP2 SWAP1 PUSH0 MSTORE PUSH1 0x20 PUSH0 KECCAK256 SWAP1 JUMPDEST DUP2 SLOAD DUP2 MSTORE SWAP1 PUSH1 0x1 ADD SWAP1 PUSH1 0x20 ADD DUP1 DUP4 GT PUSH2 0x372 JUMPI DUP3 SWAP1 SUB PUSH1 0x1F AND DUP3 ADD SWAP2 JUMPDEST POP POP POP POP POP DUP2 MSTORE PUSH1 0x20 ADD PUSH1 0x2 DUP3 ADD SLOAD DUP2 MSTORE PUSH1 0x20 ADD PUSH1 0x3 DUP3 ADD PUSH0 SWAP1 SLOAD SWAP1 PUSH2 0x100 EXP SWAP1 DIV PUSH20 0xFFFFFFFFFFFFFFFFFFFFFFFFFFFFFFFFFFFFFFFF AND PUSH20 0xFFFFFFFFFFFFFFFFFFFFFFFFFFFFFFFFFFFFFFFF AND PUSH20 0xFFFFFFFFFFFFFFFFFFFFFFFFFFFFFFFFFFFFFFFF AND DUP2 MSTORE PUSH1 0x20 ADD PUSH1 0x3 DUP3 ADD PUSH1 0x14 SWAP1 SLOAD SWAP1 PUSH2 0x100 EXP SWAP1 DIV PUSH1 0xFF AND ISZERO ISZERO ISZERO ISZERO DUP2 MSTORE POP POP SWAP1 POP DUP1 PUSH1 0x20 ADD MLOAD DUP2 PUSH1 0x40 ADD MLOAD DUP3 PUSH1 0x60 ADD MLOAD DUP4 PUSH1 0x80 ADD MLOAD SWAP5 POP SWAP5 POP SWAP5 POP SWAP5 POP POP SWAP2 SWAP4 POP SWAP2 SWAP4 JUMP JUMPDEST PUSH1 0x2 SLOAD DUP2 JUMP JUMPDEST PUSH0 DUP1 PUSH0 DUP1 PUSH0 DUP1 PUSH1 0x4 PUSH0 DUP9 DUP2 MSTORE PUSH1 0x20 ADD SWAP1 DUP2 MSTORE PUSH1 0x20 ADD PUSH0 KECCAK256 PUSH1 0x40 MLOAD DUP1 PUSH1 0xA0 ADD PUSH1 0x40 MSTORE SWAP1 DUP2 PUSH0 DUP3 ADD SLOAD DUP2 MSTORE PUSH1 0x20 ADD PUSH1 0x1 DUP3 ADD PUSH0 SWAP1 SLOAD SWAP1 PUSH2 0x100 EXP SWAP1 DIV PUSH20 0xFFFFFFFFFFFFFFFFFFFFFFFFFFFFFFFFFFFFFFFF AND PUSH20 0xFFFFFFFFFFFFFFFFFFFFFFFFFFFFFFFFFFFFFFFF AND PUSH20 0xFFFFFFFFFFFFFFFFFFFFFFFFFFFFFFFFFFFFFFFF AND DUP2 MSTORE PUSH1 0x20 ADD PUSH1 0x2 DUP3 ADD SLOAD DUP2 MSTORE PUSH1 0x20 ADD PUSH1 0x3 DUP3 ADD SLOAD DUP2 MSTORE PUSH1 0x20 ADD PUSH1 0x4 DUP3 ADD PUSH0 SWAP1 SLOAD SWAP1 PUSH2 0x100 EXP SWAP1 DIV PUSH1 0xFF AND ISZERO ISZERO ISZERO ISZERO DUP2 MSTORE POP POP SWAP1 POP DUP1 PUSH0 ADD MLOAD DUP2 PUSH1 0x20 ADD MLOAD DUP3 PUSH1 0x40 ADD MLOAD DUP4 PUSH1 0x60 ADD MLOAD DUP5 PUSH1 0x80 ADD MLOAD SWAP6 POP SWAP6 POP SWAP6 POP SWAP6 POP SWAP6 POP POP SWAP2 SWAP4 SWAP6 SWAP1 SWAP3 SWAP5 POP JUMP JUMPDEST PUSH0 PUSH1 0x3 PUSH0 DUP7 DUP2 MSTORE PUSH1 0x20 ADD SWAP1 DUP2 MSTORE PUSH1 0x20 ADD PUSH0 KECCAK256 SWAP1 POP CALLER PUSH20 0xFFFFFFFFFFFFFFFFFFFFFFFFFFFFFFFFFFFFFFFF AND DUP2 PUSH1 0x3 ADD PUSH0 SWAP1 SLOAD SWAP1 PUSH2 0x100 EXP SWAP1 DIV PUSH20 0xFFFFFFFFFFFFFFFFFFFFFFFFFFFFFFFFFFFFFFFF AND PUSH20 0xFFFFFFFFFFFFFFFFFFFFFFFFFFFFFFFFFFFFFFFF AND EQ PUSH2 0x5BF JUMPI PUSH1 0x40 MLOAD PUSH32 0x8C379A000000000000000000000000000000000000000000000000000000000 DUP2 MSTORE PUSH1 0x4 ADD PUSH2 0x5B6 SWAP1 PUSH2 0x163C JUMP JUMPDEST PUSH1 0x40 MLOAD DUP1 SWAP2 SUB SWAP1 REVERT JUMPDEST DUP1 PUSH1 0x3 ADD PUSH1 0x14 SWAP1 SLOAD SWAP1 PUSH2 0x100 EXP SWAP1 DIV PUSH1 0xFF AND ISZERO PUSH2 0x611 JUMPI PUSH1 0x40 MLOAD PUSH32 0x8C379A000000000000000000000000000000000000000000000000000000000 DUP2 MSTORE PUSH1 0x4 ADD PUSH2 0x608 SWAP1 PUSH2 0x16CA JUMP JUMPDEST PUSH1 0x40 MLOAD DUP1 SWAP2 SUB SWAP1 REVERT JUMPDEST PUSH0 PUSH1 0x2 PUSH0 DUP2 SLOAD DUP1 SWAP3 SWAP2 SWAP1 PUSH2 0x624 SWAP1 PUSH2 0x1715 JUMP JUMPDEST SWAP2 SWAP1 POP SSTORE SWAP1 POP PUSH0 PUSH3 0x278D00 DUP5 PUSH2 0x63A SWAP2 SWAP1 PUSH2 0x175C JUMP JUMPDEST TIMESTAMP PUSH2 0x645 SWAP2 SWAP1 PUSH2 0x179D JUMP JUMPDEST SWAP1 POP PUSH1 0x40 MLOAD DUP1 PUSH1 0xA0 ADD PUSH1 0x40 MSTORE DUP1 DUP9 DUP2 MSTORE PUSH1 0x20 ADD DUP8 PUSH20 0xFFFFFFFFFFFFFFFFFFFFFFFFFFFFFFFFFFFFFFFF AND DUP2 MSTORE PUSH1 0x20 ADD DUP7 DUP2 MSTORE PUSH1 0x20 ADD DUP3 DUP2 MSTORE PUSH1 0x20 ADD PUSH1 0x1 ISZERO ISZERO DUP2 MSTORE POP PUSH1 0x4 PUSH0 DUP5 DUP2 MSTORE PUSH1 0x20 ADD SWAP1 DUP2 MSTORE PUSH1 0x20 ADD PUSH0 KECCAK256 PUSH0 DUP3 ADD MLOAD DUP2 PUSH0 ADD SSTORE PUSH1 0x20 DUP3 ADD MLOAD DUP2 PUSH1 0x1 ADD PUSH0 PUSH2 0x100 EXP DUP2 SLOAD DUP2 PUSH20 0xFFFFFFFFFFFFFFFFFFFFFFFFFFFFFFFFFFFFFFFF MUL NOT AND SWAP1 DUP4 PUSH20 0xFFFFFFFFFFFFFFFFFFFFFFFFFFFFFFFFFFFFFFFF AND MUL OR SWAP1 SSTORE POP PUSH1 0x40 DUP3 ADD MLOAD DUP2 PUSH1 0x2 ADD SSTORE PUSH1 0x60 DUP3 ADD MLOAD DUP2 PUSH1 0x3 ADD SSTORE PUSH1 0x80 DUP3 ADD MLOAD DUP2 PUSH1 0x4 ADD PUSH0 PUSH2 0x100 EXP DUP2 SLOAD DUP2 PUSH1 0xFF MUL NOT AND SWAP1 DUP4 ISZERO ISZERO MUL OR SWAP1 SSTORE POP SWAP1 POP POP PUSH32 0xA4EADBDFA5CE26C0C157827060A5FA08928E1A5C9436DB22DCEF741116614FBD DUP3 DUP9 DUP9 DUP9 PUSH1 0x40 MLOAD PUSH2 0x751 SWAP5 SWAP4 SWAP3 SWAP2 SWAP1 PUSH2 0x17D0 JUMP JUMPDEST PUSH1 0x40 MLOAD DUP1 SWAP2 SUB SWAP1 LOG1 POP POP POP POP POP POP POP JUMP JUMPDEST PUSH0 PUSH1 0x4 PUSH0 DUP4 DUP2 MSTORE PUSH1 0x20 ADD SWAP1 DUP2 MSTORE PUSH1 0x20 ADD PUSH0 KECCAK256 SWAP1 POP DUP1 PUSH1 0x4 ADD PUSH0 SWAP1 SLOAD SWAP1 PUSH2 0x100 EXP SWAP1 DIV PUSH1 0xFF AND PUSH2 0x7C6 JUMPI PUSH1 0x40 MLOAD PUSH32 0x8C379A000000000000000000000000000000000000000000000000000000000 DUP2 MSTORE PUSH1 0x4 ADD PUSH2 0x7BD SWAP1 PUSH2 0x185D JUMP JUMPDEST PUSH1 0x40 MLOAD DUP1 SWAP2 SUB SWAP1 REVERT JUMPDEST PUSH0 DUP1 SLOAD SWAP1 PUSH2 0x100 EXP SWAP1 DIV PUSH20 0xFFFFFFFFFFFFFFFFFFFFFFFFFFFFFFFFFFFFFFFF AND PUSH20 0xFFFFFFFFFFFFFFFFFFFFFFFFFFFFFFFFFFFFFFFF AND CALLER PUSH20 0xFFFFFFFFFFFFFFFFFFFFFFFFFFFFFFFFFFFFFFFF AND EQ DUP1 PUSH2 0x86D JUMPI POP DUP1 PUSH1 0x1 ADD PUSH0 SWAP1 SLOAD SWAP1 PUSH2 0x100 EXP SWAP1 DIV PUSH20 0xFFFFFFFFFFFFFFFFFFFFFFFFFFFFFFFFFFFFFFFF AND PUSH20 0xFFFFFFFFFFFFFFFFFFFFFFFFFFFFFFFFFFFFFFFF AND CALLER PUSH20 0xFFFFFFFFFFFFFFFFFFFFFFFFFFFFFFFFFFFFFFFF AND EQ JUMPDEST DUP1 PUSH2 0x8D9 JUMPI POP PUSH1 0x3 PUSH0 DUP3 PUSH0 ADD SLOAD DUP2 MSTORE PUSH1 0x20 ADD SWAP1 DUP2 MSTORE PUSH1 0x20 ADD PUSH0 KECCAK256 PUSH1 0x3 ADD PUSH0 SWAP1 SLOAD SWAP1 PUSH2 0x100 EXP SWAP1 DIV PUSH20 0xFFFFFFFFFFFFFFFFFFFFFFFFFFFFFFFFFFFFFFFF AND PUSH20 0xFFFFFFFFFFFFFFFFFFFFFFFFFFFFFFFFFFFFFFFF AND CALLER PUSH20 0xFFFFFFFFFFFFFFFFFFFFFFFFFFFFFFFFFFFFFFFF AND EQ JUMPDEST PUSH2 0x918 JUMPI PUSH1 0x40 MLOAD PUSH32 0x8C379A000000000000000000000000000000000000000000000000000000000 DUP2 MSTORE PUSH1 0x4 ADD PUSH2 0x90F SWAP1 PUSH2 0x18EB JUMP JUMPDEST PUSH1 0x40 MLOAD DUP1 SWAP2 SUB SWAP1 REVERT JUMPDEST PUSH0 DUP2 PUSH1 0x4 ADD PUSH0 PUSH2 0x100 EXP DUP2 SLOAD DUP2 PUSH1 0xFF MUL NOT AND SWAP1 DUP4 ISZERO ISZERO MUL OR SWAP1 SSTORE POP POP POP JUMP JUMPDEST PUSH0 PUSH1 0x3 PUSH0 DUP4 DUP2 MSTORE PUSH1 0x20 ADD SWAP1 DUP2 MSTORE PUSH1 0x20 ADD PUSH0 KECCAK256 SWAP1 POP DUP1 PUSH1 0x3 ADD PUSH1 0x14 SWAP1 SLOAD SWAP1 PUSH2 0x100 EXP SWAP1 DIV PUSH1 0xFF AND PUSH2 0x99C JUMPI PUSH1 0x40 MLOAD PUSH32 0x8C379A000000000000000000000000000000000000000000000000000000000 DUP2 MSTORE PUSH1 0x4 ADD PUSH2 0x993 SWAP1 PUSH2 0x1953 JUMP JUMPDEST PUSH1 0x40 MLOAD DUP1 SWAP2 SUB SWAP1 REVERT JUMPDEST DUP1 PUSH1 0x2 ADD SLOAD CALLVALUE EQ PUSH2 0x9E2 JUMPI PUSH1 0x40 MLOAD PUSH32 0x8C379A000000000000000000000000000000000000000000000000000000000 DUP2 MSTORE PUSH1 0x4 ADD PUSH2 0x9D9 SWAP1 PUSH2 0x19BB JUMP JUMPDEST PUSH1 0x40 MLOAD DUP1 SWAP2 SUB SWAP1 REVERT JUMPDEST DUP1 PUSH1 0x3 ADD PUSH0 SWAP1 SLOAD SWAP1 PUSH2 0x100 EXP SWAP1 DIV PUSH20 0xFFFFFFFFFFFFFFFFFFFFFFFFFFFFFFFFFFFFFFFF AND PUSH20 0xFFFFFFFFFFFFFFFFFFFFFFFFFFFFFFFFFFFFFFFF AND PUSH2 0x8FC CALLVALUE SWAP1 DUP2 ISZERO MUL SWAP1 PUSH1 0x40 MLOAD PUSH0 PUSH1 0x40 MLOAD DUP1 DUP4 SUB DUP2 DUP6 DUP9 DUP9 CALL SWAP4 POP POP POP POP ISZERO DUP1 ISZERO PUSH2 0xA48 JUMPI RETURNDATASIZE PUSH0 DUP1 RETURNDATACOPY RETURNDATASIZE PUSH0 REVERT JUMPDEST POP CALLER DUP2 PUSH1 0x3 ADD PUSH0 PUSH2 0x100 EXP DUP2 SLOAD DUP2 PUSH20 0xFFFFFFFFFFFFFFFFFFFFFFFFFFFFFFFFFFFFFFFF MUL NOT AND SWAP1 DUP4 PUSH20 0xFFFFFFFFFFFFFFFFFFFFFFFFFFFFFFFFFFFFFFFF AND MUL OR SWAP1 SSTORE POP PUSH0 DUP2 PUSH1 0x3 ADD PUSH1 0x14 PUSH2 0x100 EXP DUP2 SLOAD DUP2 PUSH1 0xFF MUL NOT AND SWAP1 DUP4 ISZERO ISZERO MUL OR SWAP1 SSTORE POP PUSH32 0xB424ABC5EB4B182F4334D7F8FA7C796E8D0B113FA9B68319CB6FAEFFFBF0F18C DUP3 CALLER PUSH1 0x40 MLOAD PUSH2 0xAD8 SWAP3 SWAP2 SWAP1 PUSH2 0x19D9 JUMP JUMPDEST PUSH1 0x40 MLOAD DUP1 SWAP2 SUB SWAP1 LOG1 POP POP JUMP JUMPDEST PUSH1 0x4 PUSH1 0x20 MSTORE DUP1 PUSH0 MSTORE PUSH1 0x40 PUSH0 KECCAK256 PUSH0 SWAP2 POP SWAP1 POP DUP1 PUSH0 ADD SLOAD SWAP1 DUP1 PUSH1 0x1 ADD PUSH0 SWAP1 SLOAD SWAP1 PUSH2 0x100 EXP SWAP1 DIV PUSH20 0xFFFFFFFFFFFFFFFFFFFFFFFFFFFFFFFFFFFFFFFF AND SWAP1 DUP1 PUSH1 0x2 ADD SLOAD SWAP1 DUP1 PUSH1 0x3 ADD SLOAD SWAP1 DUP1 PUSH1 0x4 ADD PUSH0 SWAP1 SLOAD SWAP1 PUSH2 0x100 EXP SWAP1 DIV PUSH1 0xFF AND SWAP1 POP DUP6 JUMP JUMPDEST PUSH0 DUP1 SLOAD SWAP1 PUSH2 0x100 EXP SWAP1 DIV PUSH20 0xFFFFFFFFFFFFFFFFFFFFFFFFFFFFFFFFFFFFFFFF AND PUSH20 0xFFFFFFFFFFFFFFFFFFFFFFFFFFFFFFFFFFFFFFFF AND CALLER PUSH20 0xFFFFFFFFFFFFFFFFFFFFFFFFFFFFFFFFFFFFFFFF AND EQ PUSH2 0xBCE JUMPI PUSH1 0x40 MLOAD PUSH32 0x8C379A000000000000000000000000000000000000000000000000000000000 DUP2 MSTORE PUSH1 0x4 ADD PUSH2 0xBC5 SWAP1 PUSH2 0x1A70 JUMP JUMPDEST PUSH1 0x40 MLOAD DUP1 SWAP2 SUB SWAP1 REVERT JUMPDEST PUSH0 DUP3 GT PUSH2 0xC10 JUMPI PUSH1 0x40 MLOAD PUSH32 0x8C379A000000000000000000000000000000000000000000000000000000000 DUP2 MSTORE PUSH1 0x4 ADD PUSH2 0xC07 SWAP1 PUSH2 0x1AD8 JUMP JUMPDEST PUSH1 0x40 MLOAD DUP1 SWAP2 SUB SWAP1 REVERT JUMPDEST PUSH0 PUSH1 0x1 PUSH0 DUP2 SLOAD DUP1 SWAP3 SWAP2 SWAP1 PUSH2 0xC23 SWAP1 PUSH2 0x1715 JUMP JUMPDEST SWAP2 SWAP1 POP SSTORE SWAP1 POP PUSH1 0x40 MLOAD DUP1 PUSH1 0xA0 ADD PUSH1 0x40 MSTORE DUP1 DUP3 DUP2 MSTORE PUSH1 0x20 ADD DUP6 DUP2 MSTORE PUSH1 0x20 ADD DUP5 DUP2 MSTORE PUSH1 0x20 ADD DUP4 PUSH20 0xFFFFFFFFFFFFFFFFFFFFFFFFFFFFFFFFFFFFFFFF AND DUP2 MSTORE PUSH1 0x20 ADD PUSH1 0x1 ISZERO ISZERO DUP2 MSTORE POP PUSH1 0x3 PUSH0 DUP4 DUP2 MSTORE PUSH1 0x20 ADD SWAP1 DUP2 MSTORE PUSH1 0x20 ADD PUSH0 KECCAK256 PUSH0 DUP3 ADD MLOAD DUP2 PUSH0 ADD SSTORE PUSH1 0x20 DUP3 ADD MLOAD DUP2 PUSH1 0x1 ADD SWAP1 DUP2 PUSH2 0xC97 SWAP2 SWAP1 PUSH2 0x1C93 JUMP JUMPDEST POP PUSH1 0x40 DUP3 ADD MLOAD DUP2 PUSH1 0x2 ADD SSTORE PUSH1 0x60 DUP3 ADD MLOAD DUP2 PUSH1 0x3 ADD PUSH0 PUSH2 0x100 EXP DUP2 SLOAD DUP2 PUSH20 0xFFFFFFFFFFFFFFFFFFFFFFFFFFFFFFFFFFFFFFFF MUL NOT AND SWAP1 DUP4 PUSH20 0xFFFFFFFFFFFFFFFFFFFFFFFFFFFFFFFFFFFFFFFF AND MUL OR SWAP1 SSTORE POP PUSH1 0x80 DUP3 ADD MLOAD DUP2 PUSH1 0x3 ADD PUSH1 0x14 PUSH2 0x100 EXP DUP2 SLOAD DUP2 PUSH1 0xFF MUL NOT AND SWAP1 DUP4 ISZERO ISZERO MUL OR SWAP1 SSTORE POP SWAP1 POP POP PUSH32 0xB906962CBF3F3ECD490633CBF2018014C57107262F8D80F40A11CA0E8B31F2AA DUP2 DUP6 DUP6 PUSH1 0x40 MLOAD PUSH2 0xD3E SWAP4 SWAP3 SWAP2 SWAP1 PUSH2 0x1D62 JUMP JUMPDEST PUSH1 0x40 MLOAD DUP1 SWAP2 SUB SWAP1 LOG1 POP POP POP POP JUMP JUMPDEST PUSH0 PUSH1 0x4 PUSH0 DUP4 DUP2 MSTORE PUSH1 0x20 ADD SWAP1 DUP2 MSTORE PUSH1 0x20 ADD PUSH0 KECCAK256 SWAP1 POP DUP1 PUSH1 0x4 ADD PUSH0 SWAP1 SLOAD SWAP1 PUSH2 0x100 EXP SWAP1 DIV PUSH1 0xFF AND PUSH2 0xDB0 JUMPI PUSH1 0x40 MLOAD PUSH32 0x8C379A000000000000000000000000000000000000000000000000000000000 DUP2 MSTORE PUSH1 0x4 ADD PUSH2 0xDA7 SWAP1 PUSH2 0x1DE8 JUMP JUMPDEST PUSH1 0x40 MLOAD DUP1 SWAP2 SUB SWAP1 REVERT JUMPDEST CALLER PUSH20 0xFFFFFFFFFFFFFFFFFFFFFFFFFFFFFFFFFFFFFFFF AND DUP2 PUSH1 0x1 ADD PUSH0 SWAP1 SLOAD SWAP1 PUSH2 0x100 EXP SWAP1 DIV PUSH20 0xFFFFFFFFFFFFFFFFFFFFFFFFFFFFFFFFFFFFFFFF AND PUSH20 0xFFFFFFFFFFFFFFFFFFFFFFFFFFFFFFFFFFFFFFFF AND EQ PUSH2 0xE41 JUMPI PUSH1 0x40 MLOAD PUSH32 0x8C379A000000000000000000000000000000000000000000000000000000000 DUP2 MSTORE PUSH1 0x4 ADD PUSH2 0xE38 SWAP1 PUSH2 0x1E50 JUMP JUMPDEST PUSH1 0x40 MLOAD DUP1 SWAP2 SUB SWAP1 REVERT JUMPDEST DUP1 PUSH1 0x2 ADD SLOAD CALLVALUE EQ PUSH2 0xE87 JUMPI PUSH1 0x40 MLOAD PUSH32 0x8C379A000000000000000000000000000000000000000000000000000000000 DUP2 MSTORE PUSH1 0x4 ADD PUSH2 0xE7E SWAP1 PUSH2 0x1EB8 JUMP JUMPDEST PUSH1 0x40 MLOAD DUP1 SWAP2 SUB SWAP1 REVERT JUMPDEST DUP1 PUSH1 0x3 ADD SLOAD TIMESTAMP GT ISZERO PUSH2 0xECE JUMPI PUSH1 0x40 MLOAD PUSH32 0x8C379A000000000000000000000000000000000000000000000000000000000 DUP2 MSTORE PUSH1 0x4 ADD PUSH2 0xEC5 SWAP1 PUSH2 0x1F20 JUMP JUMPDEST PUSH1 0x40 MLOAD DUP1 SWAP2 SUB SWAP1 REVERT JUMPDEST PUSH0 PUSH1 0x3 PUSH0 DUP4 PUSH0 ADD SLOAD DUP2 MSTORE PUSH1 0x20 ADD SWAP1 DUP2 MSTORE PUSH1 0x20 ADD PUSH0 KECCAK256 SWAP1 POP DUP1 PUSH1 0x3 ADD PUSH0 SWAP1 SLOAD SWAP1 PUSH2 0x100 EXP SWAP1 DIV PUSH20 0xFFFFFFFFFFFFFFFFFFFFFFFFFFFFFFFFFFFFFFFF AND PUSH20 0xFFFFFFFFFFFFFFFFFFFFFFFFFFFFFFFFFFFFFFFF AND PUSH2 0x8FC CALLVALUE SWAP1 DUP2 ISZERO MUL SWAP1 PUSH1 0x40 MLOAD PUSH0 PUSH1 0x40 MLOAD DUP1 DUP4 SUB DUP2 DUP6 DUP9 DUP9 CALL SWAP4 POP POP POP POP ISZERO DUP1 ISZERO PUSH2 0xF4B JUMPI RETURNDATASIZE PUSH0 DUP1 RETURNDATACOPY RETURNDATASIZE PUSH0 REVERT JUMPDEST POP PUSH32 0xA62C35DFC0FF11D3713608EBCDC5C5D1952C7702620F2C46C22950F7B70D5797 DUP4 CALLVALUE TIMESTAMP PUSH1 0x40 MLOAD PUSH2 0xF7F SWAP4 SWAP3 SWAP2 SWAP1 PUSH2 0x1F3E JUMP JUMPDEST PUSH1 0x40 MLOAD DUP1 SWAP2 SUB SWAP1 LOG1 POP POP POP JUMP JUMPDEST PUSH1 0x3 PUSH1 0x20 MSTORE DUP1 PUSH0 MSTORE PUSH1 0x40 PUSH0 KECCAK256 PUSH0 SWAP2 POP SWAP1 POP DUP1 PUSH0 ADD SLOAD SWAP1 DUP1 PUSH1 0x1 ADD DUP1 SLOAD PUSH2 0xFB1 SWAP1 PUSH2 0x159C JUMP JUMPDEST DUP1 PUSH1 0x1F ADD PUSH1 0x20 DUP1 SWAP2 DIV MUL PUSH1 0x20 ADD PUSH1 0x40 MLOAD SWAP1 DUP2 ADD PUSH1 0x40 MSTORE DUP1 SWAP3 SWAP2 SWAP1 DUP2 DUP2 MSTORE PUSH1 0x20 ADD DUP3 DUP1 SLOAD PUSH2 0xFDD SWAP1 PUSH2 0x159C JUMP JUMPDEST DUP1 ISZERO PUSH2 0x1028 JUMPI DUP1 PUSH1 0x1F LT PUSH2 0xFFF JUMPI PUSH2 0x100 DUP1 DUP4 SLOAD DIV MUL DUP4 MSTORE SWAP2 PUSH1 0x20 ADD SWAP2 PUSH2 0x1028 JUMP JUMPDEST DUP3 ADD SWAP2 SWAP1 PUSH0 MSTORE PUSH1 0x20 PUSH0 KECCAK256 SWAP1 JUMPDEST DUP2 SLOAD DUP2 MSTORE SWAP1 PUSH1 0x1 ADD SWAP1 PUSH1 0x20 ADD DUP1 DUP4 GT PUSH2 0x100B JUMPI DUP3 SWAP1 SUB PUSH1 0x1F AND DUP3 ADD SWAP2 JUMPDEST POP POP POP POP POP SWAP1 DUP1 PUSH1 0x2 ADD SLOAD SWAP1 DUP1 PUSH1 0x3 ADD PUSH0 SWAP1 SLOAD SWAP1 PUSH2 0x100 EXP SWAP1 DIV PUSH20 0xFFFFFFFFFFFFFFFFFFFFFFFFFFFFFFFFFFFFFFFF AND SWAP1 DUP1 PUSH1 0x3 ADD PUSH1 0x14 SWAP1 SLOAD SWAP1 PUSH2 0x100 EXP SWAP1 DIV PUSH1 0xFF AND SWAP1 POP DUP6 JUMP JUMPDEST PUSH0 DUP1 SLOAD SWAP1 PUSH2 0x100 EXP SWAP1 DIV PUSH20 0xFFFFFFFFFFFFFFFFFFFFFFFFFFFFFFFFFFFFFFFF AND DUP2 JUMP JUMPDEST PUSH0 DUP2 SWAP1 POP SWAP2 SWAP1 POP JUMP JUMPDEST PUSH2 0x10A5 DUP2 PUSH2 0x1093 JUMP JUMPDEST DUP3 MSTORE POP POP JUMP JUMPDEST PUSH0 PUSH1 0x20 DUP3 ADD SWAP1 POP PUSH2 0x10BE PUSH0 DUP4 ADD DUP5 PUSH2 0x109C JUMP JUMPDEST SWAP3 SWAP2 POP POP JUMP JUMPDEST PUSH0 PUSH1 0x40 MLOAD SWAP1 POP SWAP1 JUMP JUMPDEST PUSH0 DUP1 REVERT JUMPDEST PUSH0 DUP1 REVERT JUMPDEST PUSH2 0x10DE DUP2 PUSH2 0x1093 JUMP JUMPDEST DUP2 EQ PUSH2 0x10E8 JUMPI PUSH0 DUP1 REVERT JUMPDEST POP JUMP JUMPDEST PUSH0 DUP2 CALLDATALOAD SWAP1 POP PUSH2 0x10F9 DUP2 PUSH2 0x10D5 JUMP JUMPDEST SWAP3 SWAP2 POP POP JUMP JUMPDEST PUSH0 PUSH1 0x20 DUP3 DUP5 SUB SLT ISZERO PUSH2 0x1114 JUMPI PUSH2 0x1113 PUSH2 0x10CD JUMP JUMPDEST JUMPDEST PUSH0 PUSH2 0x1121 DUP5 DUP3 DUP6 ADD PUSH2 0x10EB JUMP JUMPDEST SWAP2 POP POP SWAP3 SWAP2 POP POP JUMP JUMPDEST PUSH0 DUP2 MLOAD SWAP1 POP SWAP2 SWAP1 POP JUMP JUMPDEST PUSH0 DUP3 DUP3 MSTORE PUSH1 0x20 DUP3 ADD SWAP1 POP SWAP3 SWAP2 POP POP JUMP JUMPDEST DUP3 DUP2 DUP4 MCOPY PUSH0 DUP4 DUP4 ADD MSTORE POP POP POP JUMP JUMPDEST PUSH0 PUSH1 0x1F NOT PUSH1 0x1F DUP4 ADD AND SWAP1 POP SWAP2 SWAP1 POP JUMP JUMPDEST PUSH0 PUSH2 0x116C DUP3 PUSH2 0x112A JUMP JUMPDEST PUSH2 0x1176 DUP2 DUP6 PUSH2 0x1134 JUMP JUMPDEST SWAP4 POP PUSH2 0x1186 DUP2 DUP6 PUSH1 0x20 DUP7 ADD PUSH2 0x1144 JUMP JUMPDEST PUSH2 0x118F DUP2 PUSH2 0x1152 JUMP JUMPDEST DUP5 ADD SWAP2 POP POP SWAP3 SWAP2 POP POP JUMP JUMPDEST PUSH0 PUSH20 0xFFFFFFFFFFFFFFFFFFFFFFFFFFFFFFFFFFFFFFFF DUP3 AND SWAP1 POP SWAP2 SWAP1 POP JUMP JUMPDEST PUSH0 PUSH2 0x11C3 DUP3 PUSH2 0x119A JUMP JUMPDEST SWAP1 POP SWAP2 SWAP1 POP JUMP JUMPDEST PUSH2 0x11D3 DUP2 PUSH2 0x11B9 JUMP JUMPDEST DUP3 MSTORE POP POP JUMP JUMPDEST PUSH0 DUP2 ISZERO ISZERO SWAP1 POP SWAP2 SWAP1 POP JUMP JUMPDEST PUSH2 0x11ED DUP2 PUSH2 0x11D9 JUMP JUMPDEST DUP3 MSTORE POP POP JUMP JUMPDEST PUSH0 PUSH1 0x80 DUP3 ADD SWAP1 POP DUP2 DUP2 SUB PUSH0 DUP4 ADD MSTORE PUSH2 0x120B DUP2 DUP8 PUSH2 0x1162 JUMP JUMPDEST SWAP1 POP PUSH2 0x121A PUSH1 0x20 DUP4 ADD DUP7 PUSH2 0x109C JUMP JUMPDEST PUSH2 0x1227 PUSH1 0x40 DUP4 ADD DUP6 PUSH2 0x11CA JUMP JUMPDEST PUSH2 0x1234 PUSH1 0x60 DUP4 ADD DUP5 PUSH2 0x11E4 JUMP JUMPDEST SWAP6 SWAP5 POP POP POP POP POP JUMP JUMPDEST PUSH0 PUSH1 0xA0 DUP3 ADD SWAP1 POP PUSH2 0x1250 PUSH0 DUP4 ADD DUP9 PUSH2 0x109C JUMP JUMPDEST PUSH2 0x125D PUSH1 0x20 DUP4 ADD DUP8 PUSH2 0x11CA JUMP JUMPDEST PUSH2 0x126A PUSH1 0x40 DUP4 ADD DUP7 PUSH2 0x109C JUMP JUMPDEST PUSH2 0x1277 PUSH1 0x60 DUP4 ADD DUP6 PUSH2 0x109C JUMP JUMPDEST PUSH2 0x1284 PUSH1 0x80 DUP4 ADD DUP5 PUSH2 0x11E4 JUMP JUMPDEST SWAP7 SWAP6 POP POP POP POP POP POP JUMP JUMPDEST PUSH2 0x1297 DUP2 PUSH2 0x11B9 JUMP JUMPDEST DUP2 EQ PUSH2 0x12A1 JUMPI PUSH0 DUP1 REVERT JUMPDEST POP JUMP JUMPDEST PUSH0 DUP2 CALLDATALOAD SWAP1 POP PUSH2 0x12B2 DUP2 PUSH2 0x128E JUMP JUMPDEST SWAP3 SWAP2 POP POP JUMP JUMPDEST PUSH0 DUP1 PUSH0 DUP1 PUSH1 0x80 DUP6 DUP8 SUB SLT ISZERO PUSH2 0x12D0 JUMPI PUSH2 0x12CF PUSH2 0x10CD JUMP JUMPDEST JUMPDEST PUSH0 PUSH2 0x12DD DUP8 DUP3 DUP9 ADD PUSH2 0x10EB JUMP JUMPDEST SWAP5 POP POP PUSH1 0x20 PUSH2 0x12EE DUP8 DUP3 DUP9 ADD PUSH2 0x12A4 JUMP JUMPDEST SWAP4 POP POP PUSH1 0x40 PUSH2 0x12FF DUP8 DUP3 DUP9 ADD PUSH2 0x10EB JUMP JUMPDEST SWAP3 POP POP PUSH1 0x60 PUSH2 0x1310 DUP8 DUP3 DUP9 ADD PUSH2 0x10EB JUMP JUMPDEST SWAP2 POP POP SWAP3 SWAP6 SWAP2 SWAP5 POP SWAP3 POP JUMP JUMPDEST PUSH0 DUP1 REVERT JUMPDEST PUSH0 DUP1 REVERT JUMPDEST PUSH32 0x4E487B7100000000000000000000000000000000000000000000000000000000 PUSH0 MSTORE PUSH1 0x41 PUSH1 0x4 MSTORE PUSH1 0x24 PUSH0 REVERT JUMPDEST PUSH2 0x135A DUP3 PUSH2 0x1152 JUMP JUMPDEST DUP2 ADD DUP2 DUP2 LT PUSH8 0xFFFFFFFFFFFFFFFF DUP3 GT OR ISZERO PUSH2 0x1379 JUMPI PUSH2 0x1378 PUSH2 0x1324 JUMP JUMPDEST JUMPDEST DUP1 PUSH1 0x40 MSTORE POP POP POP JUMP JUMPDEST PUSH0 PUSH2 0x138B PUSH2 0x10C4 JUMP JUMPDEST SWAP1 POP PUSH2 0x1397 DUP3 DUP3 PUSH2 0x1351 JUMP JUMPDEST SWAP2 SWAP1 POP JUMP JUMPDEST PUSH0 PUSH8 0xFFFFFFFFFFFFFFFF DUP3 GT ISZERO PUSH2 0x13B6 JUMPI PUSH2 0x13B5 PUSH2 0x1324 JUMP JUMPDEST JUMPDEST PUSH2 0x13BF DUP3 PUSH2 0x1152 JUMP JUMPDEST SWAP1 POP PUSH1 0x20 DUP2 ADD SWAP1 POP SWAP2 SWAP1 POP JUMP JUMPDEST DUP3 DUP2 DUP4 CALLDATACOPY PUSH0 DUP4 DUP4 ADD MSTORE POP POP POP JUMP JUMPDEST PUSH0 PUSH2 0x13EC PUSH2 0x13E7 DUP5 PUSH2 0x139C JUMP JUMPDEST PUSH2 0x1382 JUMP JUMPDEST SWAP1 POP DUP3 DUP2 MSTORE PUSH1 0x20 DUP2 ADD DUP5 DUP5 DUP5 ADD GT ISZERO PUSH2 0x1408 JUMPI PUSH2 0x1407 PUSH2 0x1320 JUMP JUMPDEST JUMPDEST PUSH2 0x1413 DUP5 DUP3 DUP6 PUSH2 0x13CC JUMP JUMPDEST POP SWAP4 SWAP3 POP POP POP JUMP JUMPDEST PUSH0 DUP3 PUSH1 0x1F DUP4 ADD SLT PUSH2 0x142F JUMPI PUSH2 0x142E PUSH2 0x131C JUMP JUMPDEST JUMPDEST DUP2 CALLDATALOAD PUSH2 0x143F DUP5 DUP3 PUSH1 0x20 DUP7 ADD PUSH2 0x13DA JUMP JUMPDEST SWAP2 POP POP SWAP3 SWAP2 POP POP JUMP JUMPDEST PUSH0 PUSH2 0x1452 DUP3 PUSH2 0x119A JUMP JUMPDEST SWAP1 POP SWAP2 SWAP1 POP JUMP JUMPDEST PUSH2 0x1462 DUP2 PUSH2 0x1448 JUMP JUMPDEST DUP2 EQ PUSH2 0x146C JUMPI PUSH0 DUP1 REVERT JUMPDEST POP JUMP JUMPDEST PUSH0 DUP2 CALLDATALOAD SWAP1 POP PUSH2 0x147D DUP2 PUSH2 0x1459 JUMP JUMPDEST SWAP3 SWAP2 POP POP JUMP JUMPDEST PUSH0 DUP1 PUSH0 PUSH1 0x60 DUP5 DUP7 SUB SLT ISZERO PUSH2 0x149A JUMPI PUSH2 0x1499 PUSH2 0x10CD JUMP JUMPDEST JUMPDEST PUSH0 DUP5 ADD CALLDATALOAD PUSH8 0xFFFFFFFFFFFFFFFF DUP2 GT ISZERO PUSH2 0x14B7 JUMPI PUSH2 0x14B6 PUSH2 0x10D1 JUMP JUMPDEST JUMPDEST PUSH2 0x14C3 DUP7 DUP3 DUP8 ADD PUSH2 0x141B JUMP JUMPDEST SWAP4 POP POP PUSH1 0x20 PUSH2 0x14D4 DUP7 DUP3 DUP8 ADD PUSH2 0x10EB JUMP JUMPDEST SWAP3 POP POP PUSH1 0x40 PUSH2 0x14E5 DUP7 DUP3 DUP8 ADD PUSH2 0x146F JUMP JUMPDEST SWAP2 POP POP SWAP3 POP SWAP3 POP SWAP3 JUMP JUMPDEST PUSH2 0x14F8 DUP2 PUSH2 0x1448 JUMP JUMPDEST DUP3 MSTORE POP POP JUMP JUMPDEST PUSH0 PUSH1 0xA0 DUP3 ADD SWAP1 POP PUSH2 0x1511 PUSH0 DUP4 ADD DUP9 PUSH2 0x109C JUMP JUMPDEST DUP2 DUP2 SUB PUSH1 0x20 DUP4 ADD MSTORE PUSH2 0x1523 DUP2 DUP8 PUSH2 0x1162 JUMP JUMPDEST SWAP1 POP PUSH2 0x1532 PUSH1 0x40 DUP4 ADD DUP7 PUSH2 0x109C JUMP JUMPDEST PUSH2 0x153F PUSH1 0x60 DUP4 ADD DUP6 PUSH2 0x14EF JUMP JUMPDEST PUSH2 0x154C PUSH1 0x80 DUP4 ADD DUP5 PUSH2 0x11E4 JUMP JUMPDEST SWAP7 SWAP6 POP POP POP POP POP POP JUMP JUMPDEST PUSH0 PUSH1 0x20 DUP3 ADD SWAP1 POP PUSH2 0x1569 PUSH0 DUP4 ADD DUP5 PUSH2 0x11CA JUMP JUMPDEST SWAP3 SWAP2 POP POP JUMP JUMPDEST PUSH32 0x4E487B7100000000000000000000000000000000000000000000000000000000 PUSH0 MSTORE PUSH1 0x22 PUSH1 0x4 MSTORE PUSH1 0x24 PUSH0 REVERT JUMPDEST PUSH0 PUSH1 0x2 DUP3 DIV SWAP1 POP PUSH1 0x1 DUP3 AND DUP1 PUSH2 0x15B3 JUMPI PUSH1 0x7F DUP3 AND SWAP2 POP JUMPDEST PUSH1 0x20 DUP3 LT DUP2 SUB PUSH2 0x15C6 JUMPI PUSH2 0x15C5 PUSH2 0x156F JUMP JUMPDEST JUMPDEST POP SWAP2 SWAP1 POP JUMP JUMPDEST PUSH32 0x4F6E6C79207468652070726F7065727479206F776E65722063616E2063726561 PUSH0 DUP3 ADD MSTORE PUSH32 0x74652061206C656173652E000000000000000000000000000000000000000000 PUSH1 0x20 DUP3 ADD MSTORE POP JUMP JUMPDEST PUSH0 PUSH2 0x1626 PUSH1 0x2B DUP4 PUSH2 0x1134 JUMP JUMPDEST SWAP2 POP PUSH2 0x1631 DUP3 PUSH2 0x15CC JUMP JUMPDEST PUSH1 0x40 DUP3 ADD SWAP1 POP SWAP2 SWAP1 POP JUMP JUMPDEST PUSH0 PUSH1 0x20 DUP3 ADD SWAP1 POP DUP2 DUP2 SUB PUSH0 DUP4 ADD MSTORE PUSH2 0x1653 DUP2 PUSH2 0x161A JUMP JUMPDEST SWAP1 POP SWAP2 SWAP1 POP JUMP JUMPDEST PUSH32 0x43616E6E6F74206C6561736520612070726F7065727479207468617420697320 PUSH0 DUP3 ADD MSTORE PUSH32 0x666F722073616C652E0000000000000000000000000000000000000000000000 PUSH1 0x20 DUP3 ADD MSTORE POP JUMP JUMPDEST PUSH0 PUSH2 0x16B4 PUSH1 0x29 DUP4 PUSH2 0x1134 JUMP JUMPDEST SWAP2 POP PUSH2 0x16BF DUP3 PUSH2 0x165A JUMP JUMPDEST PUSH1 0x40 DUP3 ADD SWAP1 POP SWAP2 SWAP1 POP JUMP JUMPDEST PUSH0 PUSH1 0x20 DUP3 ADD SWAP1 POP DUP2 DUP2 SUB PUSH0 DUP4 ADD MSTORE PUSH2 0x16E1 DUP2 PUSH2 0x16A8 JUMP JUMPDEST SWAP1 POP SWAP2 SWAP1 POP JUMP JUMPDEST PUSH32 0x4E487B7100000000000000000000000000000000000000000000000000000000 PUSH0 MSTORE PUSH1 0x11 PUSH1 0x4 MSTORE PUSH1 0x24 PUSH0 REVERT JUMPDEST PUSH0 PUSH2 0x171F DUP3 PUSH2 0x1093 JUMP JUMPDEST SWAP2 POP PUSH32 0xFFFFFFFFFFFFFFFFFFFFFFFFFFFFFFFFFFFFFFFFFFFFFFFFFFFFFFFFFFFFFFFF DUP3 SUB PUSH2 0x1751 JUMPI PUSH2 0x1750 PUSH2 0x16E8 JUMP JUMPDEST JUMPDEST PUSH1 0x1 DUP3 ADD SWAP1 POP SWAP2 SWAP1 POP JUMP JUMPDEST PUSH0 PUSH2 0x1766 DUP3 PUSH2 0x1093 JUMP JUMPDEST SWAP2 POP PUSH2 0x1771 DUP4 PUSH2 0x1093 JUMP JUMPDEST SWAP3 POP DUP3 DUP3 MUL PUSH2 0x177F DUP2 PUSH2 0x1093 JUMP JUMPDEST SWAP2 POP DUP3 DUP3 DIV DUP5 EQ DUP4 ISZERO OR PUSH2 0x1796 JUMPI PUSH2 0x1795 PUSH2 0x16E8 JUMP JUMPDEST JUMPDEST POP SWAP3 SWAP2 POP POP JUMP JUMPDEST PUSH0 PUSH2 0x17A7 DUP3 PUSH2 0x1093 JUMP JUMPDEST SWAP2 POP PUSH2 0x17B2 DUP4 PUSH2 0x1093 JUMP JUMPDEST SWAP3 POP DUP3 DUP3 ADD SWAP1 POP DUP1 DUP3 GT ISZERO PUSH2 0x17CA JUMPI PUSH2 0x17C9 PUSH2 0x16E8 JUMP JUMPDEST JUMPDEST SWAP3 SWAP2 POP POP JUMP JUMPDEST PUSH0 PUSH1 0x80 DUP3 ADD SWAP1 POP PUSH2 0x17E3 PUSH0 DUP4 ADD DUP8 PUSH2 0x109C JUMP JUMPDEST PUSH2 0x17F0 PUSH1 0x20 DUP4 ADD DUP7 PUSH2 0x109C JUMP JUMPDEST PUSH2 0x17FD PUSH1 0x40 DUP4 ADD DUP6 PUSH2 0x11CA JUMP JUMPDEST PUSH2 0x180A PUSH1 0x60 DUP4 ADD DUP5 PUSH2 0x109C JUMP JUMPDEST SWAP6 SWAP5 POP POP POP POP POP JUMP JUMPDEST PUSH32 0x4C6561736520697320616C7265616479207465726D696E617465642E00000000 PUSH0 DUP3 ADD MSTORE POP JUMP JUMPDEST PUSH0 PUSH2 0x1847 PUSH1 0x1C DUP4 PUSH2 0x1134 JUMP JUMPDEST SWAP2 POP PUSH2 0x1852 DUP3 PUSH2 0x1813 JUMP JUMPDEST PUSH1 0x20 DUP3 ADD SWAP1 POP SWAP2 SWAP1 POP JUMP JUMPDEST PUSH0 PUSH1 0x20 DUP3 ADD SWAP1 POP DUP2 DUP2 SUB PUSH0 DUP4 ADD MSTORE PUSH2 0x1874 DUP2 PUSH2 0x183B JUMP JUMPDEST SWAP1 POP SWAP2 SWAP1 POP JUMP JUMPDEST PUSH32 0x4F6E6C792061646D696E2C2074656E616E742C206F722070726F706572747920 PUSH0 DUP3 ADD MSTORE PUSH32 0x6F776E65722063616E207465726D696E61746520746865206C656173652E0000 PUSH1 0x20 DUP3 ADD MSTORE POP JUMP JUMPDEST PUSH0 PUSH2 0x18D5 PUSH1 0x3E DUP4 PUSH2 0x1134 JUMP JUMPDEST SWAP2 POP PUSH2 0x18E0 DUP3 PUSH2 0x187B JUMP JUMPDEST PUSH1 0x40 DUP3 ADD SWAP1 POP SWAP2 SWAP1 POP JUMP JUMPDEST PUSH0 PUSH1 0x20 DUP3 ADD SWAP1 POP DUP2 DUP2 SUB PUSH0 DUP4 ADD MSTORE PUSH2 0x1902 DUP2 PUSH2 0x18C9 JUMP JUMPDEST SWAP1 POP SWAP2 SWAP1 POP JUMP JUMPDEST PUSH32 0x50726F7065727479206973206E6F7420666F722073616C652E00000000000000 PUSH0 DUP3 ADD MSTORE POP JUMP JUMPDEST PUSH0 PUSH2 0x193D PUSH1 0x19 DUP4 PUSH2 0x1134 JUMP JUMPDEST SWAP2 POP PUSH2 0x1948 DUP3 PUSH2 0x1909 JUMP JUMPDEST PUSH1 0x20 DUP3 ADD SWAP1 POP SWAP2 SWAP1 POP JUMP JUMPDEST PUSH0 PUSH1 0x20 DUP3 ADD SWAP1 POP DUP2 DUP2 SUB PUSH0 DUP4 ADD MSTORE PUSH2 0x196A DUP2 PUSH2 0x1931 JUMP JUMPDEST SWAP1 POP SWAP2 SWAP1 POP JUMP JUMPDEST PUSH32 0x496E636F7272656374207061796D656E7420616D6F756E742E00000000000000 PUSH0 DUP3 ADD MSTORE POP JUMP JUMPDEST PUSH0 PUSH2 0x19A5 PUSH1 0x19 DUP4 PUSH2 0x1134 JUMP JUMPDEST SWAP2 POP PUSH2 0x19B0 DUP3 PUSH2 0x1971 JUMP JUMPDEST PUSH1 0x20 DUP3 ADD SWAP1 POP SWAP2 SWAP1 POP JUMP JUMPDEST PUSH0 PUSH1 0x20 DUP3 ADD SWAP1 POP DUP2 DUP2 SUB PUSH0 DUP4 ADD MSTORE PUSH2 0x19D2 DUP2 PUSH2 0x1999 JUMP JUMPDEST SWAP1 POP SWAP2 SWAP1 POP JUMP JUMPDEST PUSH0 PUSH1 0x40 DUP3 ADD SWAP1 POP PUSH2 0x19EC PUSH0 DUP4 ADD DUP6 PUSH2 0x109C JUMP JUMPDEST PUSH2 0x19F9 PUSH1 0x20 DUP4 ADD DUP5 PUSH2 0x11CA JUMP JUMPDEST SWAP4 SWAP3 POP POP POP JUMP JUMPDEST PUSH32 0x4F6E6C79207468652061646D696E2063616E20706572666F726D207468697320 PUSH0 DUP3 ADD MSTORE PUSH32 0x616374696F6E2E00000000000000000000000000000000000000000000000000 PUSH1 0x20 DUP3 ADD MSTORE POP JUMP JUMPDEST PUSH0 PUSH2 0x1A5A PUSH1 0x27 DUP4 PUSH2 0x1134 JUMP JUMPDEST SWAP2 POP PUSH2 0x1A65 DUP3 PUSH2 0x1A00 JUMP JUMPDEST PUSH1 0x40 DUP3 ADD SWAP1 POP SWAP2 SWAP1 POP JUMP JUMPDEST PUSH0 PUSH1 0x20 DUP3 ADD SWAP1 POP DUP2 DUP2 SUB PUSH0 DUP4 ADD MSTORE PUSH2 0x1A87 DUP2 PUSH2 0x1A4E JUMP JUMPDEST SWAP1 POP SWAP2 SWAP1 POP JUMP JUMPDEST PUSH32 0x5072696365206D7573742062652067726561746572207468616E207A65726F2E PUSH0 DUP3 ADD MSTORE POP JUMP JUMPDEST PUSH0 PUSH2 0x1AC2 PUSH1 0x20 DUP4 PUSH2 0x1134 JUMP JUMPDEST SWAP2 POP PUSH2 0x1ACD DUP3 PUSH2 0x1A8E JUMP JUMPDEST PUSH1 0x20 DUP3 ADD SWAP1 POP SWAP2 SWAP1 POP JUMP JUMPDEST PUSH0 PUSH1 0x20 DUP3 ADD SWAP1 POP DUP2 DUP2 SUB PUSH0 DUP4 ADD MSTORE PUSH2 0x1AEF DUP2 PUSH2 0x1AB6 JUMP JUMPDEST SWAP1 POP SWAP2 SWAP1 POP JUMP JUMPDEST PUSH0 DUP2 SWAP1 POP DUP2 PUSH0 MSTORE PUSH1 0x20 PUSH0 KECCAK256 SWAP1 POP SWAP2 SWAP1 POP JUMP JUMPDEST PUSH0 PUSH1 0x20 PUSH1 0x1F DUP4 ADD DIV SWAP1 POP SWAP2 SWAP1 POP JUMP JUMPDEST PUSH0 DUP3 DUP3 SHL SWAP1 POP SWAP3 SWAP2 POP POP JUMP JUMPDEST PUSH0 PUSH1 0x8 DUP4 MUL PUSH2 0x1B52 PUSH32 0xFFFFFFFFFFFFFFFFFFFFFFFFFFFFFFFFFFFFFFFFFFFFFFFFFFFFFFFFFFFFFFFF DUP3 PUSH2 0x1B17 JUMP JUMPDEST PUSH2 0x1B5C DUP7 DUP4 PUSH2 0x1B17 JUMP JUMPDEST SWAP6 POP DUP1 NOT DUP5 AND SWAP4 POP DUP1 DUP7 AND DUP5 OR SWAP3 POP POP POP SWAP4 SWAP3 POP POP POP JUMP JUMPDEST PUSH0 DUP2 SWAP1 POP SWAP2 SWAP1 POP JUMP JUMPDEST PUSH0 PUSH2 0x1B97 PUSH2 0x1B92 PUSH2 0x1B8D DUP5 PUSH2 0x1093 JUMP JUMPDEST PUSH2 0x1B74 JUMP JUMPDEST PUSH2 0x1093 JUMP JUMPDEST SWAP1 POP SWAP2 SWAP1 POP JUMP JUMPDEST PUSH0 DUP2 SWAP1 POP SWAP2 SWAP1 POP JUMP JUMPDEST PUSH2 0x1BB0 DUP4 PUSH2 0x1B7D JUMP JUMPDEST PUSH2 0x1BC4 PUSH2 0x1BBC DUP3 PUSH2 0x1B9E JUMP JUMPDEST DUP5 DUP5 SLOAD PUSH2 0x1B23 JUMP JUMPDEST DUP3 SSTORE POP POP POP POP JUMP JUMPDEST PUSH0 SWAP1 JUMP JUMPDEST PUSH2 0x1BD8 PUSH2 0x1BCC JUMP JUMPDEST PUSH2 0x1BE3 DUP2 DUP5 DUP5 PUSH2 0x1BA7 JUMP JUMPDEST POP POP POP JUMP JUMPDEST JUMPDEST DUP2 DUP2 LT ISZERO PUSH2 0x1C06 JUMPI PUSH2 0x1BFB PUSH0 DUP3 PUSH2 0x1BD0 JUMP JUMPDEST PUSH1 0x1 DUP2 ADD SWAP1 POP PUSH2 0x1BE9 JUMP JUMPDEST POP POP JUMP JUMPDEST PUSH1 0x1F DUP3 GT ISZERO PUSH2 0x1C4B JUMPI PUSH2 0x1C1C DUP2 PUSH2 0x1AF6 JUMP JUMPDEST PUSH2 0x1C25 DUP5 PUSH2 0x1B08 JUMP JUMPDEST DUP2 ADD PUSH1 0x20 DUP6 LT ISZERO PUSH2 0x1C34 JUMPI DUP2 SWAP1 POP JUMPDEST PUSH2 0x1C48 PUSH2 0x1C40 DUP6 PUSH2 0x1B08 JUMP JUMPDEST DUP4 ADD DUP3 PUSH2 0x1BE8 JUMP JUMPDEST POP POP JUMPDEST POP POP POP JUMP JUMPDEST PUSH0 DUP3 DUP3 SHR SWAP1 POP SWAP3 SWAP2 POP POP JUMP JUMPDEST PUSH0 PUSH2 0x1C6B PUSH0 NOT DUP5 PUSH1 0x8 MUL PUSH2 0x1C50 JUMP JUMPDEST NOT DUP1 DUP4 AND SWAP2 POP POP SWAP3 SWAP2 POP POP JUMP JUMPDEST PUSH0 PUSH2 0x1C83 DUP4 DUP4 PUSH2 0x1C5C JUMP JUMPDEST SWAP2 POP DUP3 PUSH1 0x2 MUL DUP3 OR SWAP1 POP SWAP3 SWAP2 POP POP JUMP JUMPDEST PUSH2 0x1C9C DUP3 PUSH2 0x112A JUMP JUMPDEST PUSH8 0xFFFFFFFFFFFFFFFF DUP2 GT ISZERO PUSH2 0x1CB5 JUMPI PUSH2 0x1CB4 PUSH2 0x1324 JUMP JUMPDEST JUMPDEST PUSH2 0x1CBF DUP3 SLOAD PUSH2 0x159C JUMP JUMPDEST PUSH2 0x1CCA DUP3 DUP3 DUP6 PUSH2 0x1C0A JUMP JUMPDEST PUSH0 PUSH1 0x20 SWAP1 POP PUSH1 0x1F DUP4 GT PUSH1 0x1 DUP2 EQ PUSH2 0x1CFB JUMPI PUSH0 DUP5 ISZERO PUSH2 0x1CE9 JUMPI DUP3 DUP8 ADD MLOAD SWAP1 POP JUMPDEST PUSH2 0x1CF3 DUP6 DUP3 PUSH2 0x1C78 JUMP JUMPDEST DUP7 SSTORE POP PUSH2 0x1D5A JUMP JUMPDEST PUSH1 0x1F NOT DUP5 AND PUSH2 0x1D09 DUP7 PUSH2 0x1AF6 JUMP JUMPDEST PUSH0 JUMPDEST DUP3 DUP2 LT ISZERO PUSH2 0x1D30 JUMPI DUP5 DUP10 ADD MLOAD DUP3 SSTORE PUSH1 0x1 DUP3 ADD SWAP2 POP PUSH1 0x20 DUP6 ADD SWAP5 POP PUSH1 0x20 DUP2 ADD SWAP1 POP PUSH2 0x1D0B JUMP JUMPDEST DUP7 DUP4 LT ISZERO PUSH2 0x1D4D JUMPI DUP5 DUP10 ADD MLOAD PUSH2 0x1D49 PUSH1 0x1F DUP10 AND DUP3 PUSH2 0x1C5C JUMP JUMPDEST DUP4 SSTORE POP JUMPDEST PUSH1 0x1 PUSH1 0x2 DUP9 MUL ADD DUP9 SSTORE POP POP POP JUMPDEST POP POP POP POP POP POP JUMP JUMPDEST PUSH0 PUSH1 0x60 DUP3 ADD SWAP1 POP PUSH2 0x1D75 PUSH0 DUP4 ADD DUP7 PUSH2 0x109C JUMP JUMPDEST DUP2 DUP2 SUB PUSH1 0x20 DUP4 ADD MSTORE PUSH2 0x1D87 DUP2 DUP6 PUSH2 0x1162 JUMP JUMPDEST SWAP1 POP PUSH2 0x1D96 PUSH1 0x40 DUP4 ADD DUP5 PUSH2 0x109C JUMP JUMPDEST SWAP5 SWAP4 POP POP POP POP JUMP JUMPDEST PUSH32 0x4C65617365206973206E6F74206163746976652E000000000000000000000000 PUSH0 DUP3 ADD MSTORE POP JUMP JUMPDEST PUSH0 PUSH2 0x1DD2 PUSH1 0x14 DUP4 PUSH2 0x1134 JUMP JUMPDEST SWAP2 POP PUSH2 0x1DDD DUP3 PUSH2 0x1D9E JUMP JUMPDEST PUSH1 0x20 DUP3 ADD SWAP1 POP SWAP2 SWAP1 POP JUMP JUMPDEST PUSH0 PUSH1 0x20 DUP3 ADD SWAP1 POP DUP2 DUP2 SUB PUSH0 DUP4 ADD MSTORE PUSH2 0x1DFF DUP2 PUSH2 0x1DC6 JUMP JUMPDEST SWAP1 POP SWAP2 SWAP1 POP JUMP JUMPDEST PUSH32 0x4F6E6C79207468652074656E616E742063616E207061792072656E742E000000 PUSH0 DUP3 ADD MSTORE POP JUMP JUMPDEST PUSH0 PUSH2 0x1E3A PUSH1 0x1D DUP4 PUSH2 0x1134 JUMP JUMPDEST SWAP2 POP PUSH2 0x1E45 DUP3 PUSH2 0x1E06 JUMP JUMPDEST PUSH1 0x20 DUP3 ADD SWAP1 POP SWAP2 SWAP1 POP JUMP JUMPDEST PUSH0 PUSH1 0x20 DUP3 ADD SWAP1 POP DUP2 DUP2 SUB PUSH0 DUP4 ADD MSTORE PUSH2 0x1E67 DUP2 PUSH2 0x1E2E JUMP JUMPDEST SWAP1 POP SWAP2 SWAP1 POP JUMP JUMPDEST PUSH32 0x496E636F72726563742072656E7420616D6F756E742E00000000000000000000 PUSH0 DUP3 ADD MSTORE POP JUMP JUMPDEST PUSH0 PUSH2 0x1EA2 PUSH1 0x16 DUP4 PUSH2 0x1134 JUMP JUMPDEST SWAP2 POP PUSH2 0x1EAD DUP3 PUSH2 0x1E6E JUMP JUMPDEST PUSH1 0x20 DUP3 ADD SWAP1 POP SWAP2 SWAP1 POP JUMP JUMPDEST PUSH0 PUSH1 0x20 DUP3 ADD SWAP1 POP DUP2 DUP2 SUB PUSH0 DUP4 ADD MSTORE PUSH2 0x1ECF DUP2 PUSH2 0x1E96 JUMP JUMPDEST SWAP1 POP SWAP2 SWAP1 POP JUMP JUMPDEST PUSH32 0x4C656173652068617320657870697265642E0000000000000000000000000000 PUSH0 DUP3 ADD MSTORE POP JUMP JUMPDEST PUSH0 PUSH2 0x1F0A PUSH1 0x12 DUP4 PUSH2 0x1134 JUMP JUMPDEST SWAP2 POP PUSH2 0x1F15 DUP3 PUSH2 0x1ED6 JUMP JUMPDEST PUSH1 0x20 DUP3 ADD SWAP1 POP SWAP2 SWAP1 POP JUMP JUMPDEST PUSH0 PUSH1 0x20 DUP3 ADD SWAP1 POP DUP2 DUP2 SUB PUSH0 DUP4 ADD MSTORE PUSH2 0x1F37 DUP2 PUSH2 0x1EFE JUMP JUMPDEST SWAP1 POP SWAP2 SWAP1 POP JUMP JUMPDEST PUSH0 PUSH1 0x60 DUP3 ADD SWAP1 POP PUSH2 0x1F51 PUSH0 DUP4 ADD DUP7 PUSH2 0x109C JUMP JUMPDEST PUSH2 0x1F5E PUSH1 0x20 DUP4 ADD DUP6 PUSH2 0x109C JUMP JUMPDEST PUSH2 0x1F6B PUSH1 0x40 DUP4 ADD DUP5 PUSH2 0x109C JUMP JUMPDEST SWAP5 SWAP4 POP POP POP POP JUMP INVALID LOG2 PUSH5 0x6970667358 0x22 SLT KECCAK256 EXTCODECOPY 0x2B CALLER 0xDB CALLDATALOAD COINBASE DUP6 0xD4 SWAP7 DELEGATECALL PUSH9 0x74D5F4021BC7A9EEBC 0xF8 0xD3 PUSH3 0x402CD PUSH5 0xE856AFCED4 PUSH5 0x736F6C6343 STOP ADDMOD BYTE STOP CALLER "
				},
				"gasEstimates": {
					"creation": {
						"codeDepositCost": "1621000",
						"executionCost": "25964",
						"totalCost": "1646964"
					},
					"external": {
						"admin()": "2615",
						"buyProperty(uint256)": "infinite",
						"createLease(uint256,address,uint256,uint256)": "infinite",
						"getLeaseDetails(uint256)": "infinite",
						"getPropertyDetails(uint256)": "infinite",
						"leases(uint256)": "infinite",
						"listProperty(string,uint256,address)": "infinite",
						"payRent(uint256)": "infinite",
						"properties(uint256)": "infinite",
						"terminateLease(uint256)": "35736",
						"totalLeases()": "2470",
						"totalProperties()": "2426"
					}
				},
				"methodIdentifiers": {
					"admin()": "f851a440",
					"buyProperty(uint256)": "6fa830a6",
					"createLease(uint256,address,uint256,uint256)": "57286c1f",
					"getLeaseDetails(uint256)": "2e8331fa",
					"getPropertyDetails(uint256)": "126dbe43",
					"leases(uint256)": "8927a106",
					"listProperty(string,uint256,address)": "d89e1e1e",
					"payRent(uint256)": "d9e8843f",
					"properties(uint256)": "f7b10808",
					"terminateLease(uint256)": "588e00a5",
					"totalLeases()": "20d0f311",
					"totalProperties()": "0b3bce20"
				}
			},
			"storageLayout": {
				"storage": [
					{
						"astId": 3,
						"contract": "RealEstate.sol:RealEstate",
						"label": "admin",
						"offset": 0,
						"slot": "0",
						"type": "t_address"
					},
					{
						"astId": 27,
						"contract": "RealEstate.sol:RealEstate",
						"label": "totalProperties",
						"offset": 0,
						"slot": "1",
						"type": "t_uint256"
					},
					{
						"astId": 29,
						"contract": "RealEstate.sol:RealEstate",
						"label": "totalLeases",
						"offset": 0,
						"slot": "2",
						"type": "t_uint256"
					},
					{
						"astId": 34,
						"contract": "RealEstate.sol:RealEstate",
						"label": "properties",
						"offset": 0,
						"slot": "3",
						"type": "t_mapping(t_uint256,t_struct(Property)14_storage)"
					},
					{
						"astId": 39,
						"contract": "RealEstate.sol:RealEstate",
						"label": "leases",
						"offset": 0,
						"slot": "4",
						"type": "t_mapping(t_uint256,t_struct(LeaseAgreement)25_storage)"
					}
				],
				"types": {
					"t_address": {
						"encoding": "inplace",
						"label": "address",
						"numberOfBytes": "20"
					},
					"t_address_payable": {
						"encoding": "inplace",
						"label": "address payable",
						"numberOfBytes": "20"
					},
					"t_bool": {
						"encoding": "inplace",
						"label": "bool",
						"numberOfBytes": "1"
					},
					"t_mapping(t_uint256,t_struct(LeaseAgreement)25_storage)": {
						"encoding": "mapping",
						"key": "t_uint256",
						"label": "mapping(uint256 => struct RealEstate.LeaseAgreement)",
						"numberOfBytes": "32",
						"value": "t_struct(LeaseAgreement)25_storage"
					},
					"t_mapping(t_uint256,t_struct(Property)14_storage)": {
						"encoding": "mapping",
						"key": "t_uint256",
						"label": "mapping(uint256 => struct RealEstate.Property)",
						"numberOfBytes": "32",
						"value": "t_struct(Property)14_storage"
					},
					"t_string_storage": {
						"encoding": "bytes",
						"label": "string",
						"numberOfBytes": "32"
					},
					"t_struct(LeaseAgreement)25_storage": {
						"encoding": "inplace",
						"label": "struct RealEstate.LeaseAgreement",
						"members": [
							{
								"astId": 16,
								"contract": "RealEstate.sol:RealEstate",
								"label": "propertyId",
								"offset": 0,
								"slot": "0",
								"type": "t_uint256"
							},
							{
								"astId": 18,
								"contract": "RealEstate.sol:RealEstate",
								"label": "tenant",
								"offset": 0,
								"slot": "1",
								"type": "t_address"
							},
							{
								"astId": 20,
								"contract": "RealEstate.sol:RealEstate",
								"label": "monthlyRent",
								"offset": 0,
								"slot": "2",
								"type": "t_uint256"
							},
							{
								"astId": 22,
								"contract": "RealEstate.sol:RealEstate",
								"label": "leaseEndDate",
								"offset": 0,
								"slot": "3",
								"type": "t_uint256"
							},
							{
								"astId": 24,
								"contract": "RealEstate.sol:RealEstate",
								"label": "active",
								"offset": 0,
								"slot": "4",
								"type": "t_bool"
							}
						],
						"numberOfBytes": "160"
					},
					"t_struct(Property)14_storage": {
						"encoding": "inplace",
						"label": "struct RealEstate.Property",
						"members": [
							{
								"astId": 5,
								"contract": "RealEstate.sol:RealEstate",
								"label": "propertyId",
								"offset": 0,
								"slot": "0",
								"type": "t_uint256"
							},
							{
								"astId": 7,
								"contract": "RealEstate.sol:RealEstate",
								"label": "location",
								"offset": 0,
								"slot": "1",
								"type": "t_string_storage"
							},
							{
								"astId": 9,
								"contract": "RealEstate.sol:RealEstate",
								"label": "price",
								"offset": 0,
								"slot": "2",
								"type": "t_uint256"
							},
							{
								"astId": 11,
								"contract": "RealEstate.sol:RealEstate",
								"label": "owner",
								"offset": 0,
								"slot": "3",
								"type": "t_address_payable"
							},
							{
								"astId": 13,
								"contract": "RealEstate.sol:RealEstate",
								"label": "isForSale",
								"offset": 20,
								"slot": "3",
								"type": "t_bool"
							}
						],
						"numberOfBytes": "128"
					},
					"t_uint256": {
						"encoding": "inplace",
						"label": "uint256",
						"numberOfBytes": "32"
					}
				}
			},
			"userdoc": {
				"kind": "user",
				"methods": {},
				"version": 1
			}
		}
	}
}